:100000000C9465000C94DF030C948D000C948D000F
:100010000C948D000C948D000C948D000C948D002C
:100020000C948D000C948D000C948D000C948D001C
:100030000C948D000C948D000C948D000C948D000C
:100040000C942A3A0C948D000C948D000C948D0025
:100050000C948D000C948D000C948D000C948D00EC
:100060000C948D000C948D0000000008000201002B
:100070000003040700000000000000000102040863
:100080001020408001020408102001020408102002
:10009000040404040404040402020202020203032E
:1000A00003030303000000002300260029000000D2
:1000B0000000250028002B0000000000240027007D
:1000C0002A00EA03153AF203263A11241FBECFEFA5
:1000D000D8E0DEBFCDBF12E0A0E0B1E0E8E7FDE789
:1000E00002C005900D92A03FB107D9F724E0A0EF20
:1000F000B2E001C01D92AE3AB207E1F710E0C6ECE3
:10010000D0E004C02297FE010E94A43EC23CD10769
:10011000C9F70E947F3C0C94AF3E0C940000FF9204
:100120000F931F93CF93DF938C01F62EFC018581F3
:100130000E949F3BC0E0D0E0F801EC0FFD1F6F2D47
:1001400080850E949F3B2196C430D105A9F7DF919D
:10015000CF911F910F91FF900895CF93DF93EC0102
:1001600060E08F810E94D83B81E090E00E94D13A0C
:1001700061E08F810E94D83B81E090E00E94D13AFB
:1001800060E08F810E94D83B84E690E0DF91CF91C0
:100190000C94D13AEF92FF920F931F93CF93DF937A
:1001A0008C01C0E0D0E0E62EF12CB7010C2E02C08D
:1001B000759567950A94E2F76170F801EC0FFD1FE1
:1001C00080850E94D83B2196C430D10571F7C801C3
:1001D000DF91CF911F910F91FF90EF900C94AD00A4
:1001E0001F93CF93DF93EC01162F642F8D810E9414
:1001F000D83B612F70E084E0759567958A95E1F7AB
:10020000CE010E94CA00612FCE01DF91CF911F91D4
:100210000C94CA0040E00C94F00061E00E940A01D6
:1002200080ED97E00C94D13A62E00E940A0180EDE3
:1002300097E00C94D13A443008F043E0FC01248963
:10024000421710F04FEF420FFC01E40FF11D25891A
:10025000260F2068622F0C940A01FC016189262F69
:100260002460218B6C600C940A01FC0161896D7F14
:10027000618B68600C940A01FC016189262F226061
:10028000218B6A600C940A01FC0161896E7F618B8D
:1002900068600C940A01FC016189262F2160218B82
:1002A00069600C940A01CF92DF92EF92FF920F9354
:1002B0001F93CF93DF9300D0CDB7DEB78C0167706B
:1002C00088E0689FB00111246064C80149835A83A3
:1002D0000E940A014981C42E5A81D52EE12CF12CAD
:1002E000D6016D916D01D801ED91FC910190F081E5
:1002F000E02DC8010995BFEFEB1AFB0AE8E0EE1606
:10030000F10471F70F900F90DF91CF911F910F9132
:10031000FF90EF90DF90CF90089541E00E94F000B1
:1003200081E090E00895CF93DF93EC01423018F024
:1003300088898860888B4C8B1D8A80E48E8B61E075
:10034000CE010E948F0061E08F810E949F3B80E57B
:1003500093EC0E94D13A60E08D810E94D83B60E02E
:100360008F810E94D83B63E0CE010E94CA0084E9DD
:1003700091E10E94D13A63E0CE010E94CA0084E973
:1003800091E10E94D13A63E0CE010E94CA0086E961
:1003900090E00E94D13A62E0CE010E94CA006889D2
:1003A0006062CE010E940A0184E0898BCE010E9426
:1003B0002D01CE01DF91CF910C940D01FC01138230
:1003C000128284E191E09183808388E0858389E0D3
:1003D0008783148284E0808785E0818786E0828736
:1003E00087E08387108A20E041E060E1CF010C9430
:1003F000930120E042E060E10C949301CF93DF93FE
:10040000EC010E94DE018DE291E099838883CE01A8
:10041000DF91CF910C94F9011F93CF93DF93EC01FF
:10042000162F81E01827412F61E0CE010E941B01A9
:1004300068E171E0CE010E94753C412F61E0CE0180
:10044000DF91CF911F910C941B010F931F93CF93BA
:10045000DF93EC018B01642F0E940C02B801CE01E6
:10046000DF91CF911F910F910C94753C40E00C945B
:1004700025020F931F93CF93DF93CDB7DEB7289755
:100480000FB6F894DEBF0FBECDBF88E0E8E0F1E024
:10049000DE01119601900D928A95E1F784E594E0D2
:1004A0000E940D01AE014F5F5F4F67E084E594E06D
:1004B0000E94530184E594E00E944B0164E574E0DE
:1004C00084EF92E00E94BB0761E08AE00E949F3BBC
:1004D00064E670E08AE00E94173B0EE711E062E0FC
:1004E000F80181918F010E949F3BF1E005381F07C1
:1004F000B1F728960FB6F894DEBF0FBECDBFDF91DF
:10050000CF911F910F910895DF92EF92FF920F9379
:100510001F93CF93DF93C9E7D1E061E089910E94F7
:10052000D83B81E0CE37D807C1F7C9E7D1E0E12C4D
:10053000D99060E08D2D0E94D83B0EE711E0F12CA0
:10054000F80181918F010E940E3C892B31F48F2D8F
:10055000880F880F8F0D8E0D0DC0F394F7E0FF12FA
:10056000EFCF61E08D2D0E94D83BE39485E0E81247
:10057000DFCF8FEFDF91CF911F910F91FF90EF9021
:10058000DF900895CF92DF92EF92FF920F931F9327
:10059000CF93DF939C0165E070E00E949B3C7B0160
:1005A0006C0137FD22C009E711E0C0E0D0E0F8019E
:1005B00081918F0161E0CC15DD0509F460E00E94B6
:1005C000D83B2196C530D10591F7F701E258FE4F8F
:1005D000C0818C2F0E940E3C892B39F46AE070E0B8
:1005E00080E090E00E94973AF4CFDF91CF911F9185
:1005F0000F91FF90EF90DF90CF9008950F931F938E
:10060000CF93DF9309E711E0C0E0D0E0F8018191DA
:100610008F0161E0209709F460E00E94D83B2196A9
:10062000C530D10599F783B7817F846083BFF89483
:1006300080917A008F7780937A001092690081E030
:100640008DBB8FE380937E0083E080937F0083B730
:10065000816083BF85B7806685BF8F7D85BF7894B5
:10066000889583B78E7F83BF10927F0010927E00A3
:10067000DF91CF911F910F9108951F93CF93DF9337
:10068000CDB7DEB72A970FB6F894DEBF0FBECDBF49
:100690000E948402182F8091F00217FD1CC0212FA8
:1006A000332727FD3095F901EB5AFE4F6081F901A0
:1006B000EF5CFE4F40811092F3021092F2026F3F06
:1006C00051F0882319F01092F00220C084EF92E0DC
:1006D0000E94BA101BC08823C9F084E594E00E94F0
:1006E00014016091F2027091F302CE0101960E9412
:1006F0005911CE0101960E942719BC0184E594E0AE
:100700000E94753CCE0101960E9409128091F00270
:10071000811136C08091F102811107C02091F2024F
:100720003091F3022D3231405CF168E084E594E0D1
:100730000E940A0160E070E08AE00E94173B82E0BC
:100740000E940E3C892B39F464E670E080E090E072
:100750000E94973AF4CF0E94FE0264E670E080E0C7
:1007600090E00E94973A1092F3021092F20281E018
:100770008093F1024EE261E284EF92E00E94BA10AF
:10078000812F992787FD90950E94C2028091F202E5
:100790009091F30201969093F3028093F20264E643
:1007A00070E080E090E00E94973A2A960FB6F894A5
:1007B000DEBF0FBECDBFDF91CF911F9108951F9275
:1007C0000F920FB60F9211241DBA0F900FBE0F900B
:1007D0001F90189584E594E00E94FE0184EF92E05A
:1007E0000C94C306CF93DF9385E494E00E94091232
:1007F00081E493E0892B59F484E393E00E94091289
:1008000088EF92E0892BB1F0C4E3D3E00BC0C5E4DC
:10081000D4E02A97CE010E94091283E0C134D807A0
:10082000C1F7EACF2A97CE010E94091282E0C83FA1
:10083000D807C1F7DF91CF910895DF92EF92FF9231
:100840000F931F93CF93DF93CDB7DEB764970FB6A7
:10085000F894DEBF0FBECDBF8C01D62ECE010B9615
:100860000E94301178012BE4E20EF11CF701808127
:1008700080FD31C0982F916090839DE29093760423
:10088000E7E7F4E0119224E0E838F207D9F786FDB3
:1008900009C060E0F801808191810E940C02C801CA
:1008A0000E943F0781E080937504109274041092B7
:1008B00073041092720410927104109270041092DA
:1008C0006F04F801808191810E943C01F8018081D0
:1008D00091810E944B01F9E3FD15DCF020E3D21673
:1008E0000CF051C03DE0D31609F49BC13D1544F016
:1008F000DD2009F41FC248E0D41609F43BC1E6C16B
:1009000081E2D81609F4D8C19EE2D91609F4C6C00E
:10091000DDC1EFE5DE1609F475C0ED15FCF0F5E478
:10092000DF1609F4EDC028E5D21609F457C13FE3FC
:10093000D312CCC1F701808192E089278083C8015E
:100940000E943F076091750480917404680F41E034
:10095000F801808191810E941B01ECC141E6D4160F
:100960000CF4B4C186E68D152CF49FE7D91609F472
:1009700001C1ACC1F801E45AFE4F8081882309F41B
:10098000A5C1E0EEDE0E809170048823D9F020919D
:100990007104309172044AE0429FC001439F900D60
:1009A00011242D2D332727FD309520533109820F37
:1009B000931F8333F1E09F070CF0BCC19093720446
:1009C00080937104E091750481E08E0F809375042B
:1009D000FF27E7FDF095EA58FB4FD0826D2DF80117
:1009E000808191810E94773CF701808186FFA2C1BE
:1009F0008091750483300CF014C1F1E3FD150CF403
:100A000010C198C180917004882379F120916F04FE
:100A100081E0282720936F0480916E04992787FD39
:100A200090958A589B4FE0E0DC01AE0FB11DE7FDC9
:100A3000BA953C91332371F0EF5F3730A9F7FF2768
:100A4000E7FDF095211188C1E80FF91F80818D32F3
:100A500009F48AC190917504222311F081E001C04C
:100A60008FEF890F8093750406C08091740491E024
:100A700089278093740460E0F801808191810E944D
:100A80000C026091740481E0682770E06A587B4F23
:100A9000F801808191810E94753C4CC18091730462
:100AA00081112AC08091750482309CF460E3F801C2
:100AB000808191810E94773CE091750481E08E0FE6
:100AC00080937504FF27E7FDF095EA58FB4F80E31C
:100AD0008083E091750481E08E0F80937504FF2779
:100AE000E7FDF095EA58FB4F8EE280836EE2F80155
:100AF000808191810E94773C81E0809373041AC1C8
:100B00008091700481112CC080917504813099F41A
:100B100061E3F801808191810E94773CE091750446
:100B200081E08E0F80937504FF27E7FDF095EA586A
:100B3000FB4F81E38083E0917504E0936E0481E0D4
:100B40008E0F80937504FF27E7FDF095EA58FB4F61
:100B500087E0808367E0F801808191810E94773C83
:100B600081E08093700410927204109271041092CC
:100B70006F04E0C020917504215020937504E22F8A
:100B8000FF27E7FDF095EA58FB4F80818E3219F47C
:100B90001092730404C0853611F410927004909181
:100BA0007004992321F08D3211F410926F0480911A
:100BB0007104909172046AE070E00E949B3C709313
:100BC000720460937104108222300CF475C060E0EE
:100BD000F801808191810E940C0216C0F801E45A4C
:100BE000FE4F808191E089278083882319F060E19E
:100BF00070E002C06AE070E0C801805C9F4F0E9414
:100C00000D15C8010E943F076091740481E06827B8
:100C100070E06A587B4FF801808191810E94360212
:100C200089C0E0917504FF27E7FDF095EA58FB4F76
:100C300010826091740481E0682770E06A587B4FED
:100C400040E050E0CE0101960E944E19BE016F5F58
:100C50007F4FCE010B960E94C211CE0101960E94D9
:100C60000912F701808186FF0BC0CE010B960E940E
:100C7000A813B901C801805C9F4F0E94011511C0E3
:100C8000F801E65BFF4F808198014AE0849F200DC8
:100C9000311D1124C901BE01655F7F4F04960E947A
:100CA000C211F7011082F801E45BFF4F81E08083FD
:100CB000C8010E94B3073EC0B801CE0101960E9450
:100CC0002208CE0101960E940912EBCFF701808124
:100CD0008E7F8083E0917504FF27E7FDF095EA5849
:100CE000FB4F10828091740491E08927682F70E097
:100CF0006A587B4F40E050E0CE0101960E944E19A9
:100D0000F801E65BFF4F808198014AE0849F200D47
:100D1000311D1124C901BE016F5F7F4F04960E94EF
:100D2000C211CE0101960E9409124EE26D2DC8013A
:100D30000E94BA10CE010B960E94091264960FB65B
:100D4000F894DEBF0FBECDBFDF91CF911F910F9101
:100D5000FF90EF90DF900895E80FF91F80818D32AA
:100D600009F478CE8DE207C08081882309F472CE21
:100D700081818193F9CF9081892798279193892741
:100D8000D1F7108267CEAF92BF92CF92DF92EF92EF
:100D9000FF920F931F93CF93DF93CDB7DEB72A97C0
:100DA0000FB6F894DEBF0FBECDBF8C017C0184E08E
:100DB000E80EF11C6701ECE3CE0ED11CC7010E94C6
:100DC0003011FAE0EF0EF11CEC14FD04B9F76801E4
:100DD00080E4C80ED11CC6010E9430117801EDE4F8
:100DE000EE0EF11C5801FFEAAF1AFEEFBF0AC70171
:100DF0000E9430118AE0E80EF11CEA14FB04B9F7F6
:100E0000C7010E943011F801E55BFF4F108260E0DE
:100E100070E0CE0101960E945911BE016F5F7F4FB5
:100E2000C6010E94C211CE0101960E940912F8016A
:100E3000E45BFF4F81E08083E15FFE4F808331966A
:100E40001082E251F1401082ED5EFE4F1082329628
:100E5000808384E690E0F801938382832A960FB61C
:100E6000F894DEBF0FBECDBFDF91CF911F910F91E0
:100E7000FF90EF90DF90CF90BF90AF900895CF9309
:100E8000DF93EC01888199810E941401FE01E45AEC
:100E9000FE4F8081811106C031978081882321F027
:100EA00060E203C068E701C062E7888199810E941F
:100EB000773C41E060E0888199810E941B01FE013E
:100EC000E55BFF4F808181FF02C06EE501C060E2FB
:100ED00088819981DF91CF910C94773CFF920F9399
:100EE0001F93CF93DF93EC01888199810E94350194
:100EF000888199810E944401CE010E943F078E01A2
:100F0000065B1F4FF801808190E0019666E070E07B
:100F10000E949B3C2AE0F22EF89E9001F99E300D33
:100F200011242C5F3F4FCE01820F931F0E9427197F
:100F300041E0BC01888199810E942502F8018081ED
:100F40009E01F89E200D311D1124C90104960E94B6
:100F50002719BC0188819981DF91CF911F910F9151
:100F6000FF900C943602FC01E55BFF4F208120FFCF
:100F70000C946E0708950F931F93CF93DF93CDB713
:100F8000DEB764970FB6F894DEBF0FBECDBF8C01FD
:100F9000FC01718360836AE570E0CE010B960E94CC
:100FA0005911BE01655F7F4FCE0101960E949911D4
:100FB0006BE974E0CE0101960E947312BE016F5F6F
:100FC0007F4FC8018F5A9E4F0E94C211CE010196D9
:100FD0000E940912CE010B960E940912C8010E94BC
:100FE000B30764960FB6F894DEBF0FBECDBFDF9196
:100FF000CF911F910F9108959C01DC01A65BBF4F1B
:101000008C918B5F66E00E948F3C9C93E92FF0E00F
:10101000CF01019666E070E00E949B3C4AE0489F49
:10102000B001499F700D11246C5F7F4F620F731FD9
:101030004E9FC0014F9F900D11240496820F931F65
:101040000C94C211CF92DF92EF92FF920F931F93F5
:10105000CF93DF93CDB7DEB72A970FB6F894DEBFF4
:101060000FBECDBF6C018B017B018AE4E80EF11C41
:10107000F70180818F5F66E00E948F3C908360E083
:1010800070E0CE0101960E945911F7012081822F54
:1010900090E0059666E070E00E949B3C4AE0489F25
:1010A0009001499F300D11242C5F3F4FBE016F5FAF
:1010B0007F4FC801820F931F0E94C211CE0101967B
:1010C0000E940912B801605C7F4FC6010E9499110D
:1010D000C6012A960FB6F894DEBF0FBECDBFDF91D2
:1010E000CF911F910F91FF90EF90DF90CF900895D7
:1010F000BF92CF92DF92EF92FF920F931F93CF9305
:10110000DF93CDB7DEB72A970FB6F894DEBF0FBED8
:10111000CDBF8C017C012AE4E20EF11CF701808135
:1011200090E0019636E0C32ED12CB6010E949B3C84
:101130004AE0B42EB89EB001B99E700D11246C5FC8
:101140007F4F600F711FCE0101960E949911F70128
:10115000808190E0B89E9001B99E300D11242C5FE3
:101160003F4F200F311F0196B6010E949B3CB89E55
:10117000A001B99E500D11244C5F5F4FB901C80109
:10118000840F951F0E94C211F70180819801B89EBB
:10119000200D311D1124C901BE016F5F7F4F0496E0
:1011A0000E94C211CE0101960E9409122A960FB622
:1011B000F894DEBF0FBECDBFDF91CF911F910F918D
:1011C000FF90EF90DF90CF90BF900895CF93DF9383
:1011D000EC01888199810E940D0141E065E871E090
:1011E00088819981DF91CF910C942502BF92CF9293
:1011F000DF92EF92FF920F931F93CF93DF93CDB7C0
:10120000DEB7C654D1090FB6F894DEBF0FBECDBF0E
:101210007C01B62E6C0120E4C20ED11CB601CE01B9
:10122000CD960E94991105E115E525EB3BEB41EBCD
:101230005BE662E070E4CE01C3960E9487118701ED
:10124000055B1F4F3FE3F8018081B31609F4A6C286
:1012500084FD12C0C7010E94E608F701E65BFF4F5C
:101260008081B701FAE08F9F600D711D11246C5FC2
:101270007F4FC6010E94C21128E5B21609F4C4C20C
:101280002B150CF44DC03EE2B31609F4C5C03B1556
:101290009CF141E2B41609F4A2C24B155CF088E05F
:1012A000B81609F45BC29DE0B912C5C2C7010E941D
:1012B000FC07C1C2EBE2BE1609F4E4C0FDE2BF16B2
:1012C00009F4F7C02AE2B212B6C2B701CE01019604
:1012D0000E942208F701E65BFF4F8081F7012AE0B8
:1012E000829FE00DF11D1124CF01BE016F5F7F4F82
:1012F00004960E94A512F3C039E33B152CF040E39D
:10130000B4160CF4F1C088C082E5B81609F45BC2CB
:1013100093E5B91609F44CC2E5E4BE128CC27CC058
:10132000F5E6BF1609F471C1FB150CF458C021E6AF
:10133000B21609F4F0C02B158CF13CE5B31609F494
:101340000DC24FE5B41277C267013AE4C30ED11C57
:10135000F60180816AE0B62E8701B89E000D111D4E
:1013600011240C5F1F4F6FEF7FEFCE0101960E949B
:101370005911BE016F5F7F4FC8010E94A512CE01B7
:1013800001960E940912F60180819701B89E200DF6
:10139000311D1124C901B801049607C28701065BFB
:1013A0001F4F83E6B81609F40AC18B150CF4DCC094
:1013B000F80180812AE0D22EB701D89E600D711D00
:1013C00011246C5F7F4FCE010B960E949911BE01D4
:1013D000655F7F4FCE0101960E94D235DBC098E653
:1013E000B91609F458C19B155CF0E6E6BE1609F47F
:1013F0004CC1F7E6BF121FC2C7010E9478081BC28A
:101400002AE6B21609F489C1B2160CF465C13FE7A9
:10141000B31609F4A3C10FC2F701E45BFF4F80814B
:10142000882339F0F801808186FD03C0C7010E943E
:10143000FC07F701E65BFF4F808190E0019666E0D4
:1014400070E00E949B3C4AE0489F9001499F300D0C
:1014500011242C5F3F4FC701820F931F0E94271951
:1014600041E0BC01F701808191810E94250260E08A
:10147000F701808191810E940C026B2DC7010E94AF
:101480001D04DCC1B701CE0101960E942208F701BC
:10149000E65BFF4F808197014AE0849F200D311D5C
:1014A0001124C901BE016F5F7F4F04960E940F1285
:1014B00016C0B701CE0101960E942208F701E65B33
:1014C000FF4F8081F7012AE0829FE00DF11D11247A
:1014D000CF01BE016F5F7F4F04960E944112CE0183
:1014E00001960E940912A7C1B701CE0101960E9480
:1014F0002208F701E65BFF4F8081F7012AE0829F17
:10150000E00DF11D1124CF01BE016F5F7F4F0496E6
:101510000E947312E4CF67013AE4C30ED11CF601B6
:1015200080813AE0B32E8701B89E000D111D112471
:101530000C5F1F4F61E070E0CE010B960E945911C5
:10154000BE01655F7F4FCE0101960E949911B801DF
:10155000CE0101960E947312F60180819701B89E18
:10156000200D311D11241DC0F8018081BAE0DB2E51
:10157000B701D89E600D711D11246C5F7F4FCE01A5
:101580000B960E949911BE01655F7F4FCE010196B7
:101590000E947B34F80180819701D89E200D311D77
:1015A0001124C901BE016F5F7F4F04960E94C211D2
:1015B000CE0101960E940912CE010B9692CFF8013E
:1015C00080819AE0D92E9701D89E200D311D1124DB
:1015D000C90104960E949713811149C1F8018081C5
:1015E00090E0019666E070E00E949B3CD89E9001DE
:1015F000D99E300D11242C5F3F4FC701820F931FDE
:101600000E94971381118CC132C18701065B1F4F65
:10161000F8018081AAE0DA2EB701D89E600D711D15
:1016200011246C5F7F4FCE0145960E949911BE0137
:101630006B5E7F4FCE010B960E947B34BE01655FCF
:101640007F4FCE0101960E949911BE016D5C7F4FC4
:10165000CE0101960E947312F80180819701D89EF5
:10166000200D311D1124C901BE016F5F7F4F04960B
:101670000E94C211CE0101960E940912CE010B9662
:101680000E940912CE0145962CCFB701CE010196DA
:101690000E94220824CF8701065B1F4FF80180813A
:1016A000FAE0DF2EB701D89E600D711D11246C5F2A
:1016B0007F4FCE010B960E949911B7016F5A7E4F52
:1016C000CE010B960E947312BE01655F7F4FCE0163
:1016D00001960E9490315ECF8701065B1F4FF80193
:1016E0008081EAE0DE2EB701D89E600D711D1124C5
:1016F0006C5F7F4FCE010B960E949911B7016F5A14
:101700007E4FCE010B960E947312BE01655F7F4F24
:10171000CE0101960E94D8333DCF8701065B1F4F53
:10172000F80180817AE0D72EB701D89E600D711D37
:1017300011246C5F7F4FCE010B960E949911B70167
:101740006F5A7E4FCE010B960E947312BE01655FE9
:101750007F4FCE0101960E941A341CCF60E070E0EA
:10176000CE0101960E945911F701E65BFF4F80817F
:10177000F7012AE0829FE00DF11D1124CF01BE0187
:101780006F5F7F4F04960E94C211CE0101960E94A6
:101790000912F701E45BFF4F10824DC092E08927E8
:1017A0008083BE01635C7F4FC6010E94C21143C0AB
:1017B0006AE871E0F701808191810E943602F801A8
:1017C000808180610AC06EE871E0F70180819181BB
:1017D0000E943602F8018081806280832FC0809150
:1017E000F10291E089278093F102811127C06CE01A
:1017F000F701808191810E940A01F7016281738162
:101800008AE00E94173B17C0BE01635C7F4FC60190
:101810000E94C211F701E45AFE4F808191E08927AE
:101820008083882319F060E170E002C06AE070E014
:10183000C6010E940D15C7010E94B307CE01C396D1
:101840000E940912CE01CD960E940912CA5BDF4F99
:101850000FB6F894DEBF0FBECDBFDF91CF911F91C1
:101860000F91FF90EF90DF90CF90BF900895F80117
:10187000808190E0019666E070E00E949B3C5AE017
:10188000D52ED89EB001D99E700D11246C5F7F4F6C
:101890006E0D7F1DCE014F960E949911BE01615EB3
:1018A0007F4FCE0145960E947B34B701CE018996C9
:1018B0000E942208BE01675D7F4FCE010B960E94F9
:1018C0009911BE016B5E7F4FCE010B960E94A5124F
:1018D000BE01655F7F4FCE0101960E94C132F801C3
:1018E00080819701D89E200D311D1124C901BE01B0
:1018F0006F5F7F4F04960E94C211CE0101960E9435
:101900000912CE010B960E940912CE0189960E94FF
:101910000912CE0145960E940912CE014F96E1CDE3
:10192000B701CE0101960E942208CE0101960E94C5
:10193000091260E070E0CE0101960E945911F80191
:1019400080819701D89E200D311D1124C901BE014F
:101950006F5F7F4F04960E94C211C1CD2F923F92BC
:101960004F925F926F927F928F929F92AF92BF92AF
:10197000CF92DF92EF92FF920F931F93CF93DF935B
:10198000CDB7DEB7C555D1090FB6F894DEBF0FBE8F
:10199000CDBF4C01262F3C0130E4630E711CB30116
:1019A000CE01895B9F4F66962FAF66970E94991173
:1019B00066962FAD6697213609F415C12F3309F4C9
:1019C00036C38401055B1F4FF801808184FD15C07B
:1019D000C4010E94E608F401E65BFF4F8081B40178
:1019E000FAE08F9F600D711D11246C5F7F4FC30162
:1019F0000E94C21166962FAD66972F3509F41DC25D
:101A00000CF093C02D3209F4F6C2ECF4213209F443
:101A100033C224F42D3009F01DC309C32A3209F45E
:101A2000E1C22B3209F016C362E971E0F401808152
:101A300091810E94360280E4F801808360E0C40155
:101A40000E941D041DC32A330CF059C020330CF032
:101A5000EEC22E3209F4FAC22F3209F0FBC2C401E1
:101A6000865B9F4F63969FAF8EAF6397FC0180812B
:101A700090E0019666E070E00E949B3CFAE0F89FDF
:101A80009001F99F300D11242C5F3F4FC401820F4C
:101A9000931F0E94A81319012A013B0164968FAF7E
:101AA000649765969FAF6597B401CE010B960E942F
:101AB0002208CE010B960E94A81359016A017B01EE
:101AC0008C019101A201B30164968FAD6497659674
:101AD0009FAD65970E944D3DBA01422F532FCE0115
:101AE00001960E9471116396EEADFFAD6397808100
:101AF00094014AE0489F200D311D11249DC22534D8
:101B000009F0A8C28401065B1F4FF80180817AE0CA
:101B1000772EB401789E600D711D11246C5F7F4F8C
:101B2000CE0101960E94E0149AC1253609F402C143
:101B30007CF58401065B1F4F223609F465C024F44E
:101B4000213609F087C24FC0233609F47CC0243601
:101B500009F080C2F8018081FAE07F2EB401789EFE
:101B6000600D711D11246C5F7F4FCE010B960E949A
:101B70009911BE01655F7F4FCE0101960E94C1326F
:101B8000F80180819401789E200D311D112454C2EA
:101B9000283609F4D0C13CF4263609F40EC12736A4
:101BA00009F476C157C28401065B1F4F293609F438
:101BB000DCC12A3609F04EC2F80180814AE0742E59
:101BC000B401789E600D711D11246C5F7F4FCE01B2
:101BD00045960E949911BE016B5E7F4FCE010B9618
:101BE0000E943F36D8C1C4010E94FC07F401E65BA5
:101BF000FF4F808194014AE0849F200D311D112404
:101C0000C901B301049633C2F8018081BAE05B2EAA
:101C10003401589E600C711C112493012C5F3F4FBE
:101C20003901B901CE0101960E949911B301CE018B
:101C300001960E94A512F80180819401589E200D02
:101C4000311D112413C1F801808190E0019666E0F6
:101C500070E00E949B3CAAE07A2E789EB001799EAB
:101C6000700D11246C5F7F4F680D791DCE014F966A
:101C70000E949911BE01615E7F4FCE0145960E9480
:101C80007B34B401CE01C3960E94220861E070E06B
:101C9000CE01CD960E945911BE01635C7F4FCE01EB
:101CA00089960E949911BE016D5C7F4FCE01899685
:101CB0000E947312BE01675D7F4FCE010B960E949A
:101CC0009911BE016B5E7F4FCE010B960E94A5124B
:101CD000BE01655F7F4FCE0101960E94C132F801BF
:101CE00080819401789E200D311D1124C901BE010F
:101CF0006F5F7F4F04960E94C211CE0101960E9431
:101D00000912CE010B960E940912CE0189960E94FB
:101D10000912CE01CD960E940912CE01C3960E94EF
:101D20000912CE0145960E940912CE014F960E94DB
:101D300009129FC16AE070E0CE014F960E945911CE
:101D4000BE01615E7F4FCE0145960E947B34B40197
:101D5000CE0189960E942208BE01675D7F4FCE01A9
:101D60000B960E949911BE016B5E7F4FCE010B96C0
:101D70000E94A512BE01655F7F4FCE0101960E94B1
:101D8000C132F401E65BFF4F8081F4012AE0829FBB
:101D9000E00DF11D1124CF01BE016F5F7F4F04964E
:101DA0000E94C211CE0101960E940912CE010B962B
:101DB0000E940912CE018996B2CFC4010E94FC078D
:101DC00062E070E0CE010B960E94591108E11DE21D
:101DD00024E434E54BEF51E269EF7FE3CE01459611
:101DE0000E948711BE016B5E7F4FCE0101960E945B
:101DF0009911BE01655F7F4FCE0101960E94A51229
:101E0000F401E65BFF4F8081F4012AE0829FE00D40
:101E1000F11D1124CF01BE016F5F7F4F04960E9418
:101E2000C211CE0101960E940912CE0145960E9470
:101E30000912CE010B960E9409128401065B1F4F06
:101E4000F8018081EAE07E2EB401789E600D711D5C
:101E500011246C5F7F4FCE0101960E947814F80127
:101E600080819401789E200D311D1124C901BE018D
:101E70006F5F7F4F04965AC067E971E0F40180817B
:101E800091810E943602F801808180688083F8C0C9
:101E9000BE01695B7F4FC3010E94C211F401E55A84
:101EA000FE4F808191E08927808394012F5A3E4F15
:101EB0003901882389F108E11DE224E434E54BEF80
:101EC00051E269EF7FE3CE010B960E9487116AE52C
:101ED00070E0CE0145960E945911BE016B5E7F4FA6
:101EE000CE0101960E949911BE01655F7F4FCE0120
:101EF00001960E947312BE016F5F7F4FC3010E9463
:101F0000C211CE0101960E940912CE0145960E948F
:101F10000912CE010B960BCF61E070E0CE01019665
:101F20000E945911BE016F5F7F4FC3010E94C21111
:101F3000CE010196FCCE8401065B1F4FF801808123
:101F40006AE0762EB401789E600D711D11246C5FDD
:101F50007F4FCE0145960E949911BE016B5E7F4F67
:101F6000CE010B960E942D3916C0F80180815AE0EF
:101F7000752EB401789E600D711D11246C5F7F4F2A
:101F8000CE0145960E949911BE016B5E7F4FCE0136
:101F90000B960E94DE39BE01655F7F4FCE01019630
:101FA0000E949911B4016F5A7E4FCE0101960E9492
:101FB000A512F80180819401789E200D311D112415
:101FC000C901BE016F5F7F4F04960E94C211CE010E
:101FD00001960E940912CE010B960E940912CE01B1
:101FE0004596A5CEF401E25AFE4F808191E0892703
:101FF0008083319708C0F401E35AFE4F808191E05D
:102000008927808331961082F401E25AFE4F408185
:10201000411107C031978081811103C06AE070E0EF
:1020200002C060E070E0C3010E94061522C0622F6A
:10203000C4010E94F60824C0C901BE016F5F7F4F32
:1020400004960E94C211CE01019661CF81E0809377
:10205000F0020FC0F401E65BFF4F8081B4019AE00B
:10206000899F600D711D11246C5F7F4FC3010E9419
:10207000C211F401E55BFF4F1082C4010E946E079C
:10208000CE01895B9F4F0E940912CB5ADF4F0FB6DA
:10209000F894DEBF0FBECDBFDF91CF911F910F919E
:1020A000FF90EF90DF90CF90BF90AF909F908F9078
:1020B0007F906F905F904F903F902F900895FC011C
:1020C000E65BFF4F2081EAE0AC01E29F400D511D2D
:1020D00011249A012C5F3F4F772767FD7095615659
:1020E0007109E69FA001E79F500D1124435B5F4FEC
:1020F000B901840F951F0C94C211EF92FF920F93B8
:102100001F93CF93DF931F92CDB7DEB77C018C0175
:10211000045B1F4FF8018081882329F0C701698380
:102120000E94FC07698181E0F8018083862F99274E
:1021300087FD9095815691092AE0289FB001299F3B
:10214000700D1124635B7F4F6E0D7F1DF701E65B01
:10215000FF4F8081A701289F400D511D1124CA0106
:1021600004960F90DF91CF911F910F91FF90EF9008
:102170000C94C211EF92FF920F931F93CF93DF93B2
:102180001F92CDB7DEB77C018C01055B1F4FF801B4
:10219000808187FF18C01082862F992787FD909530
:1021A000C0976AE070E00E949B3C14E0880F991F82
:1021B0001A95E1F70896F70193838283BC018AE0C0
:1021C0000E94173B13C0982F9073D1F04E3251F0FC
:1021D000642F84FF04C0C7010E945F1003C0C701C1
:1021E0000E947D10F80180818F7C8083C7010F9051
:1021F000DF91CF911F910F91FF90EF900C94B30757
:1022000080FF0AC0C7010F90DF91CF911F910F91FE
:10221000FF90EF900C941D04F701808191816983F8
:102220000E943501F701808191810E944401F801EB
:102230008081698181FF0AC0C7010F90DF91CF9132
:102240001F910F91FF90EF900C94AE0CC7010F906F
:10225000DF91CF911F910F91FF90EF900C94F608B2
:10226000CF93DF93EC018DEA91E09983888360E05E
:1022700070E0CB010E9408302A833B834C835D834E
:102280006E837F8388879987DF91CF9108950F931D
:102290001F93FC018DEA91E0918380830283138375
:1022A0002483358346835783608771871F910F91FD
:1022B0000895CF93DF93EC018DEA91E099838883B1
:1022C000882777FD8095982F0E9408302A833B83CA
:1022D0004C835D836E837F8388879987DF91CF915D
:1022E0000895CF93DF93EC018DEA91E09983888381
:1022F000CB01BA010E9408302A833B834C835D8363
:102300006E837F8388879987DF91CF9108950F939C
:102310001F93FC018DEA91E09183808302831383F4
:102320002483358346835783608771871F910F917C
:102330000895FC01DB018DEA91E091838083E6172B
:10234000F707F9F012968C911297828313968C916D
:102350001397838314968C911497848315968C918C
:102360001597858316968C911697868317968C9170
:102370001797878318968C911897808719968C9158
:1023800081870895FC01DB0186179707F9F0129603
:102390008C911297828313968C9113978383149652
:1023A0008C911497848315968C9115978583169636
:1023B0008C911697868317968C911797878318961A
:1023C0008C911897808719968C918187CF010895F9
:1023D000FC01DB018C91828311968C911197838390
:1023E00012968C911297848313968C911397858300
:1023F00014968C911497868315968C9115978783E4
:1024000016968C911697808717968C918187CF01AD
:1024100008952DEA31E0FC01318320830895AF92C5
:10242000BF92CF92DF92EF92FF920F931F93CF93C1
:10243000DF93EC01FB01A280B380C480D580E680ED
:10244000F780008511852A813B814C815D816E81F9
:102450007F81888599850E94FD262A833B834C8352
:102460005D836E837F8388879987CE01DF91CF91CB
:102470001F910F91FF90EF90DF90CF90BF90AF90A2
:102480000895AF92BF92CF92DF92EF92FF920F9397
:102490001F93CF93DF93EC01FB01A280B380C48034
:1024A000D580E680F780008511852A813B814C81AB
:1024B0005D816E817F81888599850E94EE2E2A83B9
:1024C0003B834C835D836E837F8388879987CE01AE
:1024D000DF91CF911F910F91FF90EF90DF90CF9000
:1024E000BF90AF900895AF92BF92CF92DF92EF92DC
:1024F000FF920F931F93CF93DF93EC01FB01A28018
:10250000B380C480D580E680F780008511852A815C
:102510003B814C815D816E817F81888599850E9498
:1025200046272A833B834C835D836E837F83888722
:102530009987CE01DF91CF911F910F91FF90EF907E
:10254000DF90CF90BF90AF900895AF92BF92CF929F
:10255000DF92EF92FF920F931F93CF93DF93EC01E3
:10256000FB01A280B380C480D580E680F78000851F
:1025700011852A813B814C815D816E817F818885B7
:1025800099850E943F2B2A833B834C835D836E8316
:102590007F8388879987CE01DF91CF911F910F911B
:1025A000FF90EF90DF90CF90BF90AF900895AF92E3
:1025B000BF92CF92DF92EF92FF920F931F93FC0195
:1025C000DB011296AC9012971396BC901397149659
:1025D000CC9014971596DC9015971696EC9016975C
:1025E0001796FC90179718960C91189719961C91AE
:1025F00022813381448155816681778180859185EF
:102600000E94BF2A1F910F91FF90EF90DF90CF9013
:10261000BF90AF9008958F929F92AF92BF92CF924A
:10262000DF92EF92FF920F931F93CF93DF93EC0112
:102630004B01FB01A280B380C480D580E680F78087
:10264000008511852A813B814C815D816E817F816E
:10265000888599850E94BF2A811116C0F401A28045
:10266000B380C480D580E680F780008511852A81FB
:102670003B814C815D816E817F81888599850E9437
:10268000712A91E0982701C090E0892FDF91CF91C6
:102690001F910F91FF90EF90DF90CF90BF90AF9080
:1026A0009F908F900895AF92BF92CF92DF92EF925A
:1026B000FF920F931F93FC01DB011296AC901297CF
:1026C0001396BC9013971496CC9014971596DC90A3
:1026D00015971696EC9016971796FC9017971896E4
:1026E0000C91189719961C91228133814481558150
:1026F00066817781808591850E94712A1F910F9153
:10270000FF90EF90DF90CF90BF90AF9008950F9320
:10271000FC012281338144815581668177818085E6
:1027200091850FE30E943F3E822F0F910895FC0197
:10273000B1E0228133814481558166817781808532
:102740009185A0E00E94823E09F0B0E08B2F0895B1
:10275000EF920F93FC012281338144815581668180
:102760007781E12C01E0808591850E94372F0F91C0
:10277000EF9008952F923F924F925F926F927F92C7
:102780008F929F92AF92BF92CF92DF92EF92FF9281
:102790000F931F93CF93DF93CDB7DEB727970FB675
:1027A000F894DEBF0FBECDBF322E432E542E652EC1
:1027B000762E872E982E9F831A830983ED82CB82F3
:1027C000212C3C2D330F330B3E83232D342D452DEF
:1027D000562D672D782D892D9F81A0E00E94823E85
:1027E00009F43EC0AB80BE80CB2CDB2CEB2CFB2C49
:1027F0000B2D1B2D232D342D452D562D672D782D7A
:10280000892D9F810E944D3D80E3820F8A3314F011
:1028100087E3820F41E0420D4C83E981FA81E20DAA
:10282000F11D27FCFA958083AB80BE80CB2CDB2C7E
:10283000EB2CFB2C0B2D1B2D232D342D452D562D34
:10284000672D782D892D9F810E944F3D322E432E7A
:10285000542E652E762E872E982E9F832C80B5CFF2
:1028600020E3822D992787FD9095AD81E981FA813A
:102870002A162CF4E80FF91F20832394F2CF20E0CE
:1028800030E04C01B1E08B1A91083F01680E791ECF
:10289000A401420F531F66277727621B730B215039
:1028A0003109641775074CF44081B301620F731F3F
:1028B000DB015C9151934C93EBCFF301108227968F
:1028C0000FB6F894DEBF0FBECDBFDF91CF911F9141
:1028D0000F91FF90EF90DF90CF90BF90AF909F90BF
:1028E0008F907F906F905F904F903F902F900895C2
:1028F0006F927F928F929F92AF92BF92CF92DF9210
:10290000EF92FF920F931F93CF93DF93CDB7DEB774
:1029100028970FB6F894DEBF0FBECDBF3C014B0128
:102920000E94991160E070E0CB010E9408305901CB
:102930006A017B01F40122813381448155816681E2
:1029400077818C01808591850E94BF2A882311F1AF
:102950006FEF7FEFCB010E94083059016A017B01C4
:10296000F4012281338144815581668177818C0114
:10297000808591850E943F2B29833A834B835C831A
:102980006D837E838F839887BE016F5F7F4FC30106
:102990000E94E811C30128960FB6F894DEBF0FBE5F
:1029A000CDBFDF91CF911F910F91FF90EF90DF90FE
:1029B000CF90BF90AF909F908F907F906F90089531
:1029C000EF920F931F93CF93DF93EC01FB012281D2
:1029D00033814481558166817781E12C01E08085D6
:1029E00091850E94252D89019A01AB01BC01CE0180
:1029F0000E944711CE01DF91CF911F910F91EF906F
:102A00000895709306016093050108957093040181
:102A10006093030140938804089560930001772731
:102A200067FD709570930201609301010895CF9343
:102A3000DF93EC01FB01128213821482158216824D
:102A4000178288EF80878FEF8187CE010E949911CE
:102A5000CE01DF91CF9108958F929F92AF92BF9256
:102A6000CF92DF92EF92FF920F93FC01A280B3808E
:102A7000C480D580E680F780B085E1859501A60108
:102A8000B7018B2F8F7090E0A0E00E94823E71F022
:102A90008B2F9E2F04E30E943F3E490187E098223E
:102AA00081E09FEF891697E0990609F080E00F9189
:102AB000FF90EF90DF90CF90BF90AF909F908F905E
:102AC00008958F929F92AF92BF92CF92DF92EF9232
:102AD000FF920F93FC01A280B380C480D580E68072
:102AE000F780B085E1859501A601B7018B2F8F7026
:102AF00090E0A0E00E94823E71F48B2F9E2F04E3B1
:102B00000E943F3E490187E0982281E09FEF8916AD
:102B100097E0990609F080E00F91FF90EF90DF9029
:102B2000CF90BF90AF909F908F9008952F923F923B
:102B30004F925F926F927F928F929F92AF92BF92CD
:102B4000CF92DF92EF92FF920F931F93CF93DF9379
:102B5000CDB7DEB7A6970FB6F894DEBF0FBECDBFD8
:102B60004C01788B6F87FC01F281F983FC01F381C2
:102B7000FA83FC01F481FB83FC01F581FC83FC01F9
:102B8000F681FD83FC01F781FE83FC01F085FF8364
:102B9000FC01F185F88729813A814B815C816D8147
:102BA0007E818F819F2FA0E00E94823E1CF56FEFF7
:102BB0007FEFCB010E94083059016A017B018C0133
:102BC00029813A814B815C816D817E818F819885DD
:102BD0000E943F2B29833A834B835C836D837E83E2
:102BE0008F8398878DE28093890421E030E03C8BCD
:102BF0002B8B02C01C8A1B8AC4010E942C158823BF
:102C000029F06CE971E089E894E00BC0C4010E94EE
:102C10006115882349F060EA71E08B899C898757A8
:102C20009B4F0E94A83EF8C2F40122813381448167
:102C30005581668177818085918504E30E943F3EBE
:102C40004901F7E09F222FEF821627E09206C9F490
:102C500064EA71E089E894E00E94A83E209199041A
:102C60001AE0C12EE12C0DE814E030E040E050E025
:102C700060E070E080E090E00E94BA131092990446
:102C8000CBC270900101398139878A818A879B8103
:102C90009B87EC81EC872D803E80FF81FEA32885F9
:102CA0002DA3232F382F492F5E2FB1018F2F988509
:102CB00004E30E943F3EC90197709E878D87672D70
:102CC000772767FD7095872F972F0E9408302D8FEB
:102CD0003E8F4F8F58A369A37AA38BA39CA3B8E020
:102CE0004B2E512C21E030E040E050E060E070E0FD
:102CF00080E090E0972C990C9908A72CB92CC92C4E
:102D0000D92CE92CF92C092D192D0E94C93CE1E0A0
:102D10004E1A510891F70E94A43059016A017B01B3
:102D20008C010E943F2B298B3A8B2A013B014C01DD
:102D30002D853E85232B19F4212C312CCBC08D857C
:102D40009E858F3FE7E09E07B9F3109299041E8697
:102D50001D868F3F93400CF052C029853A854B85E4
:102D60005C85B1018EA19DA104E30E943F3E590103
:102D700037E0B3228FEFA81683E0B8060CF04FC0FF
:102D8000809199048230C0F6A988BA8862017301E3
:102D9000840129853A854B855C85B1018EA19DA171
:102DA0000E943F2B29873A874B875C871B018EA3A4
:102DB0009DA32D853E852F5F3F4F3E872D87CDCF2D
:102DC00080919904823008F0B7CFA988BA8862014F
:102DD0007301840129853A854B855C85B1018EA1FB
:102DE0009DA10E94462729873A874B875C871B0154
:102DF0008EA39DA3ED85FE853197FE87ED87A9887B
:102E0000BA8862017301840129853A854B855C8506
:102E1000B1018EA19DA10E94BF2A882389F2612C55
:102E2000712C29853A854B855C85B1018EA19DA1C8
:102E300004E30E943F3E490127E092223FEF8316C0
:102E400033E093060CF180919904823008F074CF3E
:102E5000AD8CBE8CCF8CD8A0E9A0FAA00BA11CA190
:102E600029853A854B855C85B1018EA19DA10E9483
:102E7000462729873A874B875C871B018EA39DA332
:102E8000FFEF6F1A7F0ACDCFAD8CBE8CCF8CD8A050
:102E9000E9A0FAA00BA11CA129853A854B855C8588
:102EA000B1018EA19DA10E943F2B2D8B3E8B4F8B9C
:102EB000588F698F7A8F8B8F9C8F8D859E85A4E02C
:102EC000880F991FAA95E1F71301281A390A81E0A2
:102ED000281A3108209103013091040180910501E5
:102EE00090910601221533053CF022273327281B39
:102EF000390B221633069CF4ED89E983FE89FA83A7
:102F00002F892B83388D3C83E98DED83FA8DFE83E9
:102F10002B8D2F833C8D3887988B8F8702C0212C77
:102F2000312C80918804882309F44DC0C10137FCFD
:102F300009C063E070E00E949B3C2C018FEF481AAF
:102F4000580A09C0019663E070E00E949B3C2C0186
:102F500093E0490E511C60900101812C912C21E0DD
:102F600030E040E050E060E070E080E090E0762CFF
:102F7000770C77085301C72CD72CE72CF72C072D9B
:102F8000172D0E94C93CEFEF8E1A9E0A84149504F7
:102F90008CF30E94A43059016A017B018C012D89B8
:102FA0003E894F89588D698D7A8D8B8D9C8D0E94BD
:102FB0003F2B29833A834B835C836D837E838F838E
:102FC0009887241835088090010121E030E040E026
:102FD00050E060E070E080E090E0612C712C982C73
:102FE000990C9908EF85F889E615F7056CF05401FE
:102FF000C92CD92CE92CF92C092D192D0E94C93C7A
:10300000FFEF6F1A7F0AEECF0E94A43059016A01C8
:103010007B018C01809101019091020197FD019645
:10302000BC0175956795882777FD8095982F0E943C
:1030300008300E94462759016A017B018C012981D1
:103040003A814B815C816D817E818F8198850E9460
:10305000FD2629833A834B835C836D837E838F8334
:103060009887E12C01E00E94372F29013A014B019A
:103070008A8799870E94A43059016A017B018C01DB
:1030800029813A814B815C816D817E818F81988518
:103090000E94EE2E29833A834B835C836D837E836B
:1030A0008F83988721143104E9F09201A301B401C0
:1030B0008A859985A9E00E94823EA1F09CF0EAE011
:1030C000AE2EB12CC12CD12CE12CF12C00E010E063
:1030D0000E944F3D29013A014B018A879987FFEFF2
:1030E0002F1A3F0A0B891C8907571B4FC0900101FB
:1030F000EE24E3949201A301B4018A8599850E948C
:10310000BA132B893C89820F931FEF85F889EF2B27
:1031100009F45BC03C01FFEF6F1A7F0A2EE2FC014D
:10312000E757FB4F20832F853889260D371D2F3019
:10313000310534F02FE030E0281B390B388B2F8716
:103140004090010121E030E040E050E060E070E0BC
:1031500080E090E0812C912C542C550C5508EF8583
:10316000F8898E169F066CF45201C52CD52CE52CDF
:10317000F52C052D152D0E94C93CEFEF8E1A9E0AE5
:10318000EECF0E94A43059016A017B018C01298194
:103190003A814B815C816D817E818F8198850E940F
:1031A0003F2B29833A834B835C836D837E83C0905E
:1031B0000101E12C02E00E94372F830107571B4FCA
:1031C000EF840E94BA13860D971D2114310421F15A
:1031D0008C010F5F1F4F27E0FC01E757FB4F208357
:1031E00037FE0AC0F801E757FB4F2DE220833194E8
:1031F000219431080F5F1F4F07571B4F932D990FD5
:10320000990BC0900101E12C9101492F592F692F91
:10321000792F892F0E94BA1389E894E0A6960FB6F9
:10322000F894DEBF0FBECDBFDF91CF911F910F91FC
:10323000FF90EF90DF90CF90BF90AF909F908F90D6
:103240007F906F905F904F903F902F900895609186
:103250000501709106010C949615CF93DF93EB0155
:1032600060910501709106010E949615009799F0F2
:10327000FC0101900020E9F7AF0141505109481BC2
:10328000590BE881F9810280F381E02DBC01CE0168
:10329000DF91CF910994DF91CF9108952F923F92C2
:1032A0004F925F926F927F928F929F92AF92BF9256
:1032B000CF92DF92EF92FF920F931F93CF93DF9302
:1032C000CDB7DEB7A3970FB6F894DEBF0FBECDBF64
:1032D0009D8B8C8B7BA36AA35F8B4E8B0E943011DE
:1032E00019861A861B861C861D861E861F86188ACE
:1032F000EAA1FBA1F081F98B19A2812C18A21F8EE3
:103300002AE02A8B188E198E1A8E1B8E1C8E1D8E0B
:103310001E8E912C1B8A212C312CF989F11111C0A0
:10332000609000010FE0802E912C21E030E040E021
:1033300050E060E070E080E090E0762C770C770859
:10334000E4C02F8D2111ECCFEAA1FBA14B89E40F42
:10335000F11D47FDFA955081598B51341CF4852F8E
:10336000805302C08989875399899A3394F49033A2
:10337000D4F49B3209F4C5C024F4973009F4BCC0DE
:10338000B8C0E989ED3209F4AFC0EE3209F4A7C044
:10339000B0C0F989F1340CF4ACC0F73424F0FF3537
:1033A00009F4AFC0A6C0882071F020910001A101EE
:1033B00024031001259F300C1124280E311C87FD99
:1033C0003A9483949EC0482E552447FC5094652C13
:1033D000752C97FC3BC060910001772767FD7095C5
:1033E000872F972F0E94083059016A017B01298598
:1033F0003A854B855C856D857E858C018F859889A6
:103400000E943F2B29873A874B875C876D877E8791
:103410008F87988BC301B2010E94083059016A015D
:103420007B0129853A854B855C856D857E858C0180
:103430008F8598890E94FD2629873A874B875C876C
:103440006D877E878F87988B93945BC02A89388D90
:10345000498D5A8D6B8D7C8D8D8D9E8D0E94A430F3
:1034600059016A017B018C01C301B2010E9408303D
:103470000E94462759016A017B0129853A854B85BF
:103480005C856D857E858C018F8598890E94FD26DF
:1034900029873A874B875C876D877E878F87988BD4
:1034A0009A94A09000011A2D110F110BB12EC12E6C
:1034B000D12EE12EF12E012F2A89388D498D5A8D7A
:1034C0006B8D7C8D8D8D9E8D0E94C93C2A8B388F93
:1034D000498F5A8F6B8F7C8F8D8F9E8F12C097FC78
:1034E00010C099249A940DC0882049F051E059A346
:1034F00008C081E08F8F05C08824839402C091E0CA
:1035000098A3EB89EF5FEB8B08CF5301C72CD72C27
:10351000E72CF72C072D172D0E94C93CE1E08E1AED
:10352000910899F70E94A430922E832E742E652E56
:10353000562E472E898B9A8B60910001772767FD65
:103540007095872F972F0E94083059016A017B01DF
:103550008C01292D382D472D562D652D742D8989E7
:103560009A890E943F2B922E832E742E652E562E02
:10357000472E898B9A8BF9A1FF2309F45CC040E1A7
:1035800024163104F4F029853A854B855C856D85D8
:103590007E85A92CB82CC72CD62CE52CF42C0989B7
:1035A0001A898F8598890E94462729873A874B87F1
:1035B0005C876D877E878F87988B20E1221A310880
:1035C000DECF41018114910419F160910001772748
:1035D00067FD7095872F972F0E94083059016A0167
:1035E0007B0129853A854B855C856D857E858C01BF
:1035F0008F8598890E94462729873A874B875C8761
:103600006D877E878F87988B51E0851A9108DACF76
:103610008E899F89892B09F457C0EE89FF898081A3
:103620009181FB898F0F911DF7FD9A95EE89FF8996
:103630009183808349C0E0E12E163104F4F029859E
:103640003A854B855C856D857E85A92CB82CC72C69
:10365000D62CE52CF42C09891A898F8598890E942B
:103660003F2B29873A874B875C876D877E878F87BB
:10367000988B90E1291A3108DECF41018114910421
:1036800039F260910001772767FD7095872F972F9A
:103690000E94083059016A017B0129853A854B85D2
:1036A0005C856D857E858C018F8598890E943F2B76
:1036B00029873A874B875C876D877E878F87988BB2
:1036C000F1E08F1A9108DACFF8A1F11104C0BE0120
:1036D000675F7F4F1EC06FEF7FEFCB010E94083006
:1036E00059016A017B0129853A854B855C856D8589
:1036F0007E858C018F8598890E943F2B29833A8390
:103700004B835C836D837E838F839887BE016F5F5D
:103710007F4F8C899D890E94E8118C899D89A39691
:103720000FB6F894DEBF0FBECDBFDF91CF911F91D2
:103730000F91FF90EF90DF90CF90BF90AF909F9050
:103740008F907F906F905F904F903F902F90089553
:103750004F925F926F927F928F929F92AF92BF92A1
:10376000CF92DF92EF92FF920F931F93CF93DF934D
:10377000CDB7DEB728970FB6F894DEBF0FBECDBF2A
:103780006B017C01DC01CB011BE1B695A7959795F8
:1037900087951A95D1F78F709927880F991FFC018B
:1037A000E153FE4FDC01A155BE4F0D90BC91A02D01
:1037B000A70196018BE056954795379527958A95F1
:1037C000D1F7442755270E94BE3C24E19695879562
:1037D000779567952A95D1F740805180461A570A08
:1037E000612C712CC701B601A30192010E94223DF8
:1037F00007E00E943F3E49015A0175016401C094EF
:10380000D094E094F094C701B601A30192010E9404
:10381000223D08E10E943F3E29833A834B835C832B
:1038200032015524442429813A814B815C81420E26
:10383000531E641E751EB301A20180E090E0DC01FE
:1038400049825A836B837C838D839E83AF83B88741
:10385000C701B601A70196010E94223D00E20E9425
:103860003F3E59016A017B018C0129813A814B81DC
:103870005C8160E070E080E090E00E94C93C00E381
:103880000E943F3EC901DA01BC01CD01640D751DE6
:10389000861D971D28960FB6F894DEBF0FBECDBFCC
:1038A000DF91CF911F910F91FF90EF90DF90CF901C
:1038B000BF90AF909F908F907F906F905F904F9050
:1038C00008956115710521E08207910528F4CB0167
:1038D0007727662720E101C020E061157105810589
:1038E00031E0930728F4285F982F872F762F6627DB
:1038F000892F9927AA27BB27FC01E151FE4F808120
:10390000820F08950F931F93B22FA32FF42FE52F4B
:1039100000E20E943F3E022F132F242F352F011566
:1039200011052105310541F4AD01CF01052F142FFB
:10393000292F382F80E201C080E00115110591E0A8
:103940002907310520F4805F980111270027011510
:103950001105210591E0390728F4885F322F212FC6
:10396000102F0027032F112722273327F801E151B9
:10397000FE4F9081890F1F910F9108952F923F92D2
:103980004F925F926F927F928F929F92AF92BF926F
:10399000CF92DF92EF92FF920F931F93CF93DF931B
:1039A000CDB7DEB7A2970FB6F894DEBF0FBECDBF7E
:1039B000390149835A83E02F00E20E943F3E2B8366
:1039C0003C834D835E836F83788789879A879501CF
:1039D000A601B7018E2F912F0E943F3E2B873C8777
:1039E0004D875A8B6B8B7C8B8D8B9E8BE12CF12CB6
:1039F00000E010E0930149815A8160E070E080E0CE
:103A000090E00E94C93C2B8F3C8F4D8F5E8F6F8F53
:103A100078A389A39AA32B813C814D815E816F811C
:103A2000788589859A850E94C93C522E432E342E72
:103A3000252E6F8B788F898F9A8FAB84BC84CD8431
:103A4000DA88EB88FC880D891E89930149815A81A7
:103A500060E070E080E090E00E94C93CA52CB42CAE
:103A6000C32CD22CEF88F88C098D1A8D0E945B3EF6
:103A700029833A834E875F87688B798B782E692EEE
:103A8000AB84BC84CD84DA88EB88FC880D891E89E0
:103A90002B813C814D815E816F81788589859A85F6
:103AA0000E94C93C2E833F83488759876A877B875A
:103AB0008C879D8729813A814E855F8568897989C0
:103AC000872D962DA52CB42CC32CD22CEF88F88CE6
:103AD000098D1A8D0E94793E18F4E1E0EB8301C054
:103AE0001B8229813A814E855F8568897989872D76
:103AF000962D00E20E94243E19012A016C837D83E9
:103B0000B82FA92FAB8CBC8CCD8CDE8CEF8CF8A0A1
:103B100009A11AA10E945B3E7901142F5A8B5B0107
:103B20006C0100E20E943F3EF4012087318742870A
:103B300053878A89E486F58616878787F1E097019F
:103B4000412F582FB501C60151016201EC80FD8063
:103B50000B2F1A2F0E94793E08F0F0E02F2F30E053
:103B600040E050E060E070E080E090E0AE80BF8038
:103B7000C884D984EA84FB840C851D850E945B3E41
:103B800029011A01B62FA72FF82FE92F29813A8191
:103B90004E855F8568897989872D962D00E20E9480
:103BA0003F3E59016A017B018C018B81E82A920119
:103BB000A1016B2F7A2F8F2F9E2F0E945B3EB22F79
:103BC000A32F142FF52E00E20E943F3EF401208324
:103BD0003183428353839D01348325831683F78287
:103BE000A2960FB6F894DEBF0FBECDBFDF91CF9186
:103BF0001F910F91FF90EF90DF90CF90BF90AF900B
:103C00009F908F907F906F905F904F903F902F90FC
:103C10000895AF92BF92CF92DF92EF92FF920F93EF
:103C20001F93CF93DF93EC0159016A017B01980147
:103C3000A501B601C7010E94821CA5EFA80FE1E013
:103C4000F0E0EA1BF109A7FDF395F983E8839801F9
:103C5000A501B601C7010A2F0E94243E2A833B8397
:103C60004C835D836E837F8388879987CE01DF9144
:103C7000CF911F910F91FF90EF90DF90CF90BF9069
:103C8000AF9008959F92AF92BF92CF92DF92EF9242
:103C9000FF920F931F93CF93DF93922EA32EB42EF8
:103CA000D52FC62FB72FF82FE92F670178018FE3A3
:103CB000C816D104E104F104E0F4002711270C191F
:103CC0001D090F7311278F2F0E94243E11E0A0E0E1
:103CD0000E94823E09F410E0292D3A2D4B2D5D2FD4
:103CE0006C2F7B2F8F2F9E2F0C2D0E943F3E212B60
:103CF0000FC011E08F2FA0E00E94823E09F410E077
:103D0000212F30E040E050E060E070E080E090E0A3
:103D1000DF91CF911F910F91FF90EF90DF90CF90A7
:103D2000BF90AF909F9008952F923F925F926F92B5
:103D30007F928F929F92AF92BF92CF92DF92EF923B
:103D4000FF920F931F93CF93DF9300D000D0CDB796
:103D5000DEB73C832B83542E519490E0FC013197C5
:103D6000EE0FFF1FEE0FFF1FE60FF71FC080D18081
:103D7000E280F380642E97018601042E04C03695FC
:103D80002795179507950A94D2F74801590104C061
:103D9000880C991CAA1CBB1C4A95D2F78C149D0454
:103DA000AE04BF0409F00160DC01AA0FBB1FAA0F1B
:103DB000BB1F1B012A0E3B1E4B815C814A0F5B1F00
:103DC0005A83498340E050E0E0E0F0E0652D6F71F8
:103DD000562E3197445051097C01EE0EFF1EEF28FC
:103DE00071F17101E40EF51EA4E0EA1AF108D701A1
:103DF0008D909D90AD90BC9075016401052C04C020
:103E0000CC0CDD1CEE1CFF1C0A94D2F7C02AD12A70
:103E1000E22AF32A29813A81240F351FD901CD9254
:103E2000DD92ED92FC92139795018401062C04C05B
:103E300036952795179507950A94D2F7CACFEB8147
:103E4000FC8100831183228333830F900F900F90A6
:103E50000F90DF91CF911F910F91FF90EF90DF9026
:103E6000CF90BF90AF909F908F907F906F905F901A
:103E70003F902F9008954F925F926F927F928F9212
:103E80009F92AF92BF92CF92DF92EF92FF920F93E9
:103E90001F93CF93C82F69017A01B5E0F694E79498
:103EA000D794C794BA95D1F7482E512C612C712C18
:103EB000C114D104E104F10409F14C145D046E0451
:103EC0007F0410F4730162018C2DEC2FF0E0EC19EB
:103ED000FD09EE0FFF1FEE0FFF1FE60FF71FA0E01B
:103EE000B0E081909190A190B19081149104A104CF
:103EF000B10441F411968A13F4CF04C0812C912CA3
:103F0000540102C0902FE12FC414D504E604F70435
:103F1000B0F4422F4F718C2F8C19442389F19601F4
:103F2000220F331F220F331F200F311F0E94941EB8
:103F3000C114D104E104F10471F0902FE12FA92FF5
:103F4000BE2F1D921D921D921D9281E0C81AD108AC
:103F5000E108F108B1F789288A288B2891F1F80146
:103F600084E0C89FE00DF11D112434978081918178
:103F7000A281B381816080839183A283B38321C0B6
:103F8000AC2FB0E0A150B04CFD01EC19FD09EE0FD3
:103F9000FF1FEE0FFF1FE60FF71F3496AA0FBB1F80
:103FA000AA0FBB1FA00FB11F1496882331F2729184
:103FB0006291529142917E936E935E934E938150A3
:103FC000F4CFCF911F910F91FF90EF90DF90CF90A2
:103FD000BF90AF909F908F907F906F905F904F9029
:103FE000089590919904982B9093990408952F9295
:103FF0003F924F925F926F927F928F929F92AF9279
:10400000BF92CF92DF92EF92FF920F931F93CF93C5
:10401000DF93CDB7DEB72A970FB6F894DEBF0FBE99
:10402000CDBF29013A014B018A879E83A982BA82BA
:10403000CB82DC82170109871D83892F8F778F83BD
:1040400000E0A12FAF77A88710E0BA85B860BA87E3
:10405000E985E860E987111102C0002339F080E1A9
:104060000E94F11F0023A9F11123D9F19201A301AC
:10407000B4018A859F81A980BA80CB80DC807101E0
:10408000098518850E94793E20F19501A601B101AC
:10409000C8015201630174010A851F810E94793EA3
:1040A00000F1F02FEE819201A301B401802F9E2F29
:1040B000A980BA80CB80DC80710109851D810E94B6
:1040C000793E89F080F0250136014101F02FE12F82
:1040D0000AC049805A806B807C804101F985ED815E
:1040E00002C0FA85EE819201A301B4018F2F9E2FA9
:1040F0002A960FB6F894DEBF0FBECDBFDF91CF91E9
:104100001F910F91FF90EF90DF90CF90BF90AF90F5
:104110009F908F907F906F905F904F903F902F90E7
:1041200008953F924F925F926F927F928F929F92EB
:10413000AF92BF92CF92DF92EF92FF920F931F93B5
:10414000CF93DF93C82FFB01D42F322E40845184AC
:1041500062847384842F8B7F51F4D301C20188273A
:10416000B7FD83959927AA27BB27A82F13C0242F13
:1041700030E0CC2319F082E090E002C083E090E0D0
:104180002817390731F4A1E0411451046104710486
:1041900009F4A0E080809180A280B3809401A50101
:1041A00060E070E080E090E000E20E94243EB22FE8
:1041B000D32E7A01C62EB72E448155816681778130
:1041C0008A019B01B42BD12AE22AF32AF82FE92F86
:1041D000AA23E9F02B2F3D2DA7016C2D7B2DA1E00B
:1041E0000E94643EB22FD32E7A01C62EB72EF82F2E
:1041F000E92FA0E00E94823ED1F1B301A2017F77B6
:10420000452B462B472B19F4D11101C0BE7FCC237F
:1042100089F02B2F3D2DA7016C2D7B2D8F2F9E2FED
:104220000E94DD3DB22FD32E7A01C62ED72FF82F54
:10423000E92F01C0DB2D2B2F3D2DA7016C2D7D2FEC
:104240008F2F9E2FA0E00E94823E29F00FE30E9454
:104250003F3EC2130CC03320C1F0452846284728F2
:10426000A1F0809199048160809399040EC080E14F
:104270000E94F11FCC2389F020E030E040E050E0C4
:1042800060E070E080E090E810C02B2F3D2DA7018A
:104290006C2D7D2F8F2F9E2F08C02FEF3FEF4FEFFC
:1042A0005FEF6FEF7FEF8FEF9FE7DF91CF911F9170
:1042B0000F91FF90EF90DF90CF90BF90AF909F90C5
:1042C0008F907F906F905F904F903F9008952F92C6
:1042D0003F924F925F926F927F928F929F92AF9296
:1042E000BF92CF92DF92EF92FF920F931F93CF93E3
:1042F000DF93CDB7DEB72E970FB6F894DEBF0FBEB3
:10430000CDBF8B877E876D871701280139014A0150
:1043100020919A0431E03C8721111C86822F8B7FEB
:1043200089F030E04B85442319F082E090E002C030
:1043300083E090E02817390751F46FEF73E07A8338
:10434000698307C080E092E09A83898302C01A8261
:104350001982D101B370BA87A987ED85FE85ED3F3B
:1043600027E0F20708F483C0F7FF46C080910701F9
:104370008823F1F03196E1F4E981FA819F0140E070
:1043800050E060E070E080E090E051016201730174
:1043900084010E945B3E2095309540955095609534
:1043A0007095809590950FE30E943F3ED22E02C0FB
:1043B000DD24D394ED84FE84F194E194F108002788
:1043C000F7FC0095102F9101A201B301C4010E94D6
:1043D000421E19012A013B014C0133703A8729879B
:1043E000DD2009F442C0232B09F44BC082E00E9477
:1043F000F11F1E861D863FC0ED85FE85ED3FF7400F
:1044000099F4E981FA819F0140E050E060E070E0BA
:1044100080E090E051016201730184010E945B3EE3
:10442000A0E00E94823E1CF585E00E94F11F2B85D2
:1044300030E040E050E060E070E080E090E00FE3CA
:104440000E94243E80519048AA24A394A981BA8155
:10445000AB2B09F0A12CB12CC12CD12CE12CF12CCF
:1044600000E010E00E94703E8FC01E861D86E98528
:10447000FA85EF2B41F08091990481608093990433
:1044800002C01E861D8649815A819A0140E050E093
:1044900060E070E0CB0129833A834B835C836D83BA
:1044A0007E838F8398879101A201B301C401A98003
:1044B000BA80C12CD12CE12CF12C00E010E00E943C
:1044C0005B3E0AE00E943F3E332E2A01662EE72E15
:1044D0008983292EE1E069857A856115724009F0AA
:1044E000E0E09C85E923E095E2232B8530E040E085
:1044F00050E060E070E080E090E00FE30E94243E36
:1045000059016A016987F72E8B87192F2E2F332DBA
:10451000A201662D7E2D8981922DA0E00E94823E0F
:10452000B1F09E85990F990B2D853E85492F592F06
:10453000692F792F892F04E30E94243E722E832E47
:10454000942EF52F6C87B72FA82F9D8708C0712C4C
:10455000812C912CF0E01C86B0E0A0E01D862E2F6F
:10456000332DA201662D7E2D8981922DE9840B8544
:104570000E945B3EA72CB82CC92CDF2EEC84FB2EAE
:104580000A2F1D850E945B3E2E960FB6F894DEBF63
:104590000FBECDBFDF91CF911F910F91FF90EF9094
:1045A000DF90CF90BF90AF909F908F907F906F9053
:1045B0005F904F903F902F9008952F923F924F928F
:1045C0005F926F927F928F929F92AF92BF92CF92A3
:1045D000DF92EF92FF920F931F93CF93DF93CDB7AC
:1045E000DEB764970FB6F894DEBF0FBECDBF2B8346
:1045F000F32FE42F5C836D837E838F83988B0B8BEB
:104600008C8A04E30E943F3EC90197709A83898394
:104610009501A601B7018B89912F0E943F3EC901E8
:1046200097709A8B898BA981BA81A81BB90B2B81B2
:104630003F2F4E2F5C816D817E818F818F7090E046
:1046400009E00E94243E288739874A875B876C8768
:104650007D878E879F879501A601B7018B898F7013
:1046600090E00E94243E19012A013B014C01109761
:1046700009F054C089819A818F3F974089F4288539
:104680002229398533294A8544295B8555296C853A
:1046900066297D8577298E8588299F8599299FC0E0
:1046A00089819A81892B51F52B813F2F4E2F5C8177
:1046B0006D817E818F8198890B890E945B3E3901D3
:1046C0004A01B62FA72FF82FE92FEF772C8930E07A
:1046D00040E050E060E070E080E090E00FE30E9496
:1046E000243E59016A017B018C019301A4016B2FC7
:1046F0007A2F8F2F9E2F0E945B3EDFC09101A20177
:10470000B301C401905CA884B984CA84DB84EC84BE
:10471000FD840E851F850E945B3EB4C0B7FF52C06A
:1047200089899A898F3F9740B9F49101A201B30119
:10473000C401A0E00E94823E09F0B4C02C8930E0A0
:1047400040E050E060E070E080E090E00FE30E9425
:10475000243E80519048B1C089819A81892B49F0CB
:1047600020E030E040E050E060E070E080E090E287
:1047700008C0288539854A855B856C857D858E8551
:104780009F85A884B984CA84DB84EC84FD840E856B
:104790001F850E945B3EEE24FF24EA1AFB0A0027D5
:1047A000F7FC0095102F0E94421E288739874A8700
:1047B0005B876C877D878E879F8789899A899A8393
:1047C000898335C089819A818F3F974071F428850C
:1047D00039854A855B856C857D858E859F85A0E0C2
:1047E0000E94823E09F05EC070C089899A89892B37
:1047F00049F020E030E040E050E060E070E080E030
:1048000090E204C09101A201B301C401510162010F
:10481000730184010E945B3E7D010027F7FC009537
:10482000102F0E94421E19012A013B014C012885CC
:1048300039854A855B856C857D858E859F8551018F
:104840006201730184010E945B3E905E79018A01DE
:10485000B62FD72EF82FE92F2F3FAFEF3A074A0791
:104860005A076A077A078A07AFE39A0709F080F4C4
:1048700089819A8101979A8389838F2F9E2F01E0E6
:104880000E94243E79018A01B62FD72EF82FE92FF6
:104890002B2F3D2D4F2F5E2F69817A818C890E94AD
:1048A00067211BC00B892B813F2F4E2F5C816D81AF
:1048B0007E818F8198890E94F71F2B83F32FE42F2D
:1048C0005C836D837E838F83988B2B813F2F4E2F4C
:1048D0005C816D817E818F81988964960FB6F89492
:1048E000DEBF0FBECDBFDF91CF911F910F91FF9023
:1048F000EF90DF90CF90BF90AF909F908F907F9080
:104900006F905F904F903F902F9008952F923F921D
:104910004F925F926F927F928F929F92AF92BF92CF
:10492000CF92DF92EF92FF920F931F93CF93DF937B
:10493000CDB7DEB729970FB6F894DEBF0FBECDBF57
:10494000B82E6B01902E522E632E742E852E970159
:10495000402F512F652D762D872D982D0E94821C7A
:104960000FEF080FE02FFF27E7FDF095FF83EE83A1
:10497000F6018E819F81E81BF90B0A300CF45AC0B6
:10498000ED3F97E0F90708F055C02B2D30E040E0EF
:1049900050E060E070E080E090E00FE30E94243E91
:1049A00059016A016A837B838C839D839701492D1A
:1049B000512F652D762D872D982DA0E00E94823EE7
:1049C000A1F09F2F990F990B9F01492F592F692F04
:1049D000792F892F04E30E94243E29873887DA0142
:1049E000462E372E282E998308C019861886A0E0F7
:1049F000B0E0412C312C212C1982EE81FF813A97B5
:104A00009701492D512F652D762D872D982D0E2F2D
:104A10000E94243EEA80FB800C811D810E945B3E47
:104A2000A984B8846D01E42CF32C022D19810E9415
:104A30005B3E11C09701492D512F652D762D872D95
:104A4000982D0E94243E79018A019B01AC01BF018F
:104A50008B2D0E94672129960FB6F894DEBF0FBEFA
:104A6000CDBFDF91CF911F910F91FF90EF90DF901D
:104A7000CF90BF90AF909F908F907F906F905F90FE
:104A80004F903F902F9008952F923F924F925F92B8
:104A90006F927F928F929F92AF92BF92CF92DF924E
:104AA000EF92FF920F931F93CF93DF93CDB7DEB7B3
:104AB00065970FB6F894DEBF0FBECDBFB22FF32FB0
:104AC000E42F59876A877B878C879F870D8B8C8A19
:104AD00004E30E943F3E37703E872D879501A60173
:104AE000B7018D89912F0E943F3EC9019770998B24
:104AF000888B2D853E85281B390B3B8B2A8B2B2FD2
:104B00003F2F4E2F59856A857B858C858F7090E06D
:104B10000AE00E94243E2A833B834C835D836E839C
:104B20007F83888799839501A601B7018D898F704E
:104B300090E00E94243E19012A013B014C018A8920
:104B40009B89181619060CF4CCC0892B09F05FC09C
:104B50002D853E852F3F374019F52A8122293B813B
:104B600033294C8144295D8155296E8166297F81D5
:104B700077298885882999819929A0E00E94823E19
:104B800009F005C180E10E94F11FB0E0F0E0E0E033
:104B900019861A861B8698EF9C872FEF2F870CC1EA
:104BA0008D859E85892B41F4E1E0F0E0F98BE88B5F
:104BB00021E030E03E872D879101A201B301C401BD
:104BC000AA80BB80CC80DD80EE80FF8008851981C3
:104BD0000E94793E08F4BFC09501A601B701C80143
:104BE00051016201730184010E94793E08F462C0A0
:104BF00080919A04B0E0F0E0E0E019861A861B8606
:104C00001C86823009F0D7C030E83F87D5C088893C
:104C100099898F3F9740C9F49101A201B301C40162
:104C2000A0E00E94823E09F0B2C021E03C89232727
:104C300030E040E050E060E070E080E090E00FE3C2
:104C40000E94243E80519048ADC08D859E85892B61
:104C500049F020E030E040E050E060E070E080E0CB
:104C600090E408C02A813B814C815D816E817F8107
:104C700088859981AA80BB80CC80DD80EE80FF8012
:104C8000088519810E945B3EEA88FB88F194E194D3
:104C9000F1080027F7FC0095102F0E94421E2A837E
:104CA0003B834C835D836E837F8388879983992DB3
:104CB0009064992E81E0EC89E827EC8B9101A201A8
:104CC000B301C401AA80BB80CC80DD80EE80FF8070
:104CD000088519810E94703EE889F989FE87ED8771
:104CE00048C02D853E852F3F374071F42A813B8196
:104CF0004C815D816E817F8188859981A0E00E94D1
:104D0000823E09F044C058C0E889F989EF2B49F088
:104D100020E030E040E050E060E070E080E090E4CF
:104D200004C09101A201B301C401510162017301E8
:104D300084010E945B3EEA89FB897F010027F7FC22
:104D40000095102F0E94421E19012A013B014C01BF
:104D5000F981F064F9832A813B814C815D816E8108
:104D60007F818885998151016201730184010E94CC
:104D7000703E2D843E84E1E02E1A310879018A01CB
:104D80009B01AC01B1018C890E9486241DC00D8954
:104D90002B2F3F2F4E2F59856A857B858C859F85CC
:104DA0000E94F71FB22FF32FE42F59876A877B8762
:104DB0008C879F8701C01F862B2F3F2F4E2F598531
:104DC0006A857B858C859F8565960FB6F894DEBFD6
:104DD0000FBECDBFDF91CF911F910F91FF90EF904C
:104DE000DF90CF90BF90AF909F908F907F906F900B
:104DF0005F904F903F902F9008956F927F928F9287
:104E00009F92AF92BF92CF92DF92EF92FF920F9359
:104E10001F93CF93DF93722E932ED42FC52FB62FCF
:104E2000A72FF82FE92F602E0FE30E943F3E822E1E
:104E30009501A601B701862D912F0E943F3E062DB8
:104E400082120BC0272D392D4D2F5C2F6B2F7A2FFF
:104E50008F2F9E2F0E94DD220AC0272D392D4D2F26
:104E60005C2F6B2F7A2F8F2F9E2F0E944425DF916E
:104E7000CF911F910F91FF90EF90DF90CF90BF9057
:104E8000AF909F908F907F906F9008952F923F9258
:104E90004F925F926F927F928F929F92AF92BF924A
:104EA000CF92DF92EF92FF920F931F93CF93DF93F6
:104EB000CDB7DEB7EE970FB6F894DEBF0FBECDBF0D
:104EC00019012A013B01F82F9DA7EF2DB02F04E314
:104ED0000E943F3E2B873C878B849C8407E0902276
:104EE0002B8E3BA24CA25DA26EA27FA22F2F2F7011
:104EF0002B8B18A69501A6016E2D7F2D8B2F912F40
:104F000004E30E943F3E2B873C874D875E876F8777
:104F1000788B898B9A8B4B855C8557705C874B8728
:104F2000AEA6BFA6C8AAD9AAE9A6FAAA5B2F5F7047
:104F3000F52E1CAA9501A6016E2D7E2F8B2F912F89
:104F40000FE30E943F3E2DAB9101A201B3018F2FD1
:104F50009DA50E943F3E6DA962276DAB7FEF87162E
:104F600077E09706E1F49101A201B3018B8990E00B
:104F7000A0E00E94823E09F06CC28B859C858F3F29
:104F8000974009F07CC29501A6016E2D7E2F8F2DD2
:104F900090E0A0E00E94823E09F05BC264C22B85D3
:104FA0003C852F3F374061F49501A6016E2D7E2F81
:104FB0008F2D90E0A0E00E94823E09F04AC26DC2AF
:104FC0006B857C85672B09F042C09501A6016E2D8B
:104FD0007E2F8F2D90E0A0E00E94823EC9F4992D93
:104FE000990F990B222D2829332D3929492F44292E
:104FF000592F5529692F6629792F77298B89892B74
:105000000E94823E09F42FC288E00E94F11F37C23D
:105010000EA51FA528A939A949A55AA96F2D70E089
:10502000CE0101960E94091EE980FA80FC86EB867B
:10503000FB80FEA60C810FA71D8118AB2E8129AB2A
:105040003F8139A748854AABF9845A855CAB811406
:10505000910429F59101A201B3018B8990E0A0E0B0
:105060000E94823E09F419C281019201A301682FB6
:1050700070E0CE0101960E94091E89809A806B81A2
:105080006B8F7C817BA38D818CA39E819DA3AF813F
:10509000AEA3B885BFA3E984EB8A0A8508A7F4010B
:1050A0002B853C85E21BF30BAB89A061BF2DB06162
:1050B0002B8D3BA14CA15DA16EA17FA18A2F98A54C
:1050C000AEA4BFA4C8A8D9A8E9A4FAA80B2F1CA90C
:1050D0000E94793E48F4AF0143505C4F5FAB4EAB4A
:1050E0004CA15DA10BE00EC0BF0162507C4F7FABB5
:1050F0006EAB2B8D3BA14CA15DA16EA17FA18A2F30
:1051000098A50AE00E94243E2BA33CA34DA35EA3D6
:105110006FA378A78DA79BAB2EA53FA548A959A93A
:1051200069A57AA98B2F9CA90BE00E94243E190146
:105130002A0100E20E943F3E2EA73FA748AB59AB91
:105140006AAB7CAB88AF99AFB901CA010E94A81BBA
:1051500062507109810991097B018C0120E030E0E6
:10516000A9016B8BFC8A0D8B1E8B2F8B388F498F7F
:105170005A8F2BA13CA14DA15EA16FA178A58DA551
:105180009BA900E20E943F3E59016A017B018C010C
:105190002B893C894D895E8960E070E080E090E079
:1051A0000E94C93C00E20E943F3E2B873C874D870E
:1051B0005E876F87788B898B9A8B0B851C852D85F5
:1051C0003E85000F111F221F331F09A71AA72BA707
:1051D0003CA794E056944794379427949A95D1F736
:1051E000A901980160E070E0CB012B8F3C8F4D8FBF
:1051F0005E8F6F8F78A389A39AA3AEA4BFA4C8A81B
:10520000D9A8EAA8FCA808AD19AD60E070E080E07C
:1052100090E00E94C93C59016A017B018C012BA1DD
:105220003CA14DA15EA16FA178A58DA59BA90E946F
:10523000703E0CE10E94243E89013A014B017C0141
:1052400069A57AA58BA59CA5A20191010E94223D8A
:1052500059016A01FB01DC019801A301B401C701F6
:105260007F018D010E94703E29A73DA74BAB5AAF2D
:105270006BAF7CAF8DAF9EAF00E20E943F3EAB882C
:10528000BC88CD88DE88E12CF12C00E010E00E9483
:10529000C93C00E20E943F3E49015A01C501B401E8
:1052A0006C5F7F4F8F4F9F4F6B8B7C8B8D8B9E8B5B
:1052B0004B015C019B01A50160E070E080E090E0A3
:1052C00004E00E94243E39014A01B62FA72FF82F8F
:1052D000E92F2B853C854D855E856F857889898989
:1052E0009A8900E20E94243E59016A017B018C01E7
:1052F0009301A4016B2F7A2F8F2F9E2F0E945B3E6C
:105300002B873B8F4BA35CA36DA37EA38FA398A792
:10531000317040E050E060E070E080E090E0AFE3AA
:105320000E94823E11F008F086C0722F70787B8751
:105330006B887C888D889E8888EF6822660C771C35
:10534000881C991C8401730120E030E0A9016B8A5C
:10535000FC8A0D8B1E8B2F8B388F498F5A8FAEA4F2
:10536000BFA4C8A8D9A8EAA8FCA808AD19AD2B8984
:105370003C894D895E8970E080E00E94C93C5901FA
:105380006A017B018C0129A53DA54BA95AAD6BADE6
:105390007CAD8DAD9EAD0E94703E0CE10E94243E1E
:1053A00059016A017B018C01C401B301A201910181
:1053B0000E94223D39014A01B62FA72FF82FE92F6D
:1053C0009501A601B701C80153016401EB2EFA2E25
:1053D0000F2F1E2F0E94703ED22EE32EF42E052F8B
:1053E000162FB72FF82FE92FA0E00E94823EA4F4D9
:1053F0002B853B8D4BA15CA16DA17EA18FA198A5B2
:10540000A0E80E94643E2B873B8F4BA35CA36DA357
:105410007EA38FA398A70FC02D2D3E2D4F2D502F6B
:10542000612F7B2F8F2F9E2FA0E00E94823E19F0CC
:105430000B8501600B87EB84FB8C0BA11CA12DA1BC
:105440003EA14FA158A56EA97FA98DA90E946721F1
:105450002FC0FE2E0B2F9101A201B3018F2F9DA50E
:105460000E94F71F25C080E10E94F11F20E030E07C
:1054700040E050E060E070E088EF9FEF19C02DA998
:1054800030E040E050E060E070E080E090E00FE36A
:105490000E94243E805190480BC02DA930E040E08E
:1054A00050E060E070E080E090E00FE30E94243E76
:1054B000EE960FB6F894DEBF0FBECDBFDF91CF9151
:1054C0001F910F91FF90EF90DF90CF90BF90AF9022
:1054D0009F908F907F906F905F904F903F902F9014
:1054E00008952F923F924F925F926F927F928F9288
:1054F0009F92AF92BF92CF92DF92EF92FF920F9363
:105500001F93CF93DF9300D000D01F92CDB7DEB7AB
:10551000A62FFC013A2C5B2C7C2C9D2CBE2D0E94CE
:10552000793E99F023293529472959296B2F6A2B70
:105530007F29912F9F2B11E0802F8E2B9F77A0E04A
:105540000E94823E19F010E001C011E0812F0F90FF
:105550000F900F900F900F90DF91CF911F910F91AF
:10556000FF90EF90DF90CF90BF90AF909F908F9083
:105570007F906F905F904F903F902F9008952F9263
:105580003F924F925F926F927F928F929F92AF92D3
:10559000BF92CF92DF92EF92FF920F931F93CF9320
:1055A000DF93CDB7DEB728970FB6F894DEBF0FBEF6
:1055B000CDBF322E432E542E652E762E872E982E5A
:1055C0009887AD82DE82EF82F9820A830FE30E9420
:1055D0003F3EE22F2A2D3B2D4C2D5D2DB7018A81B8
:1055E000912F0E943F3EE217C9F0EE2371F12A2D60
:1055F0002329342D3B29452D4C295D2D56296E2D0F
:1056000067297F2D78299885912B8A8189299F7711
:10561000A0E00E94823EC9F081E018C0232D342D05
:10562000452D562D672D782D892D9885AD80DE80EE
:10563000EF80F9800A810E94793E39F0F1E00E9402
:10564000793E08F0F0E0EF13E7CF80E028960FB640
:10565000F894DEBF0FBECDBFDF91CF911F910F91A8
:10566000FF90EF90DF90CF90BF90AF909F908F9082
:105670007F906F905F904F903F902F9008952F9262
:105680003F924F925F926F927F928F929F92AF92D2
:10569000BF92CF92DF92EF92FF920F931F93CF931F
:1056A000DF93CDB7DEB7E4970FB6F894DEBF0FBE39
:1056B000CDBF622E832E942EB52FF62FE72F8AA70B
:1056C0009CA70BA704E30E943F3E2B8F3C8F4B8C83
:1056D0005C8C87E058226CA28DA29EA2BFA3F8A783
:1056E000E9A7AAA5AF70ABA31DA69501A601B701B6
:1056F0008BA5912F0E943F3E2B8F3C8F4D8F5E8F4D
:105700006F8F78A389A39AA32B8C3C8C87E03822D7
:10571000AEA6BFA6C8AAD9AAEAAAFBAAABA5AF7033
:10572000AB8F1CAA9501A601B7018BA5912F0FE3A2
:105730000E943F3E722E262D382D492D5B2F6F2F54
:105740007E2F8AA59CA50E943F3E72268FEF4816A9
:1057500087E0580661F5262D382D492D5B2F6F2FD8
:105760007E2F8BA190E0A0E00E94823E09F02FC125
:10577000AFEF2A16A7E03A0649F49501A601B70152
:105780008B8DA0E00E94823E09F021C1932D990FDC
:10579000990B2A2D22293B2D3329492F4C29592F8A
:1057A0005D29692F6E29792F7F298B8D1FC08FEF7F
:1057B000281687E0380661F59501A601B7018B8DA3
:1057C00090E0A0E00E94823E09F001C1952D990F62
:1057D000990B262D2429382D3529492F4929592F50
:1057E0005B2B692F6F2B792F7E2B8BA1892BA0E050
:1057F0000E94823E09F0F7C080E10E94F11F20E084
:1058000030E040E050E060E070E088EF9FEF04C1DE
:105810004114510441F52CA13DA14EA15FA168A501
:1058200079A58BA190E0A0E00E94823E09F4E9C036
:1058300089019A01AB01682F70E0CE0141960E9468
:10584000091E49885A88AB89ACA3BC89BDA38D8940
:105850008EA3AE89AFA3BF89B8A7888D89A7A98D6C
:10586000ABA3BA8DBDA72114310429F59501A6017A
:10587000B7018B8D90E0A0E00E94823E09F4C1C088
:1058800085019601A701682F70E0CE0141960E9424
:10589000091E29883A888B898EA7AC89AFA7BD8954
:1058A000B8AB8E8989ABAF89AAABB88DBBAB898DFC
:1058B0008B8FAA8DACAB240C351C2EA53FA548A917
:1058C00059A96AA97BA98B8D80619CA90BE00E94D4
:1058D000243E59016A017B01E82F192F2CA13DA11B
:1058E0004EA15FA168A579A58BA180619DA50AE065
:1058F0000E94243EDE0111964D010E2F0E94BE1C17
:1059000089809A80AB80BC809401A50160E070E042
:1059100080E090E000E20E94243E79018A01A62EF8
:10592000A72FF82FE92F4D815E816F8178859A012D
:10593000AB01E22AF32A042B152BBA2CCA2EDF2E38
:105940009E2E49855A856B857C85452B462B472B9A
:1059500041F44D855E856F857889452B462B472B15
:1059600039F0BE2DB160EB2EBA2CCA2EDF2E9E2E42
:105970009701A8016A2D7A2F8F2F9E2F2F3F3F4F1F
:105980004F4F5F4F6F4F7F4F8F4F9F4331F028F046
:105990008FEF281A83E0380A11C0B4E03B1A970150
:1059A000A8016A2D7A2F8F2F9E2F01E00E94243E9E
:1059B00079018A01B62EC72ED82E992E2B2D3C2D7B
:1059C0004D2D592DB101872D0E94672125C00BA5B2
:1059D000262D382D492D5B2F6F2F7E2F8AA59CA554
:1059E0000E94F71F19C0272D30E040E050E060E032
:1059F00070E080E090E00FE30E94243E80519048E8
:105A00000BC0272D30E040E050E060E070E080E027
:105A100090E00FE30E94243EE4960FB6F894DEBFB8
:105A20000FBECDBFDF91CF911F910F91FF90EF90EF
:105A3000DF90CF90BF90AF909F908F907F906F90AE
:105A40005F904F903F902F9008952F923F924F92EA
:105A50005F926F927F928F929F92AF92BF92CF92FE
:105A6000DF92EF92FF920F931F93CF93DF93CDB707
:105A7000DEB72F970FB6F894DEBF0FBECDBF2F87CE
:105A80003D874E87F52FE62F79838A839B83102FDE
:105A9000BE2D04E30E943F3E790187E0F822AFEF7C
:105AA000EA16A3E0FA060CF076C02F853D854E85F8
:105AB0005F2F6E2F79818A819B819F77A0E00E9462
:105AC000823E49F42F853D854E855F2F6E2F79816B
:105AD0008A819B816AC1BB2329F0809199048160EE
