:100000000C9465000C9406040C948D000C948D00E7
:100010000C948D000C948D000C948D000C948D002C
:100020000C948D000C948D000C948D000C948D001C
:100030000C948D000C948D000C948D000C948D000C
:100040000C94293A0C948D000C948D000C948D0026
:100050000C948D000C948D000C948D000C948D00EC
:100060000C948D000C948D0000000008000201002B
:100070000003040700000000000000000102040863
:100080001020408001020408102001020408102002
:10009000040404040404040402020202020203032E
:1000A00003030303000000002300260029000000D2
:1000B0000000250028002B0000000000240027007D
:1000C0002A001104143A1904253A11241FBECFEF57
:1000D000D8E0DEBFCDBF12E0A0E0B1E0E6E7FDE78B
:1000E00002C005900D92A03FB107D9F724E0A0EF20
:1000F000B2E001C01D92AD3AB207E1F710E0C6ECE4
:10010000D0E004C02297FE010E94A33EC23CD1076A
:10011000C9F70E947E3C0C94AE3E0C940000FF9206
:100120000F931F93CF93DF938C01F62EFC018581F3
:100130000E949E3BC0E0D0E0F801EC0FFD1F6F2D48
:1001400080850E949E3B2196C430D105A9F7DF919E
:10015000CF911F910F91FF900895CF93DF93EC0102
:1001600060E08F810E94D73B81E090E00E94D03A0E
:1001700061E08F810E94D73B81E090E00E94D03AFD
:1001800060E08F810E94D73B84E690E0DF91CF91C1
:100190000C94D03AEF92FF920F931F93CF93DF937B
:1001A0008C01C0E0D0E0E62EF12CB7010C2E02C08D
:1001B000759567950A94E2F76170F801EC0FFD1FE1
:1001C00080850E94D73B2196C430D10571F7C801C4
:1001D000DF91CF911F910F91FF90EF900C94AD00A4
:1001E0001F93CF93DF93EC01162F642F8D810E9414
:1001F000D73B612F70E084E0759567958A95E1F7AC
:10020000CE010E94CA00612FCE01DF91CF911F91D4
:100210000C94CA0040E00C94F00061E00E940A01D6
:1002200080ED97E00C94D03A62E00E940A0180EDE4
:1002300097E00C94D03A443008F043E0FC01248964
:10024000421710F04FEF420FFC01E40FF11D25891A
:10025000260F2068622F0C940A01FC016189262F69
:100260002460218B6C600C940A01FC0161896D7F14
:10027000618B68600C940A01FC016189262F226061
:10028000218B6A600C940A01FC0161896E7F618B8D
:1002900068600C940A01FC016189262F2160218B82
:1002A00069600C940A01CF92DF92EF92FF920F9354
:1002B0001F93CF93DF9300D0CDB7DEB78C0167706B
:1002C00088E0689FB00111246064C80149835A83A3
:1002D0000E940A014981C42E5A81D52EE12CF12CAD
:1002E000D6016D916D01D801ED91FC910190F081E5
:1002F000E02DC8010995BFEFEB1AFB0AE8E0EE1606
:10030000F10471F70F900F90DF91CF911F910F9132
:10031000FF90EF90DF90CF90089541E00E94F000B1
:1003200081E090E00895CF93DF93EC01423018F024
:1003300088898860888B4C8B1D8A80E48E8B61E075
:10034000CE010E948F0061E08F810E949E3B80E57C
:1003500093EC0E94D03A60E08D810E94D73B60E030
:100360008F810E94D73B63E0CE010E94CA0084E9DE
:1003700091E10E94D03A63E0CE010E94CA0084E974
:1003800091E10E94D03A63E0CE010E94CA0086E962
:1003900090E00E94D03A62E0CE010E94CA006889D3
:1003A0006062CE010E940A0184E0898BCE010E9426
:1003B0002D01CE01DF91CF910C940D01FC01138230
:1003C000128284E191E09183808388E0858389E0D3
:1003D0008783148284E0808785E0818786E0828736
:1003E00087E08387108A20E041E060E1CF010C9430
:1003F000930120E042E060E10C949301CF93DF93FE
:10040000EC010E94DE018DE291E099838883CE01A8
:10041000DF91CF910C94F9011F93CF93DF93EC01FF
:10042000162F81E01827412F61E0CE010E941B01A9
:1004300068E171E0CE010E94743C412F61E0CE0181
:10044000DF91CF911F910C941B010F931F93CF93BA
:10045000DF93EC018B01642F0E940C02B801CE01E6
:10046000DF91CF911F910F910C94743C40E00C945C
:100470002502DF92EF92FF920F931F93CF93DF93AA
:10048000C9E7D1E061E089910E94D73B81E0CE3796
:10049000D807C1F7C9E7D1E0E12CD99060E08D2DF4
:1004A0000E94D73B0EE711E0F12CF80181918F01FA
:1004B0000E940D3C892B31F48F2D880F880F8F0DF2
:1004C0008E0D0DC0F394F7E0FF12EFCF61E08D2D9C
:1004D0000E94D73BE39485E0E812DFCF8FEFDF91F6
:1004E000CF911F910F91FF90EF90DF900895CF92E1
:1004F000DF92EF92FF920F931F93CF93DF939C01B4
:1005000065E070E00E949A3C7B016C0137FD22C0DF
:1005100009E711E0C0E0D0E0F80181918F0161E0CE
:10052000CC15DD0509F460E00E94D73B2196C5306B
:10053000D10591F7F701E258FE4FC0818C2F0E9440
:100540000D3C892B39F46AE070E080E090E00E9475
:10055000963AF4CFDF91CF911F910F91FF90EF90DA
:10056000DF90CF9008950F931F93CF93DF93CDB774
:10057000DEB728970FB6F894DEBF0FBECDBF88E078
:10058000E8E0F1E0DE01119601900D928A95E1F725
:1005900083E594E00E940D01AE014F5F5F4F67E07D
:1005A00083E594E00E94530183E594E00E944B01AF
:1005B00063E574E084EF92E00E94C00761E08AE0A6
:1005C0000E949E3B64E670E08AE00E94163B0EE7C4
:1005D00011E062E0F80181918F010E949E3BF1E001
:1005E00005381F07B1F764E670E080E090E00E94F4
:1005F000963A0E9439028EE190E00E9477021092B2
:10060000F3021092F20228960FB6F894DEBF0FBEE6
:10061000CDBFDF91CF911F910F91089560E088E0E9
:100620000E94D73B61E087E00E94D73B61E086E013
:100630000E94D73B61E085E00E94D73B61E084E007
:100640000E94D73B83B7817F846083BFF894EAE739
:10065000F0E080818F7780831092690081E08DBB0C
:100660008FE380937E0083E080937F0083B7816077
:1006700083BF85B7806685BF8F7D85BF7894889559
:1006800083B78E7F83BF10927F0010927E00089503
:100690001F93CF93DF93CDB7DEB76E970FB6F89465
:1006A000DEBF0FBECDBF0E943902182F8091F0022D
:1006B00017FD1CC0212F332727FD3095F901EB5A78
:1006C000FE4F6081F901EF5CFE4F40811092F30212
:1006D0001092F2026F3F51F0882319F01092F0024D
:1006E0003CC084EF92E00E94B81037C08823A9F183
:1006F00083E594E00E9414016AE070E0CE010B965D
:100700000E9458116091F2027091F302CE01459659
:100710000E945811BE016B5E7F4FCE0101960E9470
:100720009811BE01655F7F4FCE0101960E94721243
:10073000CE0101960E942619BC0183E594E00E9437
:10074000743CCE0101960E940812CE0145960E948B
:100750000812CE010B960E9408128091F0028111BE
:1007600036C08091F102811107C02091F2023091D0
:10077000F3022D3231405CF168E083E594E00E94A1
:100780000A0160E070E08AE00E94163B82E00E946D
:100790000D3C892B39F464E670E080E090E00E9423
:1007A000963AF4CF0E940E0364E670E080E090E099
:1007B0000E94963A1092F3021092F20281E0809326
:1007C000F1024EE261E284EF92E00E94B810812FC4
:1007D000992787FD90950E9477028091F20290916F
:1007E000F30201969093F3028093F2026BE570E0BE
:1007F00080E090E00E94963A6E960FB6F894DEBFC5
:100800000FBECDBFDF91CF911F9108951F920F9220
:100810000FB60F9211241DBA0F900FBE0F901F90AC
:10082000189583E594E00E94FE0184EF92E00C9419
:10083000CB06CF93DF9384E494E00E94081280E417
:1008400093E0892B59F484E393E00E94081288EF27
:1008500092E0892BB1F0C4E3D3E00BC0C4E4D4E050
:100860002A97CE010E94081283E0C034D807C1F74E
:10087000EACF2A97CE010E94081282E0C83FD8072B
:10088000C1F7DF91CF910895DF92EF92FF920F931E
:100890001F93CF93DF93CDB7DEB764970FB6F8946D
:1008A000DEBF0FBECDBF8C01D62ECE010B960E94AF
:1008B0002F1178012BE4E20EF11CF701808180FDFD
:1008C00031C0982F916090839DE290937504E6E784
:1008D000F4E0119224E0E738F207D9F785FD09C06A
:1008E00060E0F801808191810E940C02C8010E94A1
:1008F000440781E080937404109273041092720490
:10090000109271041092700410926F0410926E0491
:10091000F801808191810E943C01F80180819181E0
:100920000E944B01F9E3FD15D4F020E3D216DCF56B
:100930003DE0D31609F46EC13D1544F0DD2009F405
:1009400001C248E0D41609F425C1C8C181E2D81615
:1009500009F4BAC19EE2D91609F4B0C0BFC1EFE5EF
:10096000DE1609F45FC0ED154CF0FFE3DF1609F465
:1009700097C125E4D21609F4D3C0B0C131E6D3162D
:100980000CF4ACC146E64D152CF48FE7D81609F4EB
:1009900001C1A4C1F801E55AFE4F8081882309F402
:1009A0009DC190EED90E80916F048823D9F02091DB
:1009B0007004309171044AE0429FC001439F900D42
:1009C00011242D2D332727FD309520533109820F17
:1009D000931F8333E1E09E070CF0B4C19093710440
:1009E00080937004E091740481E08E0F809374040E
:1009F000FF27E7FDF095EB58FB4FD0826D2DF801F6
:100A0000808191810E94763CF701808185FF9AC1A7
:100A10008091740483300CF0FDC0F1E3FD150CF4FB
:100A2000F9C090C180916F04882379F120916E0400
:100A300081E0282720936E0480916D04992787FD1B
:100A400090958B589B4FE0E0DC01AE0FB11DE7FDA8
:100A5000BA953C91332371F0EF5F3730A9F7FF2748
:100A6000E7FDF095211180C1E80FF91F80818D32DB
:100A700009F482C190917404222311F081E001C035
:100A80008FEF890F8093740406C08091730491E006
:100A900089278093730460E0F801808191810E942E
:100AA0000C026091730481E0682770E06B587B4F03
:100AB000F801808191810E94743C44C1809172044C
:100AC00081112AC08091740482309CF460E3F801A3
:100AD000808191810E94763CE091740481E08E0FC8
:100AE00080937404FF27E7FDF095EB58FB4F80E3FC
:100AF0008083E091740481E08E0F80937404FF275B
:100B0000E7FDF095EB58FB4F8EE280836EE2F80133
:100B1000808191810E94763C81E08093720412C1B1
:100B200080916F0481112CC080917404813099F4FC
:100B300061E3F801808191810E94763CE091740428
:100B400081E08E0F80937404FF27E7FDF095EB584A
:100B5000FB4F81E38083E0917404E0936D0481E0B6
:100B60008E0F80937404FF27E7FDF095EB58FB4F41
:100B700087E0808367E0F801808191810E94763C64
:100B800081E080936F0410927104109270041092AF
:100B90006E04D8C020917404215020937404E22F75
:100BA000FF27E7FDF095EB58FB4F80818E3219F45B
:100BB0001092720404C0853611F410926F04909163
:100BC0006F04992321F08D3211F410926E048091FC
:100BD0007004909171046AE070E00E949A3C7093F6
:100BE000710460937004108222300CF46DC060E0D8
:100BF000F801808191810E940C026091730481E070
:100C0000682770E06B587B4FF801808191810E94CA
:100C1000360298C0E0917404FF27E7FDF095EB5889
:100C2000FB4F10826091730481E0682770E06B587D
:100C30007B4F40E050E0CE0101960E944D19BE016D
:100C40006F5F7F4FCE010B960E94C111CE010196BE
:100C50000E940812F701808185FF0BC0CE010B9620
:100C60000E94A713B901C801805C9F4F0E94001524
:100C700011C0F801E65BFF4F808198014AE0849F34
:100C8000200D311D1124C901BE01655F7F4F0496FF
:100C90000E94C111F7011082C8010E94B80752C01A
:100CA000F701808192E089278083C8010E94440770
:100CB0006091740480917304680F41E0F8018081B1
:100CC00091810E941B013EC0B801CE0101960E9495
:100CD0002708CE0101960E940812DCCFF70180811F
:100CE0008E7F8083E0917404FF27E7FDF095EB5839
:100CF000FB4F10828091730491E08927682F70E088
:100D00006B587B4F40E050E0CE0101960E944D1998
:100D1000F801E65BFF4F808198014AE0849F200D37
:100D2000311D1124C901BE016F5F7F4F04960E94DF
:100D3000C111CE0101960E9408124EE26D2DC8012C
:100D40000E94B810CE010B960E94081264960FB64E
:100D5000F894DEBF0FBECDBFDF91CF911F910F91F1
:100D6000FF90EF90DF900895E80FF91F80818D329A
:100D700009F480CE8DE207C08081882309F47ACE01
:100D800081818193F9CF9081892798279193892731
:100D9000D1F710826FCEAF92BF92CF92DF92EF92D7
:100DA000FF920F931F93CF93DF93CDB7DEB72A97B0
:100DB0000FB6F894DEBF0FBECDBF8C017C0184E07E
:100DC000E80EF11C6701ECE3CE0ED11CC7010E94B6
:100DD0002F11FAE0EF0EF11CEC14FD04B9F76801D5
:100DE00080E4C80ED11CC6010E942F117801ECE4EA
:100DF000EE0EF11C5801F0EBAF1AFEEFBF0AC7016F
:100E00000E942F118AE0E80EF11CEA14FB04B9F7E6
:100E1000C7010E942F11F801E55BFF4F108260E0CF
:100E200070E0CE0101960E945811BE016F5F7F4FA6
:100E3000C6010E94C111CE0101960E940812F8015C
:100E4000E65AFE4F81E0808331961082E151F140F5
:100E50001082EE5EFE4F10823296808384E690E030
:100E6000F801938382832A960FB6F894DEBF0FBEF3
:100E7000CDBFDF91CF911F910F91FF90EF90DF9049
:100E8000CF90BF90AF900895CF93DF93EC0188810E
:100E900099810E941401FE01E55AFE4F8081811163
:100EA00006C031978081882321F060E203C068E7A3
:100EB00001C062E7888199810E94763C41E060E050
:100EC000888199810E941B01FE01E55BFF4F8081B3
:100ED00081FF02C06EE501C060E288819981DF91E7
:100EE000CF910C94763CFF920F931F93CF93DF9397
:100EF000EC01888199810E943501888199810E9445
:100F00004401CE010E9444078E01065B1F4FF80189
:100F1000808190E0019666E070E00E949A3C2AE0B1
:100F2000F22EF89E9001F99E300D11242C5F3F4F58
:100F3000CE01820F931F0E94261941E0BC018881D7
:100F400099810E942502F80180819E01F89E200D62
:100F5000311D1124C90104960E942619BC01888103
:100F60009981DF91CF911F910F91FF900C943602E0
:100F7000FC01E55BFF4F208120FF0C94730708956F
:100F80000F931F93CF93DF93CDB7DEB764970FB660
:100F9000F894DEBF0FBECDBF8C01FC01718360836E
:100FA0006AE570E0CE010B960E945811BE01655FA4
:100FB0007F4FCE0101960E9498116AE974E0CE013C
:100FC00001960E947212BE016F5F7F4FC801805B65
:100FD0009E4F0E94C111CE0101960E940812CE01BF
:100FE0000B960E940812C8010E94B80764960FB6BB
:100FF000F894DEBF0FBECDBFDF91CF911F910F914F
:1010000008959C01DC01A65BBF4F8C918B5F66E06D
:101010000E948E3C9C93E92FF0E0CF01019666E0A0
:1010200070E00E949A3C4AE0489FB001499F700DD1
:1010300011246C5F7F4F620F731F4E9FC0014F9F43
:10104000900D11240496820F931F0C94C111CF921E
:10105000DF92EF92FF920F931F93CF93DF93CDB761
:10106000DEB72A970FB6F894DEBF0FBECDBF6C0176
:101070008B017B018AE4E80EF11CF70180818F5F10
:1010800066E00E948E3C908360E070E0CE010196A5
:101090000E945811F7012081822F90E0059666E0AA
:1010A00070E00E949A3C4AE0489F9001499F300DB1
:1010B00011242C5F3F4FBE016F5F7F4FC801820F2D
:1010C000931F0E94C111CE0101960E940812B8011F
:1010D000605C7F4FC6010E949811C6012A960FB628
:1010E000F894DEBF0FBECDBFDF91CF911F910F915E
:1010F000FF90EF90DF90CF900895BF92CF92DF9254
:10110000EF92FF920F931F93CF93DF93CDB7DEB78C
:101110002A970FB6F894DEBF0FBECDBF8C017C01BD
:101120002AE4E20EF11CF701808190E0019636E09E
:10113000C32ED12CB6010E949A3C4AE0B42EB89E30
:10114000B001B99E700D11246C5F7F4F600F711F4D
:10115000CE0101960E949811F701808190E0B89E1F
:101160009001B99E300D11242C5F3F4F200F311F8D
:101170000196B6010E949A3CB89EA001B99E500DFE
:1011800011244C5F5F4FB901C801840F951F0E9465
:10119000C111F70180819801B89E200D311D1124E5
:1011A000C901BE016F5F7F4F04960E94C111CE013D
:1011B00001960E9408122A960FB6F894DEBF0FBE61
:1011C000CDBFDF91CF911F910F91FF90EF90DF90F6
:1011D000CF90BF900895CF93DF93EC0188819981E0
:1011E0000E940D0141E065E871E088819981DF91FD
:1011F000CF910C942502BF92CF92DF92EF92FF9293
:101200000F931F93CF93DF93CDB7DEB7C654D109A9
:101210000FB6F894DEBF0FBECDBF7C01B62E6C01B9
:1012200020E4C20ED11CB601CE01CD960E949811C9
:1012300005E115E525EB3BEB41EB5BE662E070E495
:10124000CE01C3960E9486118701055B1F4F3FE3C5
:10125000F8018081B31609F4A0C283FD12C0C70152
:101260000E94EB08F701E65BFF4F8081B701FAE0CF
:101270008F9F600D711D11246C5F7F4FC6010E940E
:10128000C11128E5B21609F4BEC22B150CF44DC0ED
:101290003EE2B31609F4C5C03B159CF141E2B41619
:1012A00009F49CC24B155CF088E0B81609F455C2ED
:1012B0009DE0B912BFC2C7010E940108BBC2EBE2A8
:1012C000BE1609F4DEC0FDE2BF1609F4F1C02AE241
:1012D000B212B0C2B701CE0101960E942708F701F1
:1012E000E65BFF4F8081F7012AE0829FE00DF11D50
:1012F0001124CF01BE016F5F7F4F04960E94A4129C
:10130000EDC039E33B152CF040E3B4160CF4EBC010
:1013100088C082E5B81609F455C293E5B91609F4F8
:1013200046C2E5E4BE1286C27CC0F5E6BF1609F4EB
:101330006BC1FB150CF458C021E6B21609F4EAC0E3
:101340002B158CF13CE5B31609F407C24FE5B41236
:1013500071C267013AE4C30ED11CF60180816AE0D4
:10136000B62E8701B89E000D111D11240C5F1F4F72
:101370006FEF7FEFCE0101960E945811BE016F5FA3
:101380007F4FC8010E94A412CE0101960E9408124C
:10139000F60180819701B89E200D311D1124C901ED
:1013A000B801049601C28701065B1F4F83E6B81699
:1013B00009F404C18B150CF4D6C0F80180812AE031
:1013C000D22EB701D89E600D711D11246C5F7F4F26
:1013D000CE010B960E949811BE01655F7F4FCE0132
:1013E00001960E94D135D5C098E6B91609F452C1CC
:1013F0009B155CF0E6E6BE1609F446C1F7E6BF129F
:1014000019C2C7010E947D0815C22AE6B21609F466
:1014100083C1B2160CF45FC13FE7B31609F49DC156
:1014200009C2F8018081847219F4C7010E94010881
:10143000F701E65BFF4F808190E0019666E070E087
:101440000E949A3C4AE0489F9001499F300D112428
:101450002C5F3F4FC701820F931F0E94261941E066
:10146000BC01F701808191810E94250260E0F701B3
:10147000808191810E940C026B2DC7010E9444045F
:10148000DCC1B701CE0101960E942708F701E65B97
:10149000FF4F808197014AE0849F200D311D112468
:1014A000C901BE016F5F7F4F04960E940E1216C0E5
:1014B000B701CE0101960E942708F701E65BFF4FB6
:1014C0008081F7012AE0829FE00DF11D1124CF01F8
:1014D000BE016F5F7F4F04960E944012CE010196BD
:1014E0000E940812A7C1B701CE0101960E942708E9
:1014F000F701E65BFF4F8081F7012AE0829FE00D54
:10150000F11D1124CF01BE016F5F7F4F04960E9431
:101510007212E4CF67013AE4C30ED11CF601808158
:101520003AE0B32E8701B89E000D111D11240C5F07
:101530001F4F61E070E0CE010B960E945811BE0172
:10154000655F7F4FCE0101960E949811B801CE01D0
:1015500001960E947212F60180819701B89E200DBB
:10156000311D11241DC0F8018081BAE0DB2EB701C6
:10157000D89E600D711D11246C5F7F4FCE010B96BC
:101580000E949811BE01655F7F4FCE0101960E94B7
:101590007A34F80180819701D89E200D311D1124E5
:1015A000C901BE016F5F7F4F04960E94C111CE0139
:1015B00001960E940812CE010B9692CFF80180810D
:1015C0009AE0D92E9701D89E200D311D1124C90112
:1015D00004960E949613811149C1F801808190E020
:1015E000019666E070E00E949A3CD89E9001D99ED8
:1015F000300D11242C5F3F4FC701820F931F0E94B3
:10160000961381118CC132C18701065B1F4FF8010F
:101610008081AAE0DA2EB701D89E600D711D1124D9
:101620006C5F7F4FCE0145960E949811BE016B5EA4
:101630007F4FCE010B960E947A34BE01655F7F4FCB
:10164000CE0101960E949811BE016D5C7F4FCE01C4
:1016500001960E947212F80180819701D89E200D98
:10166000311D1124C901BE016F5F7F4F04960E9496
:10167000C111CE0101960E940812CE010B960E9464
:101680000812CE0145962CCFB701CE0101960E94DB
:10169000270824CF8701065B1F4FF8018081FAE0FD
:1016A000DF2EB701D89E600D711D11246C5F7F4F36
:1016B000CE010B960E949811B701605B7E4FCE0160
:1016C0000B960E947212BE01655F7F4FCE0101969C
:1016D0000E948F315ECF8701065B1F4FF80180812A
:1016E000EAE0DE2EB701D89E600D711D11246C5FFB
:1016F0007F4FCE010B960E949811B701605B7E4F21
:10170000CE010B960E947212BE01655F7F4FCE0123
:1017100001960E94D7333DCF8701065B1F4FF8012A
:1017200080817AE0D72EB701D89E600D711D1124FB
:101730006C5F7F4FCE010B960E949811B701605BE2
:101740007E4FCE010B960E947212BE01655F7F4FE5
:10175000CE0101960E9419341CCF60E070E0CE01EA
:1017600001960E945811F701E65BFF4F8081F70157
:101770002AE0829FE00DF11D1124CF01BE016F5FB1
:101780007F4F04960E94C111CE0101960E9408125B
:10179000F8018081846080834DC092E08927808336
:1017A000BE01635C7F4FC6010E94C11143C06AE85D
:1017B00071E0F701808191810E943602F8018081F9
:1017C00088600AC06EE871E0F701808191810E9413
:1017D0003602F8018081806180832FC08091F10200
:1017E00091E089278093F102811127C06CE0F70115
:1017F000808191810E940A01F701628173818AE0F0
:101800000E94163B17C0BE01635C7F4FC6010E9459
:10181000C111F701E55AFE4F808191E0892780834D
:10182000882319F060E170E002C06AE070E0C60150
:101830000E940C15C7010E94B807CE01C3960E94F2
:101840000812CE01CD960E940812CA5BDF4F0FB678
:10185000F894DEBF0FBECDBFDF91CF911F910F91E6
:10186000FF90EF90DF90CF90BF900895F8018081B6
:1018700090E0019666E070E00E949A3C5AE0D52E16
:10188000D89EB001D99E700D11246C5F7F4F6E0DF4
:101890007F1DCE014F960E949811BE01615E7F4F61
:1018A000CE0145960E947A34B701CE0189960E94F6
:1018B0002708BE01675D7F4FCE010B960E949811ED
:1018C000BE016B5E7F4FCE010B960E94A412BE013B
:1018D000655F7F4FCE0101960E94C032F801808182
:1018E0009701D89E200D311D1124C901BE016F5FE3
:1018F0007F4F04960E94C111CE0101960E940812EA
:10190000CE010B960E940812CE0189960E94081201
:10191000CE0145960E940812CE014F96E1CDB70147
:10192000CE0101960E942708CE0101960E9408125E
:1019300060E070E0CE0101960E945811F8018081AC
:101940009701D89E200D311D1124C901BE016F5F82
:101950007F4F04960E94C111C1CD2F923F924F92AA
:101960005F926F927F928F929F92AF92BF92CF922F
:10197000DF92EF92FF920F931F93CF93DF93CDB738
:10198000DEB7C555D1090FB6F894DEBF0FBECDBF87
:101990004C01262F3C0130E4630E711CB301CE01D3
:1019A000895B9F4F66962FAF66970E949811669647
:1019B0002FAD6697213609F415C12F3309F436C3CC
:1019C0008401055B1F4FF801808183FD15C0C401B0
:1019D0000E94EB08F401E65BFF4F8081B401FAE05E
:1019E0008F9F600D711D11246C5F7F4FC3010E949A
:1019F000C11166962FAD66972F3509F41DC20CF004
:101A000093C02D3209F4F6C2ECF4213209F433C24A
:101A100024F42D3009F01DC309C32A3209F4E1C2B0
:101A20002B3209F016C362E971E0F40180819181E3
:101A30000E94360280E2F801808360E0C4010E94C7
:101A400044041DC32A330CF059C020330CF0EEC2FD
:101A50002E3209F4FAC22F3209F0FBC2C401865BB0
:101A60009F4F63969FAF8EAF6397FC01808190E09C
:101A7000019666E070E00E949A3CFAE0F89F9001BF
:101A8000F99F300D11242C5F3F4FC401820F931F2B
:101A90000E94A71319012A013B0164968FAF649736
:101AA00065969FAF6597B401CE010B960E942708FB
:101AB000CE010B960E94A71359016A017B018C018C
:101AC0009101A201B30164968FAD649765969FADB5
:101AD00065970E944C3DBA01422F532FCE010196CB
:101AE0000E9470116396EEADFFAD63978081940103
:101AF0004AE0489F200D311D11249DC2253409F074
:101B0000A8C28401065B1F4FF80180817AE0772E1E
:101B1000B401789E600D711D11246C5F7F4FCE0162
:101B200001960E94DF149AC1253609F402C17CF5A2
:101B30008401065B1F4F223609F465C024F4213668
:101B400009F087C24FC0233609F47CC0243609F05F
:101B500080C2F8018081FAE07F2EB401789E600D8A
:101B6000711D11246C5F7F4FCE010B960E9498115E
:101B7000BE01655F7F4FCE0101960E94C032F80121
:101B800080819401789E200D311D112454C2283685
:101B900009F4D0C13CF4263609F40EC1273609F405
:101BA00076C157C28401065B1F4F293609F4DCC198
:101BB0002A3609F04EC2F80180814AE0742EB40141
:101BC000789E600D711D11246C5F7F4FCE0145968C
:101BD0000E949811BE016B5E7F4FCE010B960E9452
:101BE0003E36D8C1C4010E940108F401E65BFF4FF4
:101BF000808194014AE0849F200D311D1124C90188
:101C0000B301049633C2F8018081BAE05B2E34013F
:101C1000589E600C711C112493012C5F3F4F3901B9
:101C2000B901CE0101960E949811B301CE0101962F
:101C30000E94A412F80180819401589E200D311D4C
:101C4000112413C1F801808190E0019666E070E0F4
:101C50000E949A3CAAE07A2E789EB001799E700D7F
:101C600011246C5F7F4F680D791DCE014F960E9445
:101C70009811BE01615E7F4FCE0145960E947A3475
:101C8000B401CE01C3960E94270861E070E0CE0146
:101C9000CD960E945811BE01635C7F4FCE0189969C
:101CA0000E949811BE016D5C7F4FCE0189960E9403
:101CB0007212BE01675D7F4FCE010B960E94981194
:101CC000BE016B5E7F4FCE010B960E94A412BE0137
:101CD000655F7F4FCE0101960E94C032F80180817E
:101CE0009401789E200D311D1124C901BE016F5F42
:101CF0007F4F04960E94C111CE0101960E940812E6
:101D0000CE010B960E940812CE0189960E940812FD
:101D1000CE01CD960E940812CE01C3960E940812F1
:101D2000CE0145960E940812CE014F960E940812DD
:101D30009FC16AE070E0CE014F960E945811BE012B
:101D4000615E7F4FCE0145960E947A34B401CE0188
:101D500089960E942708BE01675D7F4FCE010B96D2
:101D60000E949811BE016B5E7F4FCE010B960E94C0
:101D7000A412BE01655F7F4FCE0101960E94C03262
:101D8000F401E65BFF4F8081F4012AE0829FE00DC1
:101D9000F11D1124CF01BE016F5F7F4F04960E9499
:101DA000C111CE0101960E940812CE010B960E942D
:101DB0000812CE018996B2CFC4010E94010862E0E8
:101DC00070E0CE010B960E94581108E11DE224E458
:101DD00034E54BEF51E269EF7FE3CE0145960E9477
:101DE0008611BE016B5E7F4FCE0101960E94981155
:101DF000BE01655F7F4FCE0101960E94A412F401DF
:101E0000E65BFF4F8081F4012AE0829FE00DF11D27
:101E10001124CF01BE016F5F7F4F04960E94C11154
:101E2000CE0101960E940812CE0145960E9408122A
:101E3000CE010B960E9408128401065B1F4FF80129
:101E40008081EAE07E2EB401789E600D711D112420
:101E50006C5F7F4FCE0101960E947714F80180815C
:101E60009401789E200D311D1124C901BE016F5FC0
:101E70007F4F04965AC067E971E0F4018081918137
:101E80000E943602F801808180648083F8C0BE0120
:101E9000695B7F4FC3010E94C111F401E65AFE4FF6
:101EA000808191E0892780839401205B3E4F390136
:101EB000882389F108E11DE224E434E54BEF51E287
:101EC00069EF7FE3CE010B960E9486116AE570E010
:101ED000CE0145960E945811BE016B5E7F4FCE0128
:101EE00001960E949811BE01655F7F4FCE01019659
:101EF0000E947212BE016F5F7F4FC3010E94C11129
:101F0000CE0101960E940812CE0145960E94081249
:101F1000CE010B960BCF61E070E0CE0101960E94DE
:101F20005811BE016F5F7F4FC3010E94C111CE01E6
:101F30000196FCCE8401065B1F4FF80180816AE0A8
:101F4000762EB401789E600D711D11246C5F7F4F59
:101F5000CE0145960E949811BE016B5E7F4FCE0167
:101F60000B960E942C3916C0F80180815AE0752E1C
:101F7000B401789E600D711D11246C5F7F4FCE01FE
:101F800045960E949811BE016B5E7F4FCE010B9665
:101F90000E94DD39BE01655F7F4FCE0101960E9430
:101FA0009811B401605B7E4FCE0101960E94A4128D
:101FB000F80180819401789E200D311D1124C90102
:101FC000BE016F5F7F4F04960E94C111CE01019642
:101FD0000E940812CE010B960E940812CE0145966F
:101FE000A5CEF401E35AFE4F808191E089278083DA
:101FF000319708C0F401E45AFE4F808191E08927AF
:10200000808331961082F401E35AFE4F40814111E2
:1020100007C031978081811103C06EE070E002C07B
:1020200060E070E0C3010E94051522C0622FC40168
:102030000E94FB0824C0C901BE016F5F7F4F049658
:102040000E94C111CE01019661CF81E08093F00220
:102050000FC0F401E65BFF4F8081B4019AE0899FD5
:10206000600D711D11246C5F7F4FC3010E94C1116F
:10207000F401E55BFF4F1082C4010E947307CE019B
:10208000895B9F4F0E940812CB5ADF4F0FB6F8941E
:10209000DEBF0FBECDBFDF91CF911F910F91FF909B
:1020A000EF90DF90CF90BF90AF909F908F907F90F8
:1020B0006F905F904F903F902F900895FC01E65BEA
:1020C000FF4F2081EAE0AC01E29F400D511D112439
:1020D0009A012C5F3F4F772767FD70956156710914
:1020E000E69FA001E79F500D1124445B5F4FB901AB
:1020F000840F951F0C94C111EF92FF920F931F93C1
:10210000CF93DF931F92CDB7DEB77C018C01055BC7
:102110001F4FF801808182FD05C0C70169830E94BD
:1021200001086981F8011082862F992787FD909513
:10213000815691092AE0289FB001299F700D112432
:10214000645B7F4F6E0D7F1DF701E65BFF4F808163
:10215000A701289F400D511D1124CA0104960F901C
:10216000DF91CF911F910F91FF90EF900C94C111CF
:10217000EF92FF920F931F93CF93DF931F92CDB7F0
:10218000DEB77C018C01055B1F4FF801808186FF63
:1021900019C01082862F992787FD9095C0976AE015
:1021A00070E00E949A3C2BE1289FB001299F700D9E
:1021B0001124645F7F4FF701738362838AE00E947A
:1021C000163B13C0982F9871D1F04E3251F0642F06
:1021D00083FF04C0C7010E945E1003C0C7010E94B4
:1021E0007C10F8018081877E8083C7010F90DF918A
:1021F000CF911F910F91FF90EF900C94B80780FF43
:102200000AC0C7010F90DF91CF911F910F91FF90EE
:10221000EF900C944404F7018081918169830E94BE
:102220003501F701808191810E944401F80180818C
:10223000698181FF0AC0C7010F90DF91CF911F9183
:102240000F91FF90EF900C94AD0CC7010F90DF91B0
:10225000CF911F910F91FF90EF900C94FB08CF93BB
:10226000DF93EC018DEA91E09983888360E070E070
:10227000CB010E9407302A833B834C835D836E83AE
:102280007F8388879987DF91CF9108950F931F935C
:10229000FC018DEA91E09183808302831383248380
:1022A000358346835783608771871F910F91089507
:1022B000CF93DF93EC018DEA91E09983888388279F
:1022C00077FD8095982F0E9407302A833B834C83AB
:1022D0005D836E837F8388879987DF91CF9108958F
:1022E000CF93DF93EC018DEA91E099838883CB0152
:1022F000BA010E9407302A833B834C835D836E833F
:102300007F8388879987DF91CF9108950F931F93DB
:10231000FC018DEA91E091838083028313832483FF
:10232000358346835783608771871F910F91089586
:10233000FC01DB018DEA91E091838083E617F707CA
:10234000F9F012968C911297828313968C911397C1
:10235000838314968C911497848315968C9115978A
:10236000858316968C911697868317968C9117976E
:10237000878318968C911897808719968C918187FE
:102380000895FC01DB0186179707F9F012968C91EE
:102390001297828313968C911397838314968C9152
:1023A0001497848315968C911597858316968C9136
:1023B0001697868317968C911797878318968C911A
:1023C0001897808719968C918187CF010895FC0119
:1023D000DB018C91828311968C91119783831296E5
:1023E0008C911297848313968C91139785831496FE
:1023F0008C911497868315968C91159787831696E2
:102400008C911697808717968C918187CF010895BC
:102410002DEA31E0FC01318320830895AF92BF9211
:10242000CF92DF92EF92FF920F931F93CF93DF93A0
:10243000EC01FB01A280B380C480D580E680F780E8
:10244000008511852A813B814C815D816E817F8170
:10245000888599850E94FC262A833B834C835D8373
:102460006E837F8388879987CE01DF91CF911F91FB
:102470000F91FF90EF90DF90CF90BF90AF900895B5
:10248000AF92BF92CF92DF92EF92FF920F931F9382
:10249000CF93DF93EC01FB01A280B380C480D58091
:1024A000E680F780008511852A813B814C815D8122
:1024B0006E817F81888599850E94ED2E2A833B83DA
:1024C0004C835D836E837F8388879987CE01DF91FC
:1024D000CF911F910F91FF90EF90DF90CF90BF9021
:1024E000AF900895AF92BF92CF92DF92EF92FF929A
:1024F0000F931F93CF93DF93EC01FB01A280B38076
:10250000C480D580E680F780008511852A813B81D3
:102510004C815D816E817F81888599850E944527E8
:102520002A833B834C835D836E837F83888799876F
:10253000CE01DF91CF911F910F91FF90EF90DF902F
:10254000CF90BF90AF900895AF92BF92CF92DF929D
:10255000EF92FF920F931F93CF93DF93EC01FB0158
:10256000A280B380C480D580E680F7800085118585
:102570002A813B814C815D816E817F81888599852F
:102580000E943E2B2A833B834C835D836E837F8333
:1025900088879987CE01DF91CF911F910F91FF908E
:1025A000EF90DF90CF90BF90AF900895AF92BF9221
:1025B000CF92DF92EF92FF920F931F93FC01DB010A
:1025C0001296AC9012971396BC9013971496CC90D9
:1025D00014971596DC9015971696EC90169717960B
:1025E000FC90179718960C91189719961C912281B8
:1025F00033814481558166817781808591850E94F0
:10260000BE2A1F910F91FF90EF90DF90CF90BF9067
:10261000AF9008958F929F92AF92BF92CF92DF9228
:10262000EF92FF920F931F93CF93DF93EC014B0137
:10263000FB01A280B380C480D580E680F78000854E
:1026400011852A813B814C815D816E817F818885E6
:1026500099850E94BE2A811116C0F401A280B38020
:10266000C480D580E680F780008511852A813B8172
:102670004C815D816E817F81888599850E94702A59
:1026800091E0982701C090E0892FDF91CF911F91B1
:102690000F91FF90EF90DF90CF90BF90AF909F9001
:1026A0008F900895AF92BF92CF92DF92EF92FF92F8
:1026B0000F931F93FC01DB011296AC9012971396B7
:1026C000BC9013971496CC9014971596DC901597A0
:1026D0001696EC9016971796FC90179718960C91F3
:1026E000189719961C912281338144815581668106
:1026F0007781808591850E94702A1F910F91FF90AC
:10270000EF90DF90CF90BF90AF9008950F93FC01B2
:1027100022813381448155816681778180859185CD
:102720000FE30E943E3E822F0F910895FC01B1E01D
:1027300022813381448155816681778180859185AD
:10274000A0E00E94813E09F0B0E08B2F0895EF9247
:102750000F93FC0122813381448155816681778109
:10276000E12C01E0808591850E94362F0F91EF903A
:1027700008952F923F924F925F926F927F928F9225
:102780009F92AF92BF92CF92DF92EF92FF920F9300
:102790001F93CF93DF93CDB7DEB727970FB6F8948B
:1027A000DEBF0FBECDBF322E432E542E652E762EA9
:1027B000872E982E9F831A830983ED82CB82212C4A
:1027C0003C2D330F330B3E83232D342D452D562DB9
:1027D000672D782D892D9F81A0E00E94813E09F40C
:1027E0003EC0AB80BE80CB2CDB2CEB2CFB2C0B2D0E
:1027F0001B2D232D342D452D562D672D782D892DFC
:102800009F810E944C3D80E3820F8A3314F087E35E
:10281000820F41E0420D4C83E981FA81E20DF11D06
:1028200027FCFA958083AB80BE80CB2CDB2CEB2C75
:10283000FB2C0B2D1B2D232D342D452D562D672DB7
:10284000782D892D9F810E944E3D322E432E542E8D
:10285000652E762E872E982E9F832C80B5CF20E371
:10286000822D992787FD9095AD81E981FA812A16FD
:102870002CF4E80FF91F20832394F2CF20E030E0FE
:102880004C01B1E08B1A91083F01680E791EA4013A
:10289000420F531F66277727621B730B21503109A4
:1028A000641775074CF44081B301620F731FDB019D
:1028B0005C9151934C93EBCFF301108227960FB6A6
:1028C000F894DEBF0FBECDBFDF91CF911F910F9166
:1028D000FF90EF90DF90CF90BF90AF909F908F9040
:1028E0007F906F905F904F903F902F9008956F92E0
:1028F0007F928F929F92AF92BF92CF92DF92EF9290
:10290000FF920F931F93CF93DF93CDB7DEB7289736
:102910000FB6F894DEBF0FBECDBF3C014B010E9445
:10292000981160E070E0CB010E94073059016A0104
:102930007B01F40122813381448155816681778155
:102940008C01808591850E94BE2A882311F16FEF4A
:102950007FEFCB010E94073059016A017B01F4012E
:102960002281338144815581668177818C01808504
:1029700091850E943E2B29833A834B835C836D8330
:102980007E838F839887BE016F5F7F4FC3010E9454
:10299000E711C30128960FB6F894DEBF0FBECDBF76
:1029A000DF91CF911F910F91FF90EF90DF90CF902B
:1029B000BF90AF909F908F907F906F900895EF920F
:1029C0000F931F93CF93DF93EC01FB01228133819F
:1029D0004481558166817781E12C01E08085918574
:1029E0000E94242D89019A01AB01BC01CE010E94F5
:1029F0004611CE01DF91CF911F910F91EF90089575
:102A0000709306016093050108957093040160932B
:102A1000030140938704089560930001772767FDC1
:102A2000709570930201609301010895CF93DF9335
:102A3000EC01FB0112821382148215821682178226
:102A400088EF80878FEF8187CE010E949811CE0199
:102A5000DF91CF9108958F929F92AF92BF92CF92C4
:102A6000DF92EF92FF920F93FC01A280B380C480AB
:102A7000D580E680F780B085E1859501A601B70194
:102A80008B2F8F7090E0A0E00E94813E71F08B2F21
:102A90009E2F04E30E943E3E490187E0982281E098
:102AA0009FEF891697E0990609F080E00F91FF905B
:102AB000EF90DF90CF90BF90AF909F908F90089550
:102AC0008F929F92AF92BF92CF92DF92EF92FF923E
:102AD0000F93FC01A280B380C480D580E680F7808C
:102AE000B085E1859501A601B7018B2F8F7090E02D
:102AF000A0E00E94813E71F48B2F9E2F04E30E9480
:102B00003E3E490187E0982281E09FEF891697E0D9
:102B1000990609F080E00F91FF90EF90DF90CF9041
:102B2000BF90AF909F908F9008952F923F924F92B9
:102B30005F926F927F928F929F92AF92BF92CF924D
:102B4000DF92EF92FF920F931F93CF93DF93CDB756
:102B5000DEB7A6970FB6F894DEBF0FBECDBF4C010F
:102B6000788B6F87FC01F281F983FC01F381FA8392
:102B7000FC01F481FB83FC01F581FC83FC01F681FF
:102B8000FD83FC01F781FE83FC01F085FF83FC01DE
:102B9000F185F88729813A814B815C816D817E8145
:102BA0008F819F2FA0E00E94813E1CF56FEF7FEF89
:102BB000CB010E94073059016A017B018C012981F8
:102BC0003A814B815C816D817E818F8198850E94E5
:102BD0003E2B29833A834B835C836D837E838F8373
:102BE00098878DE28093880421E030E03C8B2B8B2A
:102BF00002C01C8A1B8AC4010E942B15882329F05D
:102C00006CE971E088E894E00BC0C4010E94601593
:102C1000882349F060EA71E08B899C8988579B4F33
:102C20000E94A73EF8C2F40122813381448155817C
:102C3000668177818085918504E30E943E3E49014B
:102C4000F7E09F222FEF821627E09206C9F464EA8C
:102C500071E088E894E00E94A73E209198041AE071
:102C6000C12EE12C0CE814E030E040E050E060E0E0
:102C700070E080E090E00E94B91310929804CBC2FB
:102C800070900101398139878A818A879B819B876E
:102C9000EC81EC872D803E80FF81FEA328852DA34B
:102CA000232F382F492F5E2FB1018F2F988504E3F2
:102CB0000E943E3EC90197709E878D87672D7727BA
:102CC00067FD7095872F972F0E9407302D8F3E8FBD
:102CD0004F8F58A369A37AA38BA39CA3B8E04B2E74
:102CE000512C21E030E040E050E060E070E080E016
:102CF00090E0972C990C9908A72CB92CC92CD92CA9
:102D0000E92CF92C092D192D0E94C83CE1E04E1A3E
:102D1000510891F70E94A33059016A017B018C018F
:102D20000E943E2B298B3A8B2A013B014C012D85B9
:102D30003E85232B19F4212C312CCBC08D859E850B
:102D40008F3FE7E09E07B9F3109298041E861D8618
:102D50008F3F93400CF052C029853A854B855C85A6
:102D6000B1018EA19DA104E30E943E3E590137E0CE
:102D7000B3228FEFA81683E0B8060CF04FC0809105
:102D800098048230C0F6A988BA8862017301840170
:102D900029853A854B855C85B1018EA19DA10E9454
:102DA0003E2B29873A874B875C871B018EA39DA307
:102DB0002D853E852F5F3F4F3E872D87CDCF80915C
:102DC0009804823008F0B7CFA988BA8862017301ED
:102DD000840129853A854B855C85B1018EA19DA131
:102DE0000E94452729873A874B875C871B018EA362
:102DF0009DA3ED85FE853197FE87ED87A988BA886A
:102E000062017301840129853A854B855C85B10196
:102E10008EA19DA10E94BE2A882389F2612C712C6B
:102E200029853A854B855C85B1018EA19DA104E37E
:102E30000E943E3E490127E092223FEF831633E095
:102E400093060CF180919804823008F074CFAD8C19
:102E5000BE8CCF8CD8A0E9A0FAA00BA11CA129851B
:102E60003A854B855C85B1018EA19DA10E944527C5
:102E700029873A874B875C871B018EA39DA3FFEFB1
:102E80006F1A7F0ACDCFAD8CBE8CCF8CD8A0E9A0B5
:102E9000FAA00BA11CA129853A854B855C85B1015F
:102EA0008EA19DA10E943E2B2D8B3E8B4F8B588F68
:102EB000698F7A8F8B8F9C8F8D859E85A4E0880F7C
:102EC000991FAA95E1F71301281A390A81E0281AF7
:102ED0003108209103013091040180910501909106
:102EE0000601221533053CF022273327281B390B16
:102EF000221633069CF4ED89E983FE89FA832F8933
:102F00002B83388D3C83E98DED83FA8DFE832B8DE9
:102F10002F833C8D3887988B8F8702C0212C312CD2
:102F200080918704882309F44DC0C10137FC09C092
:102F300063E070E00E949A3C2C018FEF481A580A17
:102F400009C0019663E070E00E949A3C2C0193E076
:102F5000490E511C60900101812C912C21E030E040
:102F600040E050E060E070E080E090E0762C770C8C
:102F700077085301C72CD72CE72CF72C072D172DDA
:102F80000E94C83CEFEF8E1A9E0A841495048CF3BD
:102F90000E94A33059016A017B018C012D893E8971
:102FA0004F89588D698D7A8D8B8D9C8D0E943E2B1B
:102FB00029833A834B835C836D837E838F839887D9
:102FC000241835088090010121E030E040E050E015
:102FD00060E070E080E090E0612C712C982C990CFE
:102FE0009908EF85F889E615F7056CF05401C92CAE
:102FF000D92CE92CF92C092D192D0E94C83CFFEF82
:103000006F1A7F0AEECF0E94A33059016A017B013B
:103010008C01809101019091020197FD0196BC0104
:1030200075956795882777FD8095982F0E940730C2
:103030000E94452759016A017B018C0129813A814F
:103040004B815C816D817E818F8198850E94FC26F9
:1030500029833A834B835C836D837E838F83988738
:10306000E12C01E00E94362F29013A014B018A87A9
:1030700099870E94A33059016A017B018C01298143
:103080003A814B815C816D817E818F8198850E9420
:10309000ED2E29833A834B835C836D837E838F83FC
:1030A000988721143104E9F09201A301B4018A85C3
:1030B0009985A9E00E94813EA1F09CF0EAE0AE2E45
:1030C000B12CC12CD12CE12CF12C00E010E00E949D
:1030D0004E3D29013A014B018A879987FFEF2F1A4C
:1030E0003F0A0B891C8908571B4FC0900101EE2431
:1030F000E3949201A301B4018A8599850E94B913D2
:103100002B893C89820F931FEF85F889EF2B09F4F7
:103110005BC03C01FFEF6F1A7F0A2EE2FC01E8570B
:10312000FB4F20832F853889260D371D2F30310521
:1031300034F02FE030E0281B390B388B2F8740907C
:10314000010121E030E040E050E060E070E080E02C
:1031500090E0812C912C542C550C5508EF85F88962
:103160008E169F066CF45201C52CD52CE52CF52C3F
:10317000052D152D0E94C83CEFEF8E1A9E0AEECF4A
:103180000E94A33059016A017B018C0129813A8197
:103190004B815C816D817E818F8198850E943E2B61
:1031A00029833A834B835C836D837E83C0900101C6
:1031B000E12C02E00E94362F830108571B4FEF8459
:1031C0000E94B913860D971D2114310421F18C0141
:1031D0000F5F1F4F27E0FC01E857FB4F208337FEAE
:1031E0000AC0F801E857FB4F2DE220833194219467
:1031F00031080F5F1F4F08571B4F932D990F990BE5
:10320000C0900101E12C9101492F592F692F792F8D
:10321000892F0E94B91388E894E0A6960FB6F89417
:10322000DEBF0FBECDBFDF91CF911F910F91FF90F9
:10323000EF90DF90CF90BF90AF909F908F907F9056
:103240006F905F904F903F902F900895609105018F
:10325000709106010C949515CF93DF93EB0160916B
:103260000501709106010E949515009799F0FC01E7
:1032700001900020E9F7AF0141505109481B590B5B
:10328000E881F9810280F381E02DBC01CE01DF915C
:10329000CF910994DF91CF9108952F923F924F9251
:1032A0005F926F927F928F929F92AF92BF92CF92D6
:1032B000DF92EF92FF920F931F93CF93DF93CDB7DF
:1032C000DEB7A3970FB6F894DEBF0FBECDBF9D8BC0
:1032D0008C8B7BA36AA35F8B4E8B0E942F11198668
:1032E0001A861B861C861D861E861F86188AEAA1E2
:1032F000FBA1F081F98B19A2812C18A21F8E2AE064
:103300002A8B188E198E1A8E1B8E1C8E1D8E1E8E69
:10331000912C1B8A212C312CF989F11111C060905C
:1033200000010FE0802E912C21E030E040E050E0E1
:1033300060E070E080E090E0762C770C7708E4C0E5
:103340002F8D2111ECCFEAA1FBA14B89E40FF11DD8
:1033500047FDFA955081598B51341CF4852F8053C9
:1033600002C08989875399899A3394F49033D4F4AD
:103370009B3209F4C5C024F4973009F4BCC0B8C02E
:10338000E989ED3209F4AFC0EE3209F4A7C0B0C04C
:10339000F989F1340CF4ACC0F73424F0FF3509F4AA
:1033A000AFC0A6C0882071F020910001A1012403C4
:1033B0001001259F300C1124280E311C87FD3A94F2
:1033C00083949EC0482E552447FC5094652C752C40
:1033D00097FC3BC060910001772767FD7095872FB0
:1033E000972F0E94073059016A017B0129853A8590
:1033F0004B855C856D857E858C018F8598890E94C3
:103400003E2B29873A874B875C876D877E878F871E
:10341000988BC301B2010E94073059016A017B01F8
:1034200029853A854B855C856D857E858C018F85E8
:1034300098890E94FC2629873A874B875C876D878D
:103440007E878F87988B93945BC02A89388D498DAE
:103450005A8D6B8D7C8D8D8D9E8D0E94A330590170
:103460006A017B018C01C301B2010E9407300E94F6
:10347000452759016A017B0129853A854B855C8581
:103480006D857E858C018F8598890E94FC26298711
:103490003A874B875C876D877E878F87988B9A9456
:1034A000A09000011A2D110F110BB12EC12ED12E9B
:1034B000E12EF12E012F2A89388D498D5A8D6B8D81
:1034C0007C8D8D8D9E8D0E94C83C2A8B388F498FB4
:1034D0005A8F6B8F7C8F8D8F9E8F12C097FC10C080
:1034E00099249A940DC0882049F051E059A308C04E
:1034F00081E08F8F05C08824839402C091E098A357
:10350000EB89EF5FEB8B08CF5301C72CD72CE72C4F
:10351000F72C072D172D0E94C83CE1E08E1A910868
:1035200099F70E94A330922E832E742E652E562E6C
:10353000472E898B9A8B60910001772767FD7095E4
:10354000872F972F0E94073059016A017B018C0158
:10355000292D382D472D562D652D742D89899A8951
:103560000E943E2B922E832E742E652E562E472EB1
:10357000898B9A8BF9A1FF2309F45CC040E12416E2
:103580003104F4F029853A854B855C856D857E850F
:10359000A92CB82CC72CD62CE52CF42C09891A8917
:1035A0008F8598890E94452729873A874B875C87B2
:1035B0006D877E878F87988B20E1221A3108DECFB6
:1035C00041018114910419F160910001772767FD91
:1035D0007095872F972F0E94073059016A017B0150
:1035E00029853A854B855C856D857E858C018F8527
:1035F00098890E94452729873A874B875C876D8782
:103600007E878F87988B51E0851A9108DACF8E8953
:103610009F89892B09F457C0EE89FF8980819181A8
:10362000FB898F0F911DF7FD9A95EE89FF89918394
:10363000808349C0E0E12E163104F4F029853A85F3
:103640004B855C856D857E85A92CB82CC72CD62C26
:10365000E52CF42C09891A898F8598890E943E2BC4
:1036600029873A874B875C876D877E878F87988B02
:1036700090E1291A3108DECF41018114910439F219
:1036800060910001772767FD7095872F972F0E9423
:10369000073059016A017B0129853A854B855C8594
:1036A0006D857E858C018F8598890E943E2B2987A8
:1036B0003A874B875C876D877E878F87988BF1E091
:1036C0008F1A9108DACFF8A1F11104C0BE01675F2B
:1036D0007F4F1EC06FEF7FEFCB010E940730590173
:1036E0006A017B0129853A854B855C856D857E85E0
:1036F0008C018F8598890E943E2B29833A834B83C6
:103700005C836D837E838F839887BE016F5F7F4F5D
:103710008C899D890E94E7118C899D89A3960FB69B
:10372000F894DEBF0FBECDBFDF91CF911F910F91F7
:10373000FF90EF90DF90CF90BF90AF909F908F90D1
:103740007F906F905F904F903F902F9008954F9291
:103750005F926F927F928F929F92AF92BF92CF9221
:10376000DF92EF92FF920F931F93CF93DF93CDB72A
:10377000DEB728970FB6F894DEBF0FBECDBF6B0142
:103780007C01DC01CB011BE1B695A7959795879548
:103790001A95D1F78F709927880F991FFC01E15373
:1037A000FE4FDC01A155BE4F0D90BC91A02DA7018D
:1037B00096018BE056954795379527958A95D1F7D1
:1037C000442755270E94BD3C24E19695879577951F
:1037D00067952A95D1F740805180461A570A612C87
:1037E000712CC701B601A30192010E94213D07E09F
:1037F0000E943E3E49015A0175016401C094D09473
:10380000E094F094C701B601A30192010E94213D0A
:1038100008E10E943E3E29833A834B835C83320158
:103820005524442429813A814B815C81420E531EE8
:10383000641E751EB301A20180E090E0DC014982A4
:103840005A836B837C838D839E83AF83B887C70144
:10385000B601A70196010E94213D00E20E943E3E72
:1038600059016A017B018C0129813A814B815C817C
:1038700060E070E080E090E00E94C83C00E30E94BD
:103880003E3EC901DA01BC01CD01640D751D861DE6
:10389000971D28960FB6F894DEBF0FBECDBFDF91FF
:1038A000CF911F910F91FF90EF90DF90CF90BF903D
:1038B000AF909F908F907F906F905F904F90089502
:1038C0006115710521E08207910528F4CB01772766
:1038D000662720E101C020E061157105810531E016
:1038E000930728F4285F982F872F762F6627892F34
:1038F0009927AA27BB27FC01E151FE4F8081820F47
:1039000008950F931F93B22FA32FF42FE52F00E2FA
:103910000E943E3E022F132F242F352F0115110533
:103920002105310541F4AD01CF01052F142F292FB9
:10393000382F80E201C080E00115110591E02907D0
:10394000310520F4805F980111270027011511052A
:10395000210591E0390728F4885F322F212F102F9D
:103960000027032F112722273327F801E151FE4FAB
:103970009081890F1F910F9108952F923F924F923E
:103980005F926F927F928F929F92AF92BF92CF92EF
:10399000DF92EF92FF920F931F93CF93DF93CDB7F8
:1039A000DEB7A2970FB6F894DEBF0FBECDBF3901C8
:1039B00049835A83E02F00E20E943E3E2B833C83E2
:1039C0004D835E836F83788789879A879501A601E7
:1039D000B7018E2F912F0E943E3E2B873C874D874B
:1039E0005A8B6B8B7C8B8D8B9E8BE12CF12C00E0AA
:1039F00010E0930149815A8160E070E080E090E03E
:103A00000E94C83C2B8F3C8F4D8F5E8F6F8F78A3A9
:103A100089A39AA32B813C814D815E816F8178853A
:103A200089859A850E94C83C522E432E342E252E1D
:103A30006F8B788F898F9A8FAB84BC84CD84DA8822
:103A4000EB88FC880D891E89930149815A8160E0C9
:103A500070E080E090E00E94C83CA52CB42CC32C00
:103A6000D22CEF88F88C098D1A8D0E945A3E29833A
:103A70003A834E875F87688B798B782E692EAB846B
:103A8000BC84CD84DA88EB88FC880D891E892B8163
:103A90003C814D815E816F81788589859A850E9400
:103AA000C83C2E833F83488759876A877B878C87EA
:103AB0009D8729813A814E855F8568897989872D1F
:103AC000962DA52CB42CC32CD22CEF88F88C098D04
:103AD0001A8D0E94783E18F4E1E0EB8301C01B824E
:103AE00029813A814E855F8568897989872D962D50
:103AF00000E20E94233E19012A016C837D83B82FC6
:103B0000A92FAB8CBC8CCD8CDE8CEF8CF8A009A1DE
:103B10001AA10E945A3E7901142F5A8B5B016C0145
:103B200000E20E943E3EF40120873187428753879E
:103B30008A89E486F58616878787F1E09701412F09
:103B4000582FB501C60151016201EC80FD800B2F99
:103B50001A2F0E94783E08F0F0E02F2F30E040E06E
:103B600050E060E070E080E090E0AE80BF80C8840C
:103B7000D984EA84FB840C851D850E945A3E290164
:103B80001A01B62FA72FF82FE92F29813A814E85E8
:103B90005F8568897989872D962D00E20E943E3ED7
:103BA00059016A017B018C018B81E82A9201A101F4
:103BB0006B2F7A2F8F2F9E2F0E945A3EB22FA32F4A
:103BC000142FF52E00E20E943E3EF4012083318343
:103BD000428353839D01348325831683F782A29603
:103BE0000FB6F894DEBF0FBECDBFDF91CF911F910E
:103BF0000F91FF90EF90DF90CF90BF90AF909F908C
:103C00008F907F906F905F904F903F902F9008958E
:103C1000AF92BF92CF92DF92EF92FF920F931F93DA
:103C2000CF93DF93EC0159016A017B019801A50153
:103C3000B601C7010E94811CA5EFA80FE1E0F0E0EA
:103C4000EA1BF109A7FDF395F983E8839801A50123
:103C5000B601C7010A2F0E94233E2A833B834C836F
:103C60005D836E837F8388879987CE01DF91CF91B3
:103C70001F910F91FF90EF90DF90CF90BF90AF908A
:103C800008959F92AF92BF92CF92DF92EF92FF92F0
:103C90000F931F93CF93DF93922EA32EB42ED52F85
:103CA000C62FB72FF82FE92F670178018FE3C816C9
:103CB000D104E104F104E0F4002711270C191D09D7
:103CC0000F7311278F2F0E94233E11E0A0E00E9466
:103CD000813E09F410E0292D3A2D4B2D5D2F6C2FDC
:103CE0007B2F8F2F9E2F0C2D0E943E3E212B0FC02D
:103CF00011E08F2FA0E00E94813E09F410E0212FF7
:103D000030E040E050E060E070E080E090E0DF9183
:103D1000CF911F910F91FF90EF90DF90CF90BF90C8
:103D2000AF909F9008952F923F925F926F927F92F3
:103D30008F929F92AF92BF92CF92DF92EF92FF92BB
:103D40000F931F93CF93DF9300D000D0CDB7DEB792
:103D50003C832B83542E519490E0FC013197EE0F5D
:103D6000FF1FEE0FFF1FE60FF71FC080D180E2801C
:103D7000F380642E97018601042E04C036952795A2
:103D8000179507950A94D2F74801590104C0880C89
:103D9000991CAA1CBB1C4A95D2F78C149D04AE0436
:103DA000BF0409F00160DC01AA0FBB1FAA0FBB1FF3
:103DB0001B012A0E3B1E4B815C814A0F5B1F5A83FD
:103DC000498340E050E0E0E0F0E0652D6F71562E51
:103DD0003197445051097C01EE0EFF1EEF2871F11E
:103DE0007101E40EF51EA4E0EA1AF108D7018D90E6
:103DF0009D90AD90BC9075016401052C04C0CC0C65
:103E0000DD1CEE1CFF1C0A94D2F7C02AD12AE22A3C
:103E1000F32A29813A81240F351FD901CD92DD92F1
:103E2000ED92FC92139795018401062C04C03695FF
:103E30002795179507950A94D2F7CACFEB81FC8195
:103E400000831183228333830F900F900F900F9084
:103E5000DF91CF911F910F91FF90EF90DF90CF9066
:103E6000BF90AF909F908F907F906F905F903F90AA
:103E70002F9008954F925F926F927F928F929F92B0
:103E8000AF92BF92CF92DF92EF92FF920F931F9368
:103E9000CF93C82F69017A01B5E0F694E794D794DF
:103EA000C794BA95D1F7482E512C612C712CC114AE
:103EB000D104E104F10409F14C145D046E047F04A3
:103EC00010F4730162018C2DEC2FF0E0EC19FD0968
:103ED000EE0FFF1FEE0FFF1FE60FF71FA0E0B0E091
:103EE00081909190A190B19081149104A104B104AA
:103EF00041F411968A13F4CF04C0812C912C540103
:103F000002C0902FE12FC414D504E604F704B0F4E6
:103F1000422F4F718C2F8C19442389F19601220F67
:103F2000331F220F331F200F311F0E94931EC11415
:103F3000D104E104F10471F0902FE12FA92FBE2FDD
:103F40001D921D921D921D9281E0C81AD108E108B0
:103F5000F108B1F789288A288B2891F1F80184E0CB
:103F6000C89FE00DF11D1124349780819181A281B9
:103F7000B381816080839183A283B38321C0AC2FFE
:103F8000B0E0A150B04CFD01EC19FD09EE0FFF1F90
:103F9000EE0FFF1FE60FF71F3496AA0FBB1FAA0FE5
:103FA000BB1FA00FB11F1496882331F2729162914A
:103FB000529142917E936E935E934E938150F4CFD3
:103FC000CF911F910F91FF90EF90DF90CF90BF9016
:103FD000AF909F908F907F906F905F904F900895DB
:103FE00090919804982B9093980408952F923F9263
:103FF0004F925F926F927F928F929F92AF92BF92F9
:10400000CF92DF92EF92FF920F931F93CF93DF93A4
:10401000CDB7DEB72A970FB6F894DEBF0FBECDBF7F
:1040200029013A014B018A879E83A982BA82CB82F9
:10403000DC82170109871D83892F8F778F8300E02A
:10404000A12FAF77A88710E0BA85B860BA87E98555
:10405000E860E987111102C0002339F080E10E9475
:10406000F01F0023A9F11123D9F19201A301B4019A
:104070008A859F81A980BA80CB80DC807101098507
:1040800018850E94783E20F19501A601B101C80172
:104090005201630174010A851F810E94783E00F17C
:1040A000F02FEE819201A301B401802F9E2FA980F1
:1040B000BA80CB80DC80710109851D810E94783E29
:1040C00089F080F0250136014101F02FE12F0AC06F
:1040D00049805A806B807C804101F985ED8102C066
:1040E000FA85EE819201A301B4018F2F9E2F2A96AB
:1040F0000FB6F894DEBF0FBECDBFDF91CF911F91F9
:104100000F91FF90EF90DF90CF90BF90AF909F9076
:104110008F907F906F905F904F903F902F90089579
:104120003F924F925F926F927F928F929F92AF9247
:10413000BF92CF92DF92EF92FF920F931F93CF9394
:10414000DF93C82FFB01D42F322E40845184628428
:104150007384842F8B7F51F4D301C2018827B7FD6C
:1041600083959927AA27BB27A82F13C0242F30E0B7
:10417000CC2319F082E090E002C083E090E02817A1
:10418000390731F4A1E0411451046104710409F4C8
:10419000A0E080809180A280B3809401A50160E0BE
:1041A00070E080E090E000E20E94233EB22FD32E28
:1041B0007A01C62EB72E44815581668177818A01A6
:1041C0009B01B42BD12AE22AF32AF82FE92FAA2344
:1041D000E9F02B2F3D2DA7016C2D7B2DA1E00E9436
:1041E000633EB22FD32E7A01C62EB72EF82FE92FB9
:1041F000A0E00E94813ED1F1B301A2017F77452B5F
:10420000462B472B19F4D11101C0BE7FCC2389F076
:104210002B2F3D2DA7016C2D7B2D8F2F9E2F0E94C4
:10422000DC3DB22FD32E7A01C62ED72FF82FE92FDF
:1042300001C0DB2D2B2F3D2DA7016C2D7D2F8F2F46
:104240009E2FA0E00E94813E29F00FE30E943E3E97
:10425000C2130CC03320C1F0452846284728A1F0DE
:10426000809198048160809398040EC080E10E9440
:10427000F01FCC2389F020E030E040E050E060E027
:1042800070E080E090E810C02B2F3D2DA7016C2D31
:104290007D2F8F2F9E2F08C02FEF3FEF4FEF5FEF47
:1042A0006FEF7FEF8FEF9FE7DF91CF911F910F911E
:1042B000FF90EF90DF90CF90BF90AF909F908F9046
:1042C0007F906F905F904F903F9008952F923F9214
:1042D0004F925F926F927F928F929F92AF92BF9216
:1042E000CF92DF92EF92FF920F931F93CF93DF93C2
:1042F000CDB7DEB72E970FB6F894DEBF0FBECDBF99
:104300008B877E876D871701280139014A0120912B
:10431000990431E03C8721111C86822F8B7F89F024
:1043200030E04B85442319F082E090E002C083E046
:1043300090E02817390751F46FEF73E07A836983AF
:1043400007C080E092E09A83898302C01A821982B2
:10435000D101B370BA87A987ED85FE85ED3F27E0CF
:10436000F20708F483C0F7FF46C080910701882355
:10437000F1F03196E1F4E981FA819F0140E050E0EB
:1043800060E070E080E090E051016201730184011F
:104390000E945A3E209530954095509560957095B5
:1043A000809590950FE30E943E3ED22E02C0DD2400
:1043B000D394ED84FE84F194E194F1080027F7FC96
:1043C0000095102F9101A201B301C4010E94411E6A
:1043D00019012A013B014C0133703A872987DD20FE
:1043E00009F442C0232B09F44BC082E00E94F01F65
:1043F0001E861D863FC0ED85FE85ED3FF74099F492
:10440000E981FA819F0140E050E060E070E080E0E7
:1044100090E051016201730184010E945A3EA0E0C4
:104420000E94813E1CF585E00E94F01F2B8530E044
:1044300040E050E060E070E080E090E00FE30E9438
:10444000233E80519048AA24A394A981BA81AB2B22
:1044500009F0A12CB12CC12CD12CE12CF12C00E0C5
:1044600010E00E946F3E8FC01E861D86E985FA858A
:10447000EF2B41F08091980481608093980402C0F2
:104480001E861D8649815A819A0140E050E060E015
:1044900070E0CB0129833A834B835C836D837E83F9
:1044A0008F8398879101A201B301C401A980BA80CA
:1044B000C12CD12CE12CF12C00E010E00E945A3EDE
:1044C0000AE00E943E3E332E2A01662EE72E8983A3
:1044D000292EE1E069857A856115724009F0E0E0F6
:1044E0009C85E923E095E2232B8530E040E050E015
:1044F00060E070E080E090E00FE30E94233E59010D
:104500006A016987F72E8B87192F2E2F332DA20171
:10451000662D7E2D8981922DA0E00E94813EB1F012
:104520009E85990F990B2D853E85492F592F692F0F
:10453000792F892F04E30E94233E722E832E942E1E
:10454000F52F6C87B72FA82F9D8708C0712C812C61
:10455000912CF0E01C86B0E0A0E01D862E2F332DBC
:10456000A201662D7E2D8981922DE9840B850E9402
:104570005A3EA72CB82CC92CDF2EEC84FB2E0A2F18
:104580001D850E945A3E2E960FB6F894DEBF0FBED0
:10459000CDBFDF91CF911F910F91FF90EF90DF90F2
:1045A000CF90BF90AF909F908F907F906F905F90D3
:1045B0004F903F902F9008952F923F924F925F928D
:1045C0006F927F928F929F92AF92BF92CF92DF9223
:1045D000EF92FF920F931F93CF93DF93CDB7DEB788
:1045E00064970FB6F894DEBF0FBECDBF2B83F32FB9
:1045F000E42F5C836D837E838F83988B0B8B8C8AF7
:1046000004E30E943E3EC90197709A838983950115
:10461000A601B7018B89912F0E943E3EC901977078
:104620009A8B898BA981BA81A81BB90B2B813F2F4B
:104630004E2F5C816D817E818F818F7090E009E0CB
:104640000E94233E288739874A875B876C877D874E
:104650008E879F879501A601B7018B898F7090E0A7
:104660000E94233E19012A013B014C01109709F0D9
:1046700054C089819A818F3F974089F428852229E7
:10468000398533294A8544295B8555296C856629F6
:104690007D8577298E8588299F8599299FC0898165
:1046A0009A81892B51F52B813F2F4E2F5C816D8193
:1046B0007E818F8198890B890E945A3E39014A0177
:1046C000B62FA72FF82FE92FEF772C8930E040E0A5
:1046D00050E060E070E080E090E00FE30E94233E55
:1046E00059016A017B018C019301A4016B2F7A2F80
:1046F0008F2F9E2F0E945A3EDFC09101A201B3016D
:10470000C401905CA884B984CA84DB84EC84FD84F1
:104710000E851F850E945A3EB4C0B7FF52C08989DA
:104720009A898F3F9740B9F49101A201B301C40166
:10473000A0E00E94813E09F0B4C02C8930E040E046
:1047400050E060E070E080E090E00FE30E94233EE4
:1047500080519048B1C089819A81892B49F020E02D
:1047600030E040E050E060E070E080E090E208C0BF
:10477000288539854A855B856C857D858E859F85F5
:10478000A884B984CA84DB84EC84FD840E851F85EB
:104790000E945A3EEE24FF24EA1AFB0A0027F7FC87
:1047A0000095102F0E94411E288739874A875B8712
:1047B0006C877D878E879F8789899A899A83898369
:1047C00035C089819A818F3F974071F4288539855A
:1047D0004A855B856C857D858E859F85A0E00E94DE
:1047E000813E09F05EC070C089899A89892B49F0A1
:1047F00020E030E040E050E060E070E080E090E2F7
:1048000004C09101A201B301C4015101620173010D
:1048100084010E945A3E7D010027F7FC0095102F6D
:104820000E94411E19012A013B014C01288539854E
:104830004A855B856C857D858E859F8551016201EA
:10484000730184010E945A3E905E79018A01B62F5D
:10485000D72EF82FE92F2F3FAFEF3A074A075A0715
:104860006A077A078A07AFE39A0709F080F489811B
:104870009A8101979A8389838F2F9E2F01E00E944E
:10488000233E79018A01B62FD72EF82FE92F2B2F3F
:104890003D2D4F2F5E2F69817A818C890E94662180
:1048A0001BC00B892B813F2F4E2F5C816D817E8138
:1048B0008F8198890E94F61F2B83F32FE42F5C834E
:1048C0006D837E838F83988B2B813F2F4E2F5C814E
:1048D0006D817E818F81988964960FB6F894DEBFD2
:1048E0000FBECDBFDF91CF911F910F91FF90EF9041
:1048F000DF90CF90BF90AF909F908F907F906F9000
:104900005F904F903F902F9008952F923F924F923B
:104910005F926F927F928F929F92AF92BF92CF924F
:10492000DF92EF92FF920F931F93CF93DF93CDB758
:10493000DEB729970FB6F894DEBF0FBECDBFB82EF5
:104940006B01902E522E632E742E852E9701402FD0
:10495000512F652D762D872D982D0E94811C0FEFEC
:10496000080FE02FFF27E7FDF095FF83EE83F601A8
:104970008E819F81E81BF90B0A300CF45AC0ED3F81
:1049800097E0F90708F055C02B2D30E040E050E0EB
:1049900060E070E080E090E00FE30E94233E590168
:1049A0006A016A837B838C839D839701492D512FF4
:1049B000652D762D872D982DA0E00E94813EA1F0D7
:1049C0009F2F990F990B9F01492F592F692F792FED
:1049D000892F04E30E94233E29873887DA01462E77
:1049E000372E282E998308C019861886A0E0B0E0DB
:1049F000412C312C212C1982EE81FF813A979701AD
:104A0000492D512F652D762D872D982D0E2F0E9423
:104A1000233EEA80FB800C811D810E945A3EA984BE
:104A2000B8846D01E42CF32C022D19810E945A3EAA
:104A300011C09701492D512F652D762D872D982D69
:104A40000E94233E79018A019B01AC01BF018B2D9D
:104A50000E94662129960FB6F894DEBF0FBECDBF27
:104A6000DF91CF911F910F91FF90EF90DF90CF904A
:104A7000BF90AF909F908F907F906F905F904F907E
:104A80003F902F9008952F923F924F925F926F9296
:104A90007F928F929F92AF92BF92CF92DF92EF92CE
:104AA000FF920F931F93CF93DF93CDB7DEB7659738
:104AB0000FB6F894DEBF0FBECDBFB22FF32FE42F99
:104AC00059876A877B878C879F870D8B8C8A04E345
:104AD0000E943E3E37703E872D879501A601B701A3
:104AE0008D89912F0E943E3EC9019770998B888BCA
:104AF0002D853E85281B390B3B8B2A8B2B2F3F2F77
:104B00004E2F59856A857B858C858F7090E00AE0F1
:104B10000E94233E2A833B834C835D836E837F8385
:104B2000888799839501A601B7018D898F7090E0E0
:104B30000E94233E19012A013B014C018A899B896D
:104B4000181619060CF4CCC0892B09F05FC02D850E
:104B50003E852F3F374019F52A8122293B81332991
:104B60004C8144295D8155296E8166297F81772991
:104B70008885882999819929A0E00E94813E09F0C1
:104B800005C180E10E94F01FB0E0F0E0E0E019868E
:104B90001A861B8698EF9C872FEF2F870CC18D8577
:104BA0009E85892B41F4E1E0F0E0F98BE88B21E070
:104BB00030E03E872D879101A201B301C401AA8094
:104BC000BB80CC80DD80EE80FF80088519810E944B
:104BD000783E08F4BFC09501A601B701C801510194
:104BE0006201730184010E94783E08F462C08091E2
:104BF0009904B0E0F0E0E0E019861A861B861C8676
:104C0000823009F0D7C030E83F87D5C088899989BC
:104C10008F3F9740C9F49101A201B301C401A0E004
:104C20000E94813E09F0B2C021E03C89232730E098
:104C300040E050E060E070E080E090E00FE30E9430
:104C4000233E80519048ADC08D859E85892B49F0CB
:104C500020E030E040E050E060E070E080E090E490
:104C600008C02A813B814C815D816E817F8188856E
:104C70009981AA80BB80CC80DD80EE80FF80088592
:104C800019810E945A3EEA88FB88F194E194F10868
:104C90000027F7FC0095102F0E94411E2A833B83BA
:104CA0004C835D836E837F8388879983992D90647D
:104CB000992E81E0EC89E827EC8B9101A201B301E8
:104CC000C401AA80BB80CC80DD80EE80FF80088597
:104CD00019810E946F3EE889F989FE87ED8748C0F7
:104CE0002D853E852F3F374071F42A813B814C81D1
:104CF0005D816E817F8188859981A0E00E94813EDF
:104D000009F044C058C0E889F989EF2B49F020E048
:104D100030E040E050E060E070E080E090E404C00B
:104D20009101A201B301C401510162017301840127
:104D30000E945A3EEA89FB897F010027F7FC009513
:104D4000102F0E94411E19012A013B014C01F981DB
:104D5000F064F9832A813B814C815D816E817F8182
:104D60008885998151016201730184010E946F3E1F
:104D70002D843E84E1E02E1A310879018A019B01DD
:104D8000AC01B1018C890E9485241DC00D892B2F97
:104D90003F2F4E2F59856A857B858C859F850E9484
:104DA000F61FB22FF32FE42F59876A877B878C87F2
:104DB0009F8701C01F862B2F3F2F4E2F59856A8555
:104DC0007B858C859F8565960FB6F894DEBF0FBEF8
:104DD000CDBFDF91CF911F910F91FF90EF90DF90AA
:104DE000CF90BF90AF909F908F907F906F905F908B
:104DF0004F903F902F9008956F927F928F929F9245
:104E0000AF92BF92CF92DF92EF92FF920F931F93D8
:104E1000CF93DF93722E932ED42FC52FB62FA72FAB
:104E2000F82FE92F602E0FE30E943E3E822E95015F
:104E3000A601B701862D912F0E943E3E062D8212BB
:104E40000BC0272D392D4D2F5C2F6B2F7A2F8F2FD5
:104E50009E2F0E94DC220AC0272D392D4D2F5C2F5A
:104E60006B2F7A2F8F2F9E2F0E944325DF91CF919A
:104E70001F910F91FF90EF90DF90CF90BF90AF9078
:104E80009F908F907F906F9008952F923F924F92B6
:104E90005F926F927F928F929F92AF92BF92CF92CA
:104EA000DF92EF92FF920F931F93CF93DF93CDB7D3
:104EB000DEB7EE970FB6F894DEBF0FBECDBF190177
:104EC0002A013B01F82F9DA7EF2DB02F04E30E948C
:104ED0003E3E2B873C878B849C8407E090222B8E60
:104EE0003BA24CA25DA26EA27FA22F2F2F702B8B14
:104EF00018A69501A6016E2D7F2D8B2F912F04E30F
:104F00000E943E3E2B873C874D875E876F87788B5C
:104F1000898B9A8B4B855C8557705C874B87AEA6D7
:104F2000BFA6C8AAD9AAE9A6FAAA5B2F5F70F52E78
:104F30001CAA9501A6016E2D7E2F8B2F912F0FE3BA
:104F40000E943E3E2DAB9101A201B3018F2F9DA582
:104F50000E943E3E6DA962276DAB7FEF871677E01A
:104F60009706E1F49101A201B3018B8990E0A0E0E2
:104F70000E94813E09F06CC28B859C858F3F9740D3
:104F800009F07CC29501A6016E2D7E2F8F2D90E039
:104F9000A0E00E94813E09F05BC264C22B853C8583
:104FA0002F3F374061F49501A6016E2D7E2F8F2D86
:104FB00090E0A0E00E94813E09F04AC26DC26B857C
:104FC0007C85672B09F042C09501A6016E2D7E2FCE
:104FD0008F2D90E0A0E00E94813EC9F4992D990F99
:104FE000990B222D2829332D3929492F4429592F4E
:104FF0005529692F6629792F77298B89892B0E945A
:10500000813E09F42FC288E00E94F01F37C20EA52E
:105010001FA528A939A949A55AA96F2D70E0CE016D
:1050200001960E94081EE980FA80FC86EB86FB80D0
:10503000FEA60C810FA71D8118AB2E8129AB3F81E5
:1050400039A748854AABF9845A855CAB8114910431
:1050500029F59101A201B3018B8990E0A0E00E94A3
:10506000813E09F419C281019201A301682F70E009
:10507000CE0101960E94081E89809A806B816B8FF9
:105080007C817BA38D818CA39E819DA3AF81AEA3E8
:10509000B885BFA3E984EB8A0A8508A7F4012B85AC
:1050A0003C85E21BF30BAB89A061BF2DB0612B8D5A
:1050B0003BA14CA15DA16EA17FA18A2F98A5AEA4B2
:1050C000BFA4C8A8D9A8E9A4FAA80B2F1CA90E94BC
:1050D000783E48F4AF0143505C4F5FAB4EAB4CA100
:1050E0005DA10BE00EC0BF0162507C4F7FAB6EAB89
:1050F0002B8D3BA14CA15DA16EA17FA18A2F98A50C
:105100000AE00E94233E2BA33CA34DA35EA36FA302
:1051100078A78DA79BAB2EA53FA548A959A969A53E
:105120007AA98B2F9CA90BE00E94233E19012A012A
:1051300000E20E943E3E2EA73FA748AB59AB6AABA8
:105140007CAB88AF99AFB901CA010E94A71B62501E
:105150007109810991097B018C0120E030E0A901EE
:105160006B8BFC8A0D8B1E8B2F8B388F498F5A8F40
:105170002BA13CA14DA15EA16FA178A58DA59BA9F6
:1051800000E20E943E3E59016A017B018C012B899D
:105190003C894D895E8960E070E080E090E00E948B
:1051A000C83C00E20E943E3E2B873C874D875E87CD
:1051B0006F87788B898B9A8B0B851C852D853E8517
:1051C000000F111F221F331F09A71AA72BA73CA7E7
:1051D00094E056944794379427949A95D1F7A9016F
:1051E000980160E070E0CB012B8F3C8F4D8F5E8F7C
:1051F0006F8F78A389A39AA3AEA4BFA4C8A8D9A887
:10520000EAA8FCA808AD19AD60E070E080E090E08D
:105210000E94C83C59016A017B018C012BA13CA171
:105220004DA15EA16FA178A58DA59BA90E946F3E9F
:105230000CE10E94233E89013A014B017C0169A5E2
:105240007AA58BA59CA5A20191010E94213D59013F
:105250006A01FB01DC019801A301B401C7017F01D0
:105260008D010E946F3E29A73DA74BAB5AAF6BAF94
:105270007CAF8DAF9EAF00E20E943E3EAB88BC8803
:10528000CD88DE88E12CF12C00E010E00E94C83CC3
:1052900000E20E943E3E49015A01C501B4016C5F23
:1052A0007F4F8F4F9F4F6B8B7C8B8D8B9E8B4B01DA
:1052B0005C019B01A50160E070E080E090E004E00B
:1052C0000E94233E39014A01B62FA72FF82FE92F5C
:1052D0002B853C854D855E856F85788989899A897E
:1052E00000E20E94233E59016A017B018C01930177
:1052F000A4016B2F7A2F8F2F9E2F0E945A3E2B874F
:105300003B8F4BA35CA36DA37EA38FA398A73170A3
:1053100040E050E060E070E080E090E0AFE30E94A9
:10532000813E11F008F086C0722F70787B876B8801
:105330007C888D889E8888EF6822660C771C881C84
:10534000991C8401730120E030E0A9016B8AFC8A7A
:105350000D8B1E8B2F8B388F498F5A8FAEA4BFA415
:10536000C8A8D9A8EAA8FCA808AD19AD2B893C8922
:105370004D895E8970E080E00E94C83C59016A0155
:105380007B018C0129A53DA54BA95AAD6BAD7CAD28
:105390008DAD9EAD0E946F3E0CE10E94233E5901EF
:1053A0006A017B018C01C401B301A20191010E9439
:1053B000213D39014A01B62FA72FF82FE92F95017A
:1053C000A601B701C80153016401EB2EFA2E0F2F7D
:1053D0001E2F0E946F3ED22EE32EF42E052F162F85
:1053E000B72FF82FE92FA0E00E94813EA4F42B856F
:1053F0003B8D4BA15CA16DA17EA18FA198A5A0E8DA
:105400000E94633E2B873B8F4BA35CA36DA37EA3BF
:105410008FA398A70FC02D2D3E2D4F2D502F612FFC
:105420007B2F8F2F9E2FA0E00E94813E19F00B85CD
:1054300001600B87EB84FB8C0BA11CA12DA13EA16D
:105440004FA158A56EA97FA98DA90E9466212FC0E2
:10545000FE2E0B2F9101A201B3018F2F9DA50E945B
:10546000F61F25C080E10E94F01F20E030E040E000
:1054700050E060E070E088EF9FEF19C02DA930E0A8
:1054800040E050E060E070E080E090E00FE30E94D8
:10549000233E805190480BC02DA930E040E050E001
:1054A00060E070E080E090E00FE30E94233EEE9623
:1054B0000FB6F894DEBF0FBECDBFDF91CF911F9125
:1054C0000F91FF90EF90DF90CF90BF90AF909F90A3
:1054D0008F907F906F905F904F903F902F900895A6
:1054E0002F923F924F925F926F927F928F929F92F4
:1054F000AF92BF92CF92DF92EF92FF920F931F93E2
:10550000CF93DF9300D000D01F92CDB7DEB7A62F88
:10551000FC013A2C5B2C7C2C9D2CBE2D0E94783EED
:1055200099F023293529472959296B2F6A2B7F297F
:10553000912F9F2B11E0802F8E2B9F77A0E00E9450
:10554000813E19F010E001C011E0812F0F900F9003
:105550000F900F900F90DF91CF911F910F91FF90BF
:10556000EF90DF90CF90BF90AF909F908F907F9003
:105570006F905F904F903F902F9008952F923F92A1
:105580004F925F926F927F928F929F92AF92BF9253
:10559000CF92DF92EF92FF920F931F93CF93DF93FF
:1055A000CDB7DEB728970FB6F894DEBF0FBECDBFDC
:1055B000322E432E542E652E762E872E982E9887C7
:1055C000AD82DE82EF82F9820A830FE30E943E3EC3
:1055D000E22F2A2D3B2D4C2D5D2DB7018A81912F75
:1055E0000E943E3EE217C9F0EE2371F12A2D2329D5
:1055F000342D3B29452D4C295D2D56296E2D6729CB
:105600007F2D78299885912B8A8189299F77A0E021
:105610000E94813EC9F081E018C0232D342D452D14
:10562000562D672D782D892D9885AD80DE80EF80F1
:10563000F9800A810E94783E39F0F1E00E94783EBC
:1056400008F0F0E0EF13E7CF80E028960FB6F8946B
:10565000DEBF0FBECDBFDF91CF911F910F91FF90A5
:10566000EF90DF90CF90BF90AF909F908F907F9002
:105670006F905F904F903F902F9008952F923F92A0
:105680004F925F926F927F928F929F92AF92BF9252
:10569000CF92DF92EF92FF920F931F93CF93DF93FE
:1056A000CDB7DEB7E4970FB6F894DEBF0FBECDBF1F
:1056B000622E832E942EB52FF62FE72F8AA79CA754
:1056C0000BA704E30E943E3E2B8F3C8F4B8C5C8CDF
:1056D00087E058226CA28DA29EA2BFA3F8A7E9A7DB
:1056E000AAA5AF70ABA31DA69501A601B7018BA516
:1056F000912F0E943E3E2B8F3C8F4D8F5E8F6F8F80
:1057000078A389A39AA32B8C3C8C87E03822AEA681
:10571000BFA6C8AAD9AAEAAAFBAAABA5AF70AB8F4D
:105720001CAA9501A601B7018BA5912F0FE30E943A
:105730003E3E722E262D382D492D5B2F6F2F7E2F4A
:105740008AA59CA50E943E3E72268FEF481687E0F0
:10575000580661F5262D382D492D5B2F6F2F7E2F92
:105760008BA190E0A0E00E94813E09F02FC1AFEF35
:105770002A16A7E03A0649F49501A601B7018B8DD8
:10578000A0E00E94813E09F021C1932D990F990B51
:105790002A2D22293B2D3329492F4C29592F5D29A8
:1057A000692F6E29792F7F298B8D1FC08FEF2816C7
:1057B00087E0380661F59501A601B7018B8D90E071
:1057C000A0E00E94813E09F001C1952D990F990B2F
:1057D000262D2429382D3529492F4929592F5B2B6E
:1057E000692F6F2B792F7E2B8BA1892BA0E00E9434
:1057F000813E09F0F7C080E10E94F01F20E030E018
:1058000040E050E060E070E088EF9FEF04C1411499
:10581000510441F52CA13DA14EA15FA168A579A538
:105820008BA190E0A0E00E94813E09F4E9C08901CB
:105830009A01AB01682F70E0CE0141960E94081ECC
:1058400049885A88AB89ACA3BC89BDA38D898EA336
:10585000AE89AFA3BF89B8A7888D89A7A98DABA34F
:10586000BA8DBDA72114310429F59501A601B70110
:105870008B8D90E0A0E00E94813E09F4C1C08501BB
:105880009601A701682F70E0CE0141960E94081E84
:1058900029883A888B898EA7AC89AFA7BD89B8AB18
:1058A0008E8989ABAF89AAABB88DBBAB898D8B8F45
:1058B000AA8DACAB240C351C2EA53FA548A959A92F
:1058C0006AA97BA98B8D80619CA90BE00E94233E75
:1058D00059016A017B01E82F192F2CA13DA14EA18E
:1058E0005FA168A579A58BA180619DA50AE00E94B2
:1058F000233EDE0111964D010E2F0E94BD1C8980B2
:105900009A80AB80BC809401A50160E070E080E0EB
:1059100090E000E20E94233E79018A01A62EA72F83
:10592000F82FE92F4D815E816F8178859A01AB0157
:10593000E22AF32A042B152BBA2CCA2EDF2E9E2E18
:1059400049855A856B857C85452B462B472B41F431
:105950004D855E856F857889452B462B472B39F021
:10596000BE2DB160EB2EBA2CCA2EDF2E9E2E9701D3
:10597000A8016A2D7A2F8F2F9E2F2F3F3F4F4F4F19
:105980005F4F6F4F7F4F8F4F9F4331F028F08FEF66
:10599000281A83E0380A11C0B4E03B1A9701A80125
:1059A0006A2D7A2F8F2F9E2F01E00E94233E7901CE
:1059B0008A01B62EC72ED82E992E2B2D3C2D4D2D7B
:1059C000592DB101872D0E94662125C00BA5262DDA
:1059D000382D492D5B2F6F2F7E2F8AA59CA50E9405
:1059E000F61F19C0272D30E040E050E060E070E085
:1059F00080E090E00FE30E94233E805190480BC06E
:105A0000272D30E040E050E060E070E080E090E082
:105A10000FE30E94233EE4960FB6F894DEBF0FBE5C
:105A2000CDBFDF91CF911F910F91FF90EF90DF904D
:105A3000CF90BF90AF909F908F907F906F905F902E
:105A40004F903F902F9008952F923F924F925F92E8
:105A50006F927F928F929F92AF92BF92CF92DF927E
:105A6000EF92FF920F931F93CF93DF93CDB7DEB7E3
:105A70002F970FB6F894DEBF0FBECDBF2F873D879F
:105A80004E87F52FE62F79838A839B83102FBE2DB7
:105A900004E30E943E3E790187E0F822AFEFEA1668
:105AA000A3E0FA060CF076C02F853D854E855F2F6A
:105AB0006E2F79818A819B819F77A0E00E94813E31
:105AC00049F42F853D854E855F2F6E2F79818A8120
:105AD0009B816AC1BB2329F08091980481608093E7
