:100000000C9465000C9403040C948D000C948D00EA
:100010000C948D000C948D000C948D000C948D002C
:100020000C948D000C948D000C948D000C948D001C
:100030000C948D000C948D000C948D000C948D000C
:100040000C9447390C948D000C948D000C948D0009
:100050000C948D000C948D000C948D000C948D00EC
:100060000C948D000C948D0000000008000201002B
:100070000003040700000000000000000102040863
:100080001020408001020408102001020408102002
:10009000040404040404040402020202020203032E
:1000A00003030303000000002300260029000000D2
:1000B0000000250028002B0000000000240027007D
:1000C0002A000E0432391604433911241FBECFEF23
:1000D000D8E0DEBFCDBF12E0A0E0B1E0EAE9FBE787
:1000E00002C005900D92AC3CB107D9F724E0ACEC0E
:1000F000B2E001C01D92A537B207E1F710E0C6ECEF
:10010000D0E004C02297FE010E94B53DC23CD10759
:10011000C9F70E949C3B0C94C03D0C940000FF92D8
:100120000F931F93CF93DF938C01F62EFC018581F3
:100130000E94BC3AC0E0D0E0F801EC0FFD1F6F2D2B
:1001400080850E94BC3A2196C430D105A9F7DF9181
:10015000CF911F910F91FF900895CF93DF93EC0102
:1001600060E08F810E94F53A81E090E00E94EE39D4
:1001700061E08F810E94F53A81E090E00E94EE39C3
:1001800060E08F810E94F53A84E690E0DF91CF91A4
:100190000C94EE39EF92FF920F931F93CF93DF935E
:1001A0008C01C0E0D0E0E62EF12CB7010C2E02C08D
:1001B000759567950A94E2F76170F801EC0FFD1FE1
:1001C00080850E94F53A2196C430D10571F7C801A7
:1001D000DF91CF911F910F91FF90EF900C94AD00A4
:1001E0001F93CF93DF93EC01162F642F8D810E9414
:1001F000F53A612F70E084E0759567958A95E1F78F
:10020000CE010E94CA00612FCE01DF91CF911F91D4
:100210000C94CA0040E00C94F00061E00E940A01D6
:1002200080ED97E00C94EE3962E00E940A0180EDC7
:1002300097E00C94EE39443008F043E0FC01248947
:10024000421710F04FEF420FFC01E40FF11D25891A
:10025000260F2068622F0C940A01FC016189262F69
:100260002460218B6C600C940A01FC0161896D7F14
:10027000618B68600C940A01FC016189262F226061
:10028000218B6A600C940A01FC0161896E7F618B8D
:1002900068600C940A01FC016189262F2160218B82
:1002A00069600C940A01CF92DF92EF92FF920F9354
:1002B0001F93CF93DF9300D0CDB7DEB78C0167706B
:1002C00088E0689FB00111246064C80149835A83A3
:1002D0000E940A014981C42E5A81D52EE12CF12CAD
:1002E000D6016D916D01D801ED91FC910190F081E5
:1002F000E02DC8010995BFEFEB1AFB0AE8E0EE1606
:10030000F10471F70F900F90DF91CF911F910F9132
:10031000FF90EF90DF90CF90089541E00E94F000B1
:1003200081E090E00895CF93DF93EC01423018F024
:1003300088898860888B4C8B1D8A80E48E8B61E075
:10034000CE010E948F0061E08F810E94BC3A80E55F
:1003500093EC0E94EE3960E08D810E94F53A60E0F6
:100360008F810E94F53A63E0CE010E94CA0084E9C1
:1003700091E10E94EE3963E0CE010E94CA0084E957
:1003800091E10E94EE3963E0CE010E94CA0086E945
:1003900090E00E94EE3962E0CE010E94CA006889B6
:1003A0006062CE010E940A0184E0898BCE010E9426
:1003B0002D01CE01DF91CF910C940D01FC01138230
:1003C000128284E191E09183808388E0858389E0D3
:1003D0008783148284E0808785E0818786E0828736
:1003E00087E08387108A20E041E060E1CF010C9430
:1003F000930120E042E060E10C949301CF93DF93FE
:10040000EC010E94DE018DE291E099838883CE01A8
:10041000DF91CF910C94F9011F93CF93DF93EC01FF
:10042000162F81E01827412F61E0CE010E941B01A9
:1004300068E171E0CE010E94923B412F61E0CE0164
:10044000DF91CF911F910C941B010F931F93CF93BA
:10045000DF93EC018B01642F0E940C02B801CE01E6
:10046000DF91CF911F910F910C94923B40E00C943F
:100470002502DF92EF92FF920F931F93CF93DF93AA
:10048000C5E5D1E061E089910E94F53A81E0CA3585
:10049000D807C1F7C5E5D1E0E12CD99060E08D2DFA
:1004A0000E94F53A0AE511E0F12CF80181918F01E3
:1004B0000E942B3B892B31F48F2D880F880F8F0DD5
:1004C0008E0D0DC0F394F7E0FF12EFCF61E08D2D9C
:1004D0000E94F53AE39485E0E812DFCF8FEFDF91D9
:1004E000CF911F910F91FF90EF90DF900895CF92E1
:1004F000DF92EF92FF920F931F93CF93DF939C01B4
:1005000065E070E00E94AC3B7B016C0137FD22C0CE
:1005100005E511E0C0E0D0E0F80181918F0161E0D4
:10052000CC15DD0509F460E00E94F53A2196C5304E
:10053000D10591F7F701E65AFE4FC0818C2F0E943A
:100540002B3B892B39F46AE070E080E090E00E9458
:10055000B439F4CFDF91CF911F910F91FF90EF90BD
:10056000DF90CF9008950F931F93CF93DF93CDB774
:10057000DEB728970FB6F894DEBF0FBECDBF88E078
:10058000E8E0F1E0DE01119601900D928A95E1F725
:100590008BE194E00E940D01AE014F5F5F4F67E079
:1005A0008BE194E00E9453018BE194E00E944B01A7
:1005B0006BE174E080ED92E00E949E0761E08AE0CA
:1005C0000E94BC3A64E670E08AE00E94343A0AE590
:1005D00011E062E0F80181918F010E94BC3AF1E0E4
:1005E00001361F07B1F764E670E080E090E00E94FA
:1005F000B4390E9439028EE190E00E947702109295
:10060000CF021092CE0228960FB6F894DEBF0FBE2E
:10061000CDBFDF91CF911F910F91089560E088E0E9
:100620000E94F53A61E087E00E94F53A61E086E0D9
:100630000E94F53A61E085E00E94F53A61E084E0CD
:100640000E94F53A83B7817F846083BFF894EAE71C
:10065000F0E080818F7780831092690081E08DBB0C
:100660008FE380937E0083E080937F0083B7816077
:1006700083BF85B7806685BF8F7D85BF7894889559
:1006800083B78E7F83BF10927F0010927E00089503
:100690001F93CF93DF93CDB7DEB76E970FB6F89465
:1006A000DEBF0FBECDBF0E943902182F8091CC0251
:1006B00017FD19C0E12FFF27E7FDF095DF01AF5CC3
:1006C000BE4F6C9140811092CF021092CE026F3FCC
:1006D00051F0882319F01092CC023CC080ED92E0DA
:1006E0000E94E60F37C08823A9F18BE194E00E94B5
:1006F00014016AE070E0CE010B960E9478106091C0
:10070000CE027091CF02CE0145960E947810BE01B4
:100710006B5E7F4FCE0101960E94B810BE01655FEF
:100720007F4FCE0101960E949211CE0101960E9448
:100730003F18BC018BE194E00E94923BCE010196F0
:100740000E942811CE0145960E942811CE010B96D9
:100750000E9428118091CC02811136C08091CD0277
:10076000811107C02091CE023091CF022D3231404D
:100770005CF168E08BE194E00E940A0160E070E0C7
:100780008AE00E94343A82E00E942B3B892B39F4A4
:1007900064E670E080E090E00E94B439F4CF0E94FB
:1007A0000E0364E670E080E090E00E94B43910929D
:1007B000CF021092CE0281E08093CD024EE261E240
:1007C00080ED92E00E94E60F812F992787FD90959A
:1007D0000E9477028091CE029091CF020196909371
:1007E000CF028093CE026BE570E080E090E00E9443
:1007F000B4396E960FB6F894DEBF0FBECDBFDF9151
:10080000CF911F9108951F920F920FB60F9211244E
:100810001DBA0F900FBE0F901F9018958BE194E0BA
:100820000E94FE0180ED92E00C94C206CF93DF930C
:100830008CE094E00E94281188E093E0892BD1F4A9
:100840008CEF92E00E94281184ED92E0892BE9F070
:1008500082EF92E00E94281188EE92E00E94281117
:100860008EED92E00E94281184ED92E0DF91CF910D
:100870000C942811CCE0D4E02A97CE010E942811D4
:1008800083E0C830D807C1F7DBCFDF91CF9108955F
:10089000FF920F931F93CF93DF93CDB7DEB764978B
:1008A0000FB6F894DEBF0FBECDBF8C01F62ECE0181
:1008B0000B960E944F10F80187A980FD31C0982F38
:1008C000916097AB9DE290933D04EEE3F4E01192CA
:1008D00024E0EF34F207D9F785FD09C060E0F801A4
:1008E000808191810E940C02C8010E94340781E03E
:1008F00080933C0410923B0410923A041092390405
:10090000109238041092370410923604F801808156
:1009100091810E943C01F801808191810E944B01EC
:10092000F9E3FF15D4F020E3F216DCF53DE0F31611
:1009300009F46EC13F1544F0FF2009F4FCC148E002
:10094000F41609F425C1C5C181E2F81609F4B7C14E
:100950009EE2F91609F4B0C0BCC1EFE5FE1609F439
:100960005FC0EF154CF0FFE3FF1609F494C125E4D6
:10097000F21609F4D3C0ADC131E6F3160CF4A9C1E7
:1009800046E64F152CF48FE7F81609F401C1A1C112
:10099000F801E95BFE4F8081882309F49AC190EE4B
:1009A000F90E809137048823D9F0209138043091D2
:1009B00039044AE0429FC001439F900D11242F2D1E
:1009C000332727FD309520533109820F931F83333E
:1009D000E1E09E070CF0AFC1909339048093380496
:1009E000E0913C0481E08E0F80933C04FF27E7FDFB
:1009F000F095E35CFB4FF0826F2DF80180819181CF
:100A00000E94943BF80187A985FF95C180913C0421
:100A100083300CF0FDC0F1E3FF150CF4F9C08BC17D
:100A200080913704882379F12091360481E02827CA
:100A30002093360480913504992787FD9095835C37
:100A40009B4FE0E0DC01AE0FB11DE7FDBA953C9194
:100A5000332371F0EF5F3730A9F7FF27E7FDF095FB
:100A6000211179C1E80FF91F80818D3209F47BC112
:100A700090913C04222311F081E001C08FEF890F97
:100A800080933C0406C080913B0491E089278093C9
:100A90003B0460E0F801808191810E940C0260912A
:100AA0003B0481E0682770E0635C7B4FF801808144
:100AB00091810E94923B3FC180913A0481112AC0EA
:100AC00080913C0482309CF460E3F8018081918144
:100AD0000E94943BE0913C0481E08E0F80933C04A3
:100AE000FF27E7FDF095E35CFB4F80E38083E09117
:100AF0003C0481E08E0F80933C04FF27E7FDF095D6
:100B0000E35CFB4F8EE280836EE2F801808191818D
:100B10000E94943B81E080933A040DC18091370498
:100B200081112CC080913C04813099F461E3F8017B
:100B3000808191810E94943BE0913C0481E08E0F82
:100B400080933C04FF27E7FDF095E35CFB4F81E3D6
:100B50008083E0913C04E093350481E08E0F809324
:100B60003C04FF27E7FDF095E35CFB4F87E08083C3
:100B700067E0F801808191810E94943B81E080933D
:100B80003704109239041092380410923604D3C0FE
:100B900020913C04215020933C04E22FFF27E7FDE5
:100BA000F095E35CFB4F80818E3219F410923A0489
:100BB00004C0853611F410923704909137049923BC
:100BC00021F08D3211F41092360480913804909106
:100BD00039046AE070E00E94AC3B70933904609382
:100BE0003804108222300CF46AC060E0F801808181
:100BF00091810E940C0260913B0481E0682770E0C3
:100C0000635C7B4FF801808191810E94360293C022
:100C1000E0913C04FF27E7FDF095E35CFB4F108279
:100C200060913B0481E0682770E0635C7B4F40E0AB
:100C300050E0CE0101960E946618BE016F5F7F4FA3
:100C4000CE010B960E94E110CE0101960E94281160
:100C5000F80187A985FF0AC0CE010B960E94C71232
:100C6000B901C8018C960E9420140FC0F80186A912
:100C700098014AE0849F200D311D1124C901BE0155
:100C8000655F7F4F04960E94E110F80117AAC80122
:100C90000E94980750C0F80187A992E0892787AB86
:100CA000C8010E94340760913C0480913B04680FA6
:100CB00041E0F801808191810E941B013CC0B80194
:100CC000CE0101960E94FF07CE0101960E942811D5
:100CD000DCCFF80187A98E7F87ABE0913C04FF272A
:100CE000E7FDF095E35CFB4F108280913B0491E0BF
:100CF0008927682F70E0635C7B4F40E050E0CE01B5
:100D000001960E946618F80186A998014AE0849F1E
:100D1000200D311D1124C901BE016F5F7F4F049664
:100D20000E94E110CE0101960E9428114EE26F2D23
:100D3000C8010E94E60FCE010B960E94281164960E
:100D40000FB6F894DEBF0FBECDBFDF91CF911F91DC
:100D50000F91FF900895E80FF91F80818D3209F4FB
:100D600087CE8DE207C08081882309F481CE8181FE
:100D70008193F9CF90818927982791938927D1F77B
:100D8000108276CEAF92BF92CF92DF92EF92FF9217
:100D90000F931F93CF93DF93CDB7DEB72A970FB68C
:100DA000F894DEBF0FBECDBF8C017C0184E0E80E5D
:100DB000F11C6801ECE2CE0ED11CC7010E944F105D
:100DC000FAE0EF0EF11CEC14FD04B9F7C6010E9425
:100DD0004F10780188E3E80EF11C5801E4ECAE1ADC
:100DE000EEEFBE0AC7010E944F10FAE0EF0EF11CB1
:100DF000EA14FB04B9F7C7010E944F10F80117AAC3
:100E000060E070E0CE0101960E947810BE016F5F35
:100E10007F4FC6010E94E110CE0101960E94281169
:100E2000F801EA5BFE4F81E0808331961082F80181
:100E300016AAE85BFE4F10823296808384E690E02B
:100E4000F801938382832A960FB6F894DEBF0FBE13
:100E5000CDBFDF91CF911F910F91FF90EF90DF9069
:100E6000CF90BF90AF900895CF93DF93EC0188812E
:100E700099810E941401FE01E95BFE4F808181117E
:100E800006C031978081882321F060E203C068E7C3
:100E900001C062E7888199810E94943B41E060E053
:100EA000888199810E941B018FA981FF02C06EE594
:100EB00001C060E288819981DF91CF910C94943BCD
:100EC0001F93CF93DF93EC01888199810E943501B4
:100ED000888199810E944401CE010E9434072EA985
:100EE00030E02F5F3F4F237033271AE0129FC0017D
:100EF000139F900D112404968C0F9D1F0E943F1884
:100F000041E0BC01888199810E9425028EA99E0141
:100F1000189F200D311D1124C90104960E943F180D
:100F2000BC0188819981DF91CF911F910C94360289
:100F3000FC0127A920FF0C94600708950F931F93CD
:100F4000CF93DF93CDB7DEB764970FB6F894DEBFCB
:100F50000FBECDBF8C01FC01718360836AE570E038
:100F6000CE010B960E947810BE01655F7F4FCE01C7
:100F700001960E94B81062E674E0CE0101960E94CC
:100F80009211BE016F5F7F4FC801845C9E4F0E942B
:100F9000E110CE0101960E942811CE010B960E940D
:100FA0002811C8010E94980764960FB6F894DEBF16
:100FB0000FBECDBFDF91CF911F910F910895FC011E
:100FC00046A94D5F437046AB50E09A012F5F3F4FFB
:100FD00023703327EAE0E29FB001E39F700D1124F4
:100FE0006C5F7F4F680F791FE49F9001E59F300D84
:100FF00011242C5F3F4F820F931F0C94E110EF924E
:10100000FF920F931F93CF93DF93CDB7DEB72A974D
:101010000FB6F894DEBF0FBECDBF7C018B01FB0184
:1010200086A98F5F837086AB60E070E0CE01019689
:101030000E947810F80126A930E02D5F3F4F237001
:1010400033278AE0829FA001839F500D11244C5FBB
:101050005F4FBE016F5F7F4FC801840F951F0E94D5
:10106000E110CE0101960E942811B801645D7F4F06
:10107000C7010E94B810C7012A960FB6F894DEBFC8
:101080000FBECDBFDF91CF911F910F91FF90EF90D9
:101090000895FF920F931F93CF93DF93CDB7DEB7E1
:1010A0002A970FB6F894DEBF0FBECDBF8C01FC01AE
:1010B00086A990E00196837099272AE0F22EF89E87
:1010C000B001F99E700D11246C5F7F4F600F711F8E
:1010D000CE0101960E94B810F80126A930E0F29ED8
:1010E000B001F39E700D11246C5F7F4F600F711F74
:1010F0002F5F3F4F23703327F29EC001F39E900D68
:1011000011240496800F911F0E94E110F80186A916
:101110009801F89E200D311D1124C901BE016F5F99
:101120007F4F04960E94E110CE0101960E94281183
:101130002A960FB6F894DEBF0FBECDBFDF91CF91D8
:101140001F910F91FF900895CF93DF93EC01888159
:1011500099810E940D0141E061E671E088819981E9
:10116000DF91CF910C942502BF92CF92DF92EF9244
:10117000FF920F931F93CF93DF93CDB7DEB7C65483
:10118000D1090FB6F894DEBF0FBECDBF7C01B62EDD
:101190006C012CE2C20ED11CB601CE01CD960E948C
:1011A000B81005E115E525EB3BEB41EB5BE662E0B2
:1011B00070E4CE01C3960E94A610F70197A9FFE341
:1011C000BF1609F46AC293FD10C0C7010E94A408AB
:1011D000F70186A9B701FAE08F9F600D711D1124F8
:1011E0006C5F7F4FC6010E94E11028E5B21609F43A
:1011F0008BC22B150CF44BC03EE2B31609F4BBC0F6
:101200003B158CF141E2B41609F469C24B155CF050
:1012100088E0B81609F423C29DE0B9128CC2C70158
:101220000E94DF0788C2EBE2BE1609F4CFC0FDE2E0
:10123000BF1609F4E0C02AE2B2127DC2B701CE01A6
:1012400001960E94FF07F70186A997014AE0849F53
:10125000200D311D1124C901BE016F5F7F4F04961F
:101260000E94C411DCC039E33B152CF040E3B416F6
:101270000CF4DAC080C082E5B81609F424C293E504
:10128000B91609F415C2E5E4BE1255C274C0F5E6FC
:10129000BF1609F44BC1FB150CF450C021E6B21681
:1012A00009F4D7C02B156CF13CE5B31609F4D7C18E
:1012B0004FE5B41240C2F70186A93AE0D32E870168
:1012C000D89E000D111D11240C5F1F4F6FEF7FEF93
:1012D000CE0101960E947810BE016F5F7F4FC8015A
:1012E0000E94C411CE0101960E942811F70186A91F
:1012F0009701D89E200D311D1124C901B801049613
:10130000D4C1F70186A9F3E6BF1609F4EFC0FB15B7
:101310000CF4C4C01AE0B701189F600D711D1124B0
:101320006C5F7F4FCE010B960E94B810BE01655FC7
:101330007F4FCE0101960E94EF34C3C028E6B2165B
:1013400009F436C12B155CF036E6B31609F42AC150
:1013500047E6B412F0C1C7010E944908ECC18AE611
:10136000B81609F45FC1B8160CF43FC19FE7B9166F
:1013700009F475C1E0C1F70187A9847219F4C701A6
:101380000E94DF07F70126A930E02F5F3F4F23704F
:1013900033274AE0429FC001439F900D11240496D9
:1013A0008E0D9F1D0E943F1841E0BC01F701808116
:1013B00091810E94250260E0F701808191810E9465
:1013C0000C026B2DC7010E944804B8C1B701CE01C1
:1013D00001960E94FF07F70186A997014AE0849FC2
:1013E000200D311D1124C901BE016F5F7F4F04968E
:1013F0000E942E1114C0B701CE0101960E94FF0772
:10140000F70186A997014AE0849F200D311D112420
:10141000C901BE016F5F7F4F04960E946011CE012B
:1014200001960E94281187C1B701CE0101960E9442
:10143000FF07F70186A997014AE0849F200D311D1F
:101440001124C901BE016F5F7F4F04960E94921163
:10145000E6CFF70186A94AE0D42E8701D89E000D79
:10146000111D11240C5F1F4F61E070E0CE010B963F
:101470000E947810BE01655F7F4FCE0101960E94E9
:10148000B810B801CE0101960E949211F70186A909
:101490009701D89E200D311D11241AC01AE0B70102
:1014A000189F600D711D11246C5F7F4FCE010B964C
:1014B0000E94B810BE01655F7F4FCE0101960E9469
:1014C0009833F70186A99701189F200D311D11242B
:1014D000C901BE016F5F7F4F04960E94E110CE01EB
:1014E00001960E942811CE010B969BCF1AE0F701BE
:1014F000189FE00DF11D1124CF0104960E94B61231
:10150000811135C1F70126A930E02F5F3F4F2370CD
:101510003327129FC001139F900D112404968E0D46
:101520009F1D0E94B612811178C121C1F70186A9C1
:101530001AE0B701189F600D711D11246C5F7F4F79
:10154000CE0145960E94B810BE016B5E7F4FCE0162
:101550000B960E949833BE01655F7F4FCE010196C6
:101560000E94B810BE016D5C7F4FCE0101960E94B3
:101570009211F70186A99701189F200D311D1124A2
:10158000C901BE016F5F7F4F04960E94E110CE013A
:1015900001960E942811CE010B960E942811CE01BF
:1015A00045963FCFB701CE0101960E94FF0737CF86
:1015B000F70186A91AE0B701189F600D711D11246B
:1015C0006C5F7F4FCE010B960E94B810B701645C30
:1015D0007E4FCE010B960E949211BE01655F7F4F38
:1015E000CE0101960E94AD306CCFF70186A91AE0BA
:1015F000B701189F600D711D11246C5F7F4FCE01E4
:101600000B960E94B810B701645C7E4FCE010B961A
:101610000E949211BE01655F7F4FCE0101960E942C
:10162000F5324FCFF70186A91AE0B701189F600D78
:10163000711D11246C5F7F4FCE010B960E94B81074
:10164000B701645C7E4FCE010B960E949211BE01E1
:10165000655F7F4FCE0101960E94373332CF60E045
:1016600070E0CE0101960E947810F70186A99701DB
:101670004AE0849F200D311D1124C901BE016F5F16
:101680007F4F04960E94E110CE0101960E9428111E
:10169000F70187A9846087AB4EC082E08927F701F4
:1016A00087ABBE01635C7F4FC6010E94E11043C05F
:1016B00066E671E0F701808191810E943602F701B0
:1016C00087A988600AC06AE671E0F701808191818C
:1016D0000E943602F70187A9806187AB2FC08091F5
:1016E000CD0291E089278093CD02811127C06CE063
:1016F000F701808191810E940A01F7016281738163
:101700008AE00E94343A17C0BE01635C7F4FC60175
:101710000E94E110F701E95BFE4F808191E089278B
:101720008083882319F060E170E002C06AE070E015
:10173000C6010E942C14C7010E949807CE01C396CF
:101740000E942811CE01CD960E942811CA5BDF4F5E
:101750000FB6F894DEBF0FBECDBFDF91CF911F91C2
:101760000F91FF90EF90DF90CF90BF900895F70119
:1017700086A990E00196837099271AE0189FB0011E
:10178000199F700D11246C5F7F4F6E0D7F1DCE0170
:101790004F960E94B810BE01615E7F4FCE01459604
:1017A0000E949833B701CE0189960E94FF07BE01BF
:1017B000675D7F4FCE010B960E94B810BE016B5E35
:1017C0007F4FCE010B960E94C411BE01655F7F4F13
:1017D000CE0101960E94DE31F70186A99701189F7C
:1017E000200D311D1124C901BE016F5F7F4F04968A
:1017F0000E94E110CE0101960E942811CE010B96A5
:101800000E942811CE0189960E942811CE0145968A
:101810000E942811CE014F9604CEB701CE01019649
:101820000E94FF07CE0101960E94281160E070E03F
:10183000CE0101960E947810F70186A99701189FA2
:10184000200D311D1124C901BE016F5F7F4F049629
:101850000E94E110E4CD2F923F924F925F926F92DF
:101860007F928F929F92AF92BF92CF92DF92EF9230
:10187000FF920F931F93CF93DF93CDB7DEB7C2557F
:10188000D1090FB6F894DEBF0FBECDBF4C01162FA5
:101890003C012CE2620E711CB301CE01895B9F4FAB
:1018A0000E94B810113609F4F4C01F3309F4FDC2C8
:1018B000F40187A983FD10C0C4010E94A408F401AB
:1018C00086A9B401FAE08F9F600D711D11246C5F31
:1018D0007F4FC3010E94E1101F3509F4F7C10CF0DE
:1018E00082C01D3209F4C5C2ECF4113209F409C2F8
:1018F00024F41D3009F0ECC2D8C21A3209F4B0C287
:101900001B3209F0E5C26EE671E0F401808191813D
:101910000E94360280E2F40187AB60E0C4010E94BD
:101920004804E8C21A330CF04CC010330CF0BDC2AE
:101930001E3209F4C9C21F3209F0CAC2F40126A935
:1019400030E02F5F3F4F23703327FAE0F29FC00152
:10195000F39F900D11240496880D991D0E94C712C3
:1019600019012A013B0162968FAF629763969FAF80
:101970006397B401CE010B960E94FF07CE010B9630
:101980000E94C71259016A017B018C019101A201D9
:10199000B30162968FAD629763969FAD63970E9485
:1019A0005E3CBA01422F532FCE0101960E94901047
:1019B000F40186A994014AE0489F200D311D1124AD
:1019C00079C2153409F084C2F40186A91AE0B40181
:1019D000189F600D711D11246C5F7F4FCE01019621
:1019E0000E94FF1381C1153609F4F1C05CF512366F
:1019F00009F45EC024F4113609F06AC24AC0F40149
:101A000086A9133609F471C0143609F061C21AE0D0
:101A1000B401189F600D711D11246C5F7F4FCE01C2
:101A20000B960E94B810BE01655F7F4FCE010196F4
:101A30000E94DE31F40186A99401189F200D311D0A
:101A4000112438C2183609F4BBC13CF4163609F427
:101A5000FFC0173609F461C13BC2F40186A91936EB
:101A600009F4C4C11A3609F033C21AE0B401189F50
:101A7000600D711D11246C5F7F4FCE0145960E9451
:101A8000B810BE016B5E7F4FCE010B960E945C3595
:101A9000C0C1C4010E94DF07F40186A994014AE095
:101AA000849F200D311D1124C901B30104961BC26E
:101AB000F40186A95AE0752E8401789E000D111D4F
:101AC00011240C5F1F4FB801CE0101960E94B8107F
:101AD000B801CE0101960E94C411F40186A99401B7
:101AE000789E200D311D112406C190E0019683706F
:101AF00099271AE0189FB001199F700D11246C5F8F
:101B00007F4F680D791DCE014F960E94B810BE011F
:101B1000615E7F4FCE0145960E949833B401CE019D
:101B2000C3960E94FF0761E070E0CE01CD960E944F
:101B30007810BE01635C7F4FCE0189960E94B81079
:101B4000BE016D5C7F4FCE0189960E949211BE014D
:101B5000675D7F4FCE010B960E94B810BE016B5E91
:101B60007F4FCE010B960E94C411BE01655F7F4F6F
:101B7000CE0101960E94DE31F40186A99401189FDE
:101B8000200D311D1124C901BE016F5F7F4F0496E6
:101B90000E94E110CE0101960E942811CE010B9601
:101BA0000E942811CE0189960E942811CE01CD965F
:101BB0000E942811CE01C3960E942811CE0145969D
:101BC0000E942811CE014F960E9428118EC16AE012
:101BD00070E0CE014F960E947810BE01615E7F4F8B
:101BE000CE0145960E949833B401CE0189960E9499
:101BF000FF07BE01675D7F4FCE010B960E94B810B4
:101C0000BE016B5E7F4FCE010B960E94C411BE01D8
:101C1000655F7F4FCE0101960E94DE31F40186A9F7
:101C200094014AE0849F200D311D1124C901BE0199
:101C30006F5F7F4F04960E94E110CE0101960E94D3
:101C40002811CE010B960E942811CE018996B4CF9F
:101C5000C4010E94DF0762E070E0CE010B960E9493
:101C6000781008E11DE224E434E54BEF51E269EF1E
:101C70007FE3CE0145960E94A610BE016B5E7F4FAA
:101C8000CE0101960E94B810BE01655F7F4FCE0164
:101C900001960E94C411F40186A994014AE0849F30
:101CA000200D311D1124C901BE016F5F7F4F0496C5
:101CB0000E94E110CE0101960E942811CE014596A6
:101CC0000E942811CE010B960E942811F40186A9CA
:101CD0001AE0B401189F600D711D11246C5F7F4FD5
:101CE000CE0101960E949713F40186A99401189FD2
:101CF000200D311D1124C901BE016F5F7F4F049675
:101D00005AC063E771E0F401808191810E9436023C
:101D1000F40187A9806487ABEDC0BE01695B7F4F8A
:101D2000C3010E94E110F401EA5BFE4F808191E063
:101D3000892780839401245C3E4F3901882389F1EF
:101D400008E11DE224E434E54BEF51E269EF7FE363
:101D5000CE010B960E94A6106AE570E0CE01459672
:101D60000E947810BE016B5E7F4FCE0101960E94EB
:101D7000B810BE01655F7F4FCE0101960E9492119F
:101D8000BE016F5F7F4FC3010E94E110CE0101963B
:101D90000E942811CE0145960E942811CE010B9673
:101DA00013CF61E070E0CE0101960E947810BE0171
:101DB0006F5F7F4FC3010E94E110CE01019604CFF7
:101DC000F40186A91AE0B401189F600D711D112459
:101DD0006C5F7F4FCE0145960E94B810BE016B5ECE
:101DE0007F4FCE010B960E944A3813C01AE0B4010F
:101DF000189F600D711D11246C5F7F4FCE014596B9
:101E00000E94B810BE016B5E7F4FCE010B960E9400
:101E1000FB38BE01655F7F4FCE0101960E94B8106E
:101E2000B401645C7E4FCE0101960E94C411F4019E
:101E300086A99401189F200D311D1124C901BE01EE
:101E40006F5F7F4F04960E94E110CE0101960E94C1
:101E50002811CE010B960E942811CE014596B4CED2
:101E6000F401E75BFE4F808191E089278083319701
:101E700008C0F401E85BFE4F808191E089278083F0
:101E800031961082F401E75BFE4F4081411107C09B
:101E900031978081811103C06EE070E002C060E084
:101EA00070E0C3010E94251420C0612FC4010E946C
:101EB000B40820C0C901BE016F5F7F4F04960E9425
:101EC000E110CE01019668CF81E08093CC020DC075
:101ED000F40186A9B401FAE08F9F600D711D1124F1
:101EE0006C5F7F4FC3010E94E110F40117AAC40187
:101EF0000E946007CE01895B9F4F0E942811CE5A35
:101F0000DF4F0FB6F894DEBF0FBECDBFDF91CF918C
:101F10001F910F91FF90EF90DF90CF90BF90AF9007
:101F20009F908F907F906F905F904F903F902F90F9
:101F30000895FC0126A9EAE0AC01E29F400D511D85
:101F400011244C5F5F4F772767FD709561567109CB
:101F5000E69F9001E79F300D1124285C3F4FBA01A6
:101F6000820F931F0C94E1100F931F93CF93DF9375
:101F70001F92CDB7DEB78C01FC0187A982FD05C099
:101F8000C80169830E94DF076981F80117AA862FBB
:101F9000992787FD9095815691092AE0289FB001E5
:101FA000299F700D1124685C7F4F600F711F86A9F7
:101FB000A801289F400D511D1124CA0104960F90BD
:101FC000DF91CF911F910F910C94E1100F931F930C
:101FD000CF93DF931F92CDB7DEB78C01FC0187A9A9
:101FE00086FF18C017AA862F992787FD9095C0975E
:101FF0006AE070E00E94AC3B2BE1289FB001299F72
:10200000700D1124645F7F4F738362838AE00E94A6
:10201000343A13C0982F9871C1F04E3251F0642FAA
:1020200083FF04C0C8010E94990F03C0C8010E9429
:10203000B40FF80187A9877E87ABC8010F90DF91A5
:10204000CF911F910F910C94980780FF08C0C80191
:102050000F90DF91CF911F910F910C944804F801DC
:102060008081918169830E943501F801808191818D
:102070000E944401F80187A9698181FF08C0C80155
:102080000F90DF91CF911F910F910C942B0CC801F1
:102090000F90DF91CF911F910F910C94B408CF93C3
:1020A000DF93EC0189E891E09983888360E070E038
:1020B000CB010E94252F2A833B834C835D836E8353
:1020C0007F8388879987DF91CF9108950F931F931E
:1020D000FC0189E891E09183808302831383248348
:1020E000358346835783608771871F910F910895C9
:1020F000CF93DF93EC0189E891E099838883882767
:1021000077FD8095982F0E94252F2A833B834C834F
:102110005D836E837F8388879987DF91CF91089550
:10212000CF93DF93EC0189E891E099838883CB0119
:10213000BA010E94252F2A833B834C835D836E83E3
:102140007F8388879987DF91CF9108950F931F939D
:10215000FC0189E891E091838083028313832483C7
:10216000358346835783608771871F910F91089548
:10217000FC01DB0189E891E091838083E617F70792
:10218000F9F012968C911297828313968C91139783
:10219000838314968C911497848315968C9115974C
:1021A000858316968C911697868317968C91179730
:1021B000878318968C911897808719968C918187C0
:1021C0000895FC01DB0186179707F9F012968C91B0
:1021D0001297828313968C911397838314968C9114
:1021E0001497848315968C911597858316968C91F8
:1021F0001697868317968C911797878318968C91DC
:102200001897808719968C918187CF010895FC01DA
:10221000DB018C91828311968C91119783831296A6
:102220008C911297848313968C91139785831496BF
:102230008C911497868315968C91159787831696A3
:102240008C911697808717968C918187CF0108957E
:1022500029E831E0FC01318320830895AF92BF92D9
:10226000CF92DF92EF92FF920F931F93CF93DF9362
:10227000EC01FB01A280B380C480D580E680F780AA
:10228000008511852A813B814C815D816E817F8132
:10229000888599850E941A262A833B834C835D8317
:1022A0006E837F8388879987CE01DF91CF911F91BD
:1022B0000F91FF90EF90DF90CF90BF90AF90089577
:1022C000AF92BF92CF92DF92EF92FF920F931F9344
:1022D000CF93DF93EC01FB01A280B380C480D58053
:1022E000E680F780008511852A813B814C815D81E4
:1022F0006E817F81888599850E940B2E2A833B837E
:102300004C835D836E837F8388879987CE01DF91BD
:10231000CF911F910F91FF90EF90DF90CF90BF90E2
:10232000AF900895AF92BF92CF92DF92EF92FF925B
:102330000F931F93CF93DF93EC01FB01A280B38037
:10234000C480D580E680F780008511852A813B8195
:102350004C815D816E817F81888599850E9463268D
:102360002A833B834C835D836E837F838887998731
:10237000CE01DF91CF911F910F91FF90EF90DF90F1
:10238000CF90BF90AF900895AF92BF92CF92DF925F
:10239000EF92FF920F931F93CF93DF93EC01FB011A
:1023A000A280B380C480D580E680F7800085118547
:1023B0002A813B814C815D816E817F8188859985F1
:1023C0000E945C2A2A833B834C835D836E837F83D8
:1023D00088879987CE01DF91CF911F910F91FF9050
:1023E000EF90DF90CF90BF90AF900895AF92BF92E3
:1023F000CF92DF92EF92FF920F931F93FC01DB01CC
:102400001296AC9012971396BC9013971496CC909A
:1024100014971596DC9015971696EC9016971796CC
:10242000FC90179718960C91189719961C91228179
:1024300033814481558166817781808591850E94B1
:10244000DC291F910F91FF90EF90DF90CF90BF900C
:10245000AF9008958F929F92AF92BF92CF92DF92EA
:10246000EF92FF920F931F93CF93DF93EC014B01F9
:10247000FB01A280B380C480D580E680F780008510
:1024800011852A813B814C815D816E817F818885A8
:1024900099850E94DC29811116C0F401A280B380C5
:1024A000C480D580E680F780008511852A813B8134
:1024B0004C815D816E817F81888599850E948E29FE
:1024C00091E0982701C090E0892FDF91CF911F9173
:1024D0000F91FF90EF90DF90CF90BF90AF909F90C3
:1024E0008F900895AF92BF92CF92DF92EF92FF92BA
:1024F0000F931F93FC01DB011296AC901297139679
:10250000BC9013971496CC9014971596DC90159761
:102510001696EC9016971796FC90179718960C91B4
:10252000189719961C9122813381448155816681C7
:102530007781808591850E948E291F910F91FF9050
:10254000EF90DF90CF90BF90AF9008950F93FC0174
:10255000228133814481558166817781808591858F
:102560000FE30E94503D822F0F910895FC01B1E0CE
:10257000228133814481558166817781808591856F
:10258000A0E00E94933D09F0B0E08B2F0895EF92F8
:102590000F93FC01228133814481558166817781CB
:1025A000E12C01E0808591850E94542E0F91EF90DF
:1025B00008952F923F924F925F926F927F928F92E7
:1025C0009F92AF92BF92CF92DF92EF92FF920F93C2
:1025D0001F93CF93DF93CDB7DEB727970FB6F8944D
:1025E000DEBF0FBECDBF322E432E542E652E762E6B
:1025F000872E982E9F831A830983ED82CB82212C0C
:102600003C2D330F330B3E83232D342D452D562D7A
:10261000672D782D892D9F81A0E00E94933D09F4BC
:102620003EC0AB80BE80CB2CDB2CEB2CFB2C0B2DCF
:102630001B2D232D342D452D562D672D782D892DBD
:102640009F810E945E3C80E3820F8A3314F087E30F
:10265000820F41E0420D4C83E981FA81E20DF11DC8
:1026600027FCFA958083AB80BE80CB2CDB2CEB2C37
:10267000FB2C0B2D1B2D232D342D452D562D672D79
:10268000782D892D9F810E94603C322E432E542E3E
:10269000652E762E872E982E9F832C80B5CF20E333
:1026A000822D992787FD9095AD81E981FA812A16BF
:1026B0002CF4E80FF91F20832394F2CF20E030E0C0
:1026C0004C01B1E08B1A91083F01680E791EA401FC
:1026D000420F531F66277727621B730B2150310966
:1026E000641775074CF44081B301620F731FDB015F
:1026F0005C9151934C93EBCFF301108227960FB668
:10270000F894DEBF0FBECDBFDF91CF911F910F9127
:10271000FF90EF90DF90CF90BF90AF909F908F9001
:102720007F906F905F904F903F902F9008956F92A1
:102730007F928F929F92AF92BF92CF92DF92EF9251
:10274000FF920F931F93CF93DF93CDB7DEB72897F8
:102750000FB6F894DEBF0FBECDBF3C014B010E9407
:10276000B81060E070E0CB010E94252F59016A018A
:102770007B01F40122813381448155816681778117
:102780008C01808591850E94DC29882311F16FEFEF
:102790007FEFCB010E94252F59016A017B01F401D3
:1027A0002281338144815581668177818C018085C6
:1027B00091850E945C2A29833A834B835C836D83D5
:1027C0007E838F839887BE016F5F7F4FC3010E9416
:1027D0000711C30128960FB6F894DEBF0FBECDBF18
:1027E000DF91CF911F910F91FF90EF90DF90CF90ED
:1027F000BF90AF909F908F907F906F900895EF92D1
:102800000F931F93CF93DF93EC01FB012281338160
:102810004481558166817781E12C01E08085918535
:102820000E94422C89019A01AB01BC01CE010E9499
:102830006610CE01DF91CF911F910F91EF90089517
:1028400070930601609305010895709304016093ED
:10285000030140934F04089560930001772767FDBB
:10286000709570930201609301010895CF93DF93F7
:10287000EC01FB01128213821482158216821782E8
:1028800088EF80878FEF8187CE010E94B810CE013C
:10289000DF91CF9108958F929F92AF92BF92CF9286
:1028A000DF92EF92FF920F93FC01A280B380C4806D
:1028B000D580E680F780B085E1859501A601B70156
:1028C0008B2F8F7090E0A0E00E94933D71F08B2FD2
:1028D0009E2F04E30E94503D490187E0982281E049
:1028E0009FEF891697E0990609F080E00F91FF901D
:1028F000EF90DF90CF90BF90AF909F908F90089512
:102900008F929F92AF92BF92CF92DF92EF92FF92FF
:102910000F93FC01A280B380C480D580E680F7804D
:10292000B085E1859501A601B7018B2F8F7090E0EE
:10293000A0E00E94933D71F48B2F9E2F04E30E9430
:10294000503D490187E0982281E09FEF891697E08A
:10295000990609F080E00F91FF90EF90DF90CF9003
:10296000BF90AF909F908F9008952F923F924F927B
:102970005F926F927F928F929F92AF92BF92CF920F
:10298000DF92EF92FF920F931F93CF93DF93CDB718
:10299000DEB7A6970FB6F894DEBF0FBECDBF4C01D1
:1029A0007E836D83FC01F281F983FC01F381FA835C
:1029B000FC01F481FB83FC01F581FC83FC01F681C1
:1029C000FF83FC01F781F887FC01F085F987FC01A2
:1029D000F185FC8729813A814B815C816F81788503
:1029E00089859F2FA0E00E94933D1CF56FEF7FEF3C
:1029F000CB010E94252F59016A017B018C0129819D
:102A00003A814B815C816F81788589859C850E94A4
:102A10005C2A29833A834B835C836F837887898719
:102A20009C878DE28093500421E030E03C8B2B8B1F
:102A300002C01C8A1B8AC4010E944B14882329F0FF
:102A400068E771E080E594E00BC0C4010E94801447
:102A5000882349F06CE771E08B899C89805B9B4FF0
:102A60000E94B93DF1C2F401228133814481558134
:102A7000668177818085918504E30E94503D4901FC
:102A8000F7E09F222FEF821627E09206C9F460E854
:102A900071E080E594E00E94B93D209160046AE015
:102AA000C62EE12C04E514E030E040E050E060E0A8
:102AB00070E080E090E00E94D91210926004C4C2DD
:102AC0007090010139813A878A818B879B819D872C
:102AD000EC81EE872F803884F985FEA32C852DA309
:102AE000232F382F492F5E2FB1018F2F9C8504E3B0
:102AF0000E94503DC9019770988B8F87672D77276B
:102B000067FD7095872F972F0E94252F2D8F3E8F61
:102B10004F8F58A369A37AA38BA39CA358E0452E9B
:102B2000512C21E030E040E050E060E070E080E0D7
:102B300090E0972C990C9908A72CB92CC92CD92C6A
:102B4000E92CF92C092D192D0E94DA3BE1E04E1AEF
:102B5000510891F70E94C12F59016A017B018C0134
:102B60000E945C2A298B3A8B2A013B014C012F855C
:102B70003889232B19F4212C312CCBC08F859889CF
:102B80008F3FE7E09E07B9F310926004188A1F8612
:102B90008F3F93400CF052C02A853B854D855E8562
:102BA000B1018EA19DA104E30E94503D590137E07F
:102BB000B3228FEFA81683E0B8060CF04FC08091C7
:102BC00060048230C0F6A988BA886201730184016A
:102BD0002A853B854D855E85B1018EA19DA10E9410
:102BE0005C2A2A873B874D875E871B018EA39DA3A6
:102BF0002F8538892F5F3F4F388B2F87CDCF80911E
:102C00006004823008F0B7CFA988BA8862017301E6
:102C100084012A853B854D855E85B1018EA19DA1EC
:102C20000E9463262A873B874D875E871B018EA300
:102C30009DA3EF85F8893197F88BEF87A988BA882B
:102C40006201730184012A853B854D855E85B10152
:102C50008EA19DA10E94DC29882389F2612C712C10
:102C60002A853B854D855E85B1018EA19DA104E33A
:102C70000E94503D490127E092223FEF831633E046
:102C800093060CF180916004823008F074CFAD8C13
:102C9000BE8CCF8CD8A0E9A0FAA00BA11CA12A85DC
:102CA0003B854D855E85B1018EA19DA10E94632665
:102CB0002A873B874D875E871B018EA39DA3FFEF6D
:102CC0006F1A7F0ACDCFAD8CBE8CCF8CD8A0E9A077
:102CD000FAA00BA11CA12A853B854D855E85B1011B
:102CE0008EA19DA10E945C2A2D8B3E8B4F8B588F0D
:102CF000698F7A8F8B8F9C8F8F85988944E0880F9E
:102D0000991F4A95E1F71301281A390A81E0281A18
:102D100031082091030130910401809105019091C7
:102D20000601221533056CF044275527481B590B23
:102D30002416350634F031952195310922163306D3
:102D4000CCF4ED89E983FE89FA832F892B83388DB2
:102D50003C83E98DEF83FA8DF8872B8D29873C8D95
:102D60003C879E838D8309973CF088E090E09E83AA
:102D70008D8302C0212C312C80914F04882309F4CB
:102D800058C0C10137FC06C063E070E00E94AC3B54
:102D90002C0109C0019663E070E00E94AC3B2C015D
:102DA00092E0490E511C6090010121E030E040E0CA
:102DB00050E060E070E080E090E0812C912C762C77
:102DC000770C7708841495046CF45301C72CD72C26
:102DD000E72CF72C072D172D0E94DA3BEFEF8E1A08
:102DE0009E0AF0CF0E94C12F59016A017B018C011C
:102DF0002D893E894F89588D698D7A8D8B8D9C8D5B
:102E00000E945C2A29833A834B835C836F83788793
:102E100089879C872418350888E090E084199509F3
:102E200020910501309106018217930714F49E83C7
:102E30008D838090010121E030E040E050E060E0CF
:102E400070E080E090E0612C712C982C990C99082E
:102E5000ED81FE81E615F7056CF05401C92CD92CE3
:102E6000E92CF92C092D192D0E94DA3BFFEF6F1A7E
:102E70007F0AEECF0E94C12F59016A017B018C01AC
:102E8000809101019091020197FD0196BC01759519
:102E90006795882777FD8095982F0E94252F0E949F
:102EA000632659016A017B018C0129813A814B819A
:102EB0005C816F81788589859C850E941A2629838B
:102EC0003A834B835C836F83788789879C87E12C67
:102ED00001E00E94542E2A873B872A013B014C01C6
:102EE000B301C4010E94C12F59016A017B018C0109
:102EF00029813A814B815C816F81788589859C85A8
:102F00000E940B2E2C87398749835A836B837C83DD
:102F10008F8398870B891C89005B1B4FC090010130
:102F2000EE24E3942A853B85A201B301C4010E94EB
:102F3000D9122B893C89820F931FED81FE81EF2BE3
:102F400009F45BC02C01FFEF4F1A5F0A2EE2FC016F
:102F5000E05BFB4F20832D813E81240D351D2F30FA
:102F6000310534F02FE030E0281B390B3E832D83F0
:102F70008090010121E030E040E050E060E070E04E
:102F800080E090E0612C712C982C990C9908ED81CF
:102F9000FE816E167F066CF45401C92CD92CE92CE5
:102FA000F92C092D192D0E94DA3BEFEF6E1A7E0ADB
:102FB000EECF0E94C12F59016A017B018C012C8543
:102FC000398549815A816B817C818F8198850E94E6
:102FD0005C2A2C87398749835A836B837C83C09012
:102FE0000101E12C02E00E94542E8201005B1B4F84
:102FF000ED800E94D912840D951D2114310421F118
:103000008C010F5F1F4F27E0FC01E05BFB4F20832B
:1030100037FE0AC0F801E05BFB4F2DE220833194BC
:10302000219431080F5F1F4F005B1B4F932D990FA9
:10303000990BC0900101E12C9101492F592F692F63
:10304000792F892F0E94D91280E594E0A6960FB6B9
:10305000F894DEBF0FBECDBFDF91CF911F910F91CE
:10306000FF90EF90DF90CF90BF90AF909F908F90A8
:103070007F906F905F904F903F902F900895609158
:103080000501709106010C94B514CF93DF93EB0109
:1030900060910501709106010E94B514009799F0A6
:1030A000FC0101900020E9F7AF0141505109481B94
:1030B000590BE881F9810280F381E02DBC01CE013A
:1030C000DF91CF910994DF91CF9108952F923F9294
:1030D0004F925F926F927F928F929F92AF92BF9228
:1030E000CF92DF92EF92FF920F931F93CF93DF93D4
:1030F000CDB7DEB7A3970FB6F894DEBF0FBECDBF36
:103100009D8B8C8B7BA36AA3588F4F8B0E944F1093
:1031100019861A861B861C861D861E861F86188A9F
:10312000209100012E8B922E990C9908998E9A8EDF
:103130009B8E9C8E9D8E9E8EEAA1FBA1F081F98BC9
:1031400019A21A8A18A21F8E812C1B8A212C312CBD
:103150004989411111C0609000017FE0872E912CB8
:1031600021E030E040E050E060E070E080E090E09E
:10317000762C770C7708E6C05F8D5111ECCFEAA171
:10318000FBA12B89E20FF11D27FDFA954081498BA8
:1031900041341CF4842F805302C089898753598994
:1031A0005A3394F45033D4F45B3209F4C7C024F496
:1031B000573009F4BEC0BAC089898D3209F4B0C055
:1031C0008E3209F4A8C0B2C0998991340CF4AEC013
:1031D000973424F09F3509F4B1C0A8C0EA89EE23E2
:1031E00071F020910001A10124031001259F300CF2
:1031F0001124280E311C87FD3A94EF5F9BC0482EA6
:10320000552447FC5094652C752C87FC3BC060917D
:103210000001772767FD7095872F972F0E94252F34
:1032200059016A017B0129853A854B855C856D854D
:103230007E858C018F8598890E945C2A29873A8730
:103240004B875C876D877E878F87988BC301B20120
:103250000E94252F59016A017B0129853A854B85FA
:103260005C856D857E858C018F8598890E941A26E4
:1032700029873A874B875C876D877E878F87988BF6
:1032800083945CC02E89392D498D5A8D6B8D7C8D30
:103290008D8D9E8D0E94C12F59016A017B018C0189
:1032A000C301B2010E94252F0E94632659016A01C1
:1032B0007B0129853A854B855C856D857E858C01F2
:1032C0008F8598890E941A2629873A874B875C87C1
:1032D0006D877E878F87988B8A94A09000011A2D26
:1032E000110F110BB12EC12ED12EE12EF12E012F77
:1032F0002E89392D498D5A8D6B8D7C8D8D8D9E8DAE
:103300000E94DA3B2E8B932E498F5A8F6B8F7C8FC6
:103310008D8F9E8F13C087FC11C088248A940EC0A5
:103320005A89552349F081E089A308C091E09F8F15
:1033300005C0E1E0EA8B02C0F1E0F8A32B892F5F22
:103340002B8B06CF5301C72CD72CE72CF72C072D3E
:10335000172D0E94DA3BE1E08E1A910899F70E943E
:10336000C12F922E832E742E652E562E472E898BBA
:103370009A8B60910001772767FD7095872F972FB3
:103380000E94252F59016A017B018C01292D382DBE
:10339000472D562D652D742D89899A890E945C2AA6
:1033A000922E832E742E652E562E472E898B9A8B45
:1033B000F9A1FF2309F45CC040E124163104F4F0C4
:1033C00029853A854B855C856D857E85A92CB82C31
:1033D000C72CD62CE52CF42C09891A898F8598895D
:1033E0000E94632629873A874B875C876D877E8793
:1033F0008F87988B20E1221A3108DECF410181149A
:10340000910419F160910001772767FD7095872F6E
:10341000972F0E94252F59016A017B0129853A8542
:103420004B855C856D857E858C018F8598890E9492
:10343000632629873A874B875C876D877E878F87CE
:10344000988B51E0851A9108DACF8F89988D892B56
:1034500009F457C0EF89F88D80819181FB898F0F26
:10346000911DF7FD9A95EF89F88D9183808349C06E
:10347000E0E12E163104F4F029853A854B855C8510
:103480006D857E85A92CB82CC72CD62CE52CF42C68
:1034900009891A898F8598890E945C2A29873A8729
:1034A0004B875C876D877E878F87988B90E1291A81
:1034B0003108DECF41018114910439F2609100019D
:1034C000772767FD7095872F972F0E94252F590129
:1034D0006A017B0129853A854B855C856D857E85F2
:1034E0008C018F8598890E945C2A29873A874B87AF
:1034F0005C876D877E878F87988BF1E08F1A9108A4
:10350000DACFF8A1F11104C0BE01675F7F4F1EC082
:103510006FEF7FEFCB010E94252F59016A017B01DC
:1035200029853A854B855C856D857E858C018F85E7
:1035300098890E945C2A29833A834B835C836D833C
:103540007E838F839887BE016F5F7F4F8C899D89B3
:103550000E9407118C899D89A3960FB6F894DEBF4F
:103560000FBECDBFDF91CF911F910F91FF90EF90D4
:10357000DF90CF90BF90AF909F908F907F906F9093
:103580005F904F903F902F9008954F925F926F926F
:103590007F928F929F92AF92BF92CF92DF92EF92E3
:1035A000FF920F931F93CF93DF93CDB7DEB728978A
:1035B0000FB6F894DEBF0FBECDBF6B017C01DC01FE
:1035C000CB011BE1B695A795979587951A95D1F7ED
:1035D0008F709927880F991FFC01E555FE4FDC017C
:1035E000A557BE4F0D90BC91A02DA70196018BE071
:1035F00056954795379527958A95D1F744275527AE
:103600000E94CF3B24E196958795779567952A95FB
:10361000D1F740805180461A570A612C712CC7019E
:10362000B601A30192010E94333C07E00E94503D85
:1036300049015A0175016401C094D094E094F0945A
:10364000C701B601A30192010E94333C08E10E9428
:10365000503D29833A834B835C83320155244424B3
:1036600029813A814B815C81420E531E641E751E76
:10367000B301A20180E090E0DC0149825A836B83B0
:103680007C838D839E83AF83B887C701B601A70172
:1036900096010E94333C00E20E94503D59016A01AC
:1036A0007B018C0129813A814B815C8160E070E073
:1036B00080E090E00E94DA3B00E30E94503DC901A7
:1036C000DA01BC01CD01640D751D861D971D28967C
:1036D0000FB6F894DEBF0FBECDBFDF91CF911F9123
:1036E0000F91FF90EF90DF90CF90BF90AF909F90A1
:1036F0008F907F906F905F904F9008956115710546
:1037000021E08207910528F4CB017727662720E185
:1037100001C020E061157105810531E0930728F4AF
:10372000285F982F872F762F6627892F9927AA271A
:10373000BB27FC01E553FE4F8081820F08950F9354
:103740001F93B22FA32FF42FE52F00E20E94503DCC
:10375000022F132F242F352F0115110521053105B7
:1037600041F4AD01CF01052F142F292F382F80E20E
:1037700001C080E00115110591E02907310520F411
:10378000805F98011127002701151105210591E09F
:10379000390728F4885F322F212F102F0027032F9D
:1037A000112722273327F801E553FE4F9081890F17
:1037B0001F910F9108952F923F924F925F926F92B7
:1037C0007F928F929F92AF92BF92CF92DF92EF92B1
:1037D000FF920F931F93CF93DF93CDB7DEB7A297DE
:1037E0000FB6F894DEBF0FBECDBF390149835A83AF
:1037F000E02F00E20E94503D2B833C834D835E838B
:103800006F83788789879A879501A601B7018E2FE4
:10381000912F0E94503D2B873C874D875A8B6B8B95
:103820007C8B8D8B9E8BE12CF12C00E010E09301C2
:1038300049815A8160E070E080E090E00E94DA3BCC
:103840002B8F3C8F4D8F5E8F6F8F78A389A39AA3A8
:103850002B813C814D815E816F81788589859A8538
:103860000E94DA3B522E432E342E252E6F8B788FFA
:10387000898F9A8FAB84BC84CD84DA88EB88FC88EE
:103880000D891E89930149815A8160E070E080E0D2
:1038900090E00E94DA3BA52CB42CC32CD22CEF88EC
:1038A000F88C098D1A8D0E946C3D29833A834E87CE
:1038B0005F87688B798B782E692EAB84BC84CD842E
:1038C000DA88EB88FC880D891E892B813C814D812B
:1038D0005E816F81788589859A850E94DA3B2E8387
:1038E0003F83488759876A877B878C879D87298193
:1038F0003A814E855F8568897989872D962DA52C1B
:10390000B42CC32CD22CEF88F88C098D1A8D0E9410
:103910008A3D18F4E1E0EB8301C01B8229813A81E2
:103920004E855F8568897989872D962D00E20E94F2
:10393000353D19012A016C837D83B82FA92FAB8CEB
:10394000BC8CCD8CDE8CEF8CF8A009A11AA10E9452
:103950006C3D7901142F5A8B5B016C0100E20E94CF
:10396000503DF40120873187428753878A89E48656
:10397000F58616878787F1E09701412F582FB5010B
:10398000C60151016201EC80FD800B2F1A2F0E94AD
:103990008A3D08F0F0E02F2F30E040E050E060E09A
:1039A00070E080E090E0AE80BF80C884D984EA8473
:1039B000FB840C851D850E946C3D29011A01B62FE0
:1039C000A72FF82FE92F29813A814E855F856889D5
:1039D0007989872D962D00E20E94503D59016A0198
:1039E0007B018C018B81E82A9201A1016B2F7A2F38
:1039F0008F2F9E2F0E946C3DB22FA32F142FF52ED8
:103A000000E20E94503DF4012083318342835383BE
:103A10009D01348325831683F782A2960FB6F8940E
:103A2000DEBF0FBECDBFDF91CF911F910F91FF90F1
:103A3000EF90DF90CF90BF90AF909F908F907F904E
:103A40006F905F904F903F902F900895AF92BF92EC
:103A5000CF92DF92EF92FF920F931F93CF93DF935A
:103A6000EC0159016A017B019801A501B601C7016A
:103A70000E949F1BA5EFA80FE1E0F0E0EA1BF1090F
:103A8000A7FDF395F983E8839801A501B601C70165
:103A90000A2F0E94353D2A833B834C835D836E83CE
:103AA0007F8388879987CE01DF91CF911F910F91F6
:103AB000FF90EF90DF90CF90BF90AF9008959F92CE
:103AC000AF92BF92CF92DF92EF92FF920F931F932C
:103AD000CF93DF93922EA32EB42ED52FC62FB72FC0
:103AE000F82FE92F670178018FE3C816D104E104AC
:103AF000F104E0F4002711270C191D090F73112799
:103B00008F2F0E94353D11E0A0E00E94933D09F403
:103B100010E0292D3A2D4B2D5D2F6C2F7B2F8F2FF1
:103B20009E2F0C2D0E94503D212B0FC011E08F2F96
:103B3000A0E00E94933D09F410E0212F30E040E026
:103B400050E060E070E080E090E0DF91CF911F9165
:103B50000F91FF90EF90DF90CF90BF90AF909F902C
:103B600008952F923F925F926F927F928F929F92D1
:103B7000AF92BF92CF92DF92EF92FF920F931F937B
:103B8000CF93DF9300D000D0CDB7DEB73C832B833B
:103B9000542E519490E0FC013197EE0FFF1FEE0F71
:103BA000FF1FE60FF71FC080D180E280F380642EF4
:103BB00097018601042E04C0369527951795079521
:103BC0000A94D2F74801590104C0880C991CAA1C18
:103BD000BB1C4A95D2F78C149D04AE04BF0409F0B7
:103BE0000160DC01AA0FBB1FAA0FBB1F1B012A0E1D
:103BF0003B1E4B815C814A0F5B1F5A83498340E027
:103C000050E0E0E0F0E0652D6F71562E31974450A2
:103C100051097C01EE0EFF1EEF2871F17101E40ED7
:103C2000F51EA4E0EA1AF108D7018D909D90AD90A1
:103C3000BC9075016401052C04C0CC0CDD1CEE1C8D
:103C4000FF1C0A94D2F7C02AD12AE22AF32A29813A
:103C50003A81240F351FD901CD92DD92ED92FC926D
:103C6000139795018401062C04C036952795179566
:103C700007950A94D2F7CACFEB81FC8100831183A8
:103C8000228333830F900F900F900F90DF91CF918D
:103C90001F910F91FF90EF90DF90CF90BF90AF906A
:103CA0009F908F907F906F905F903F902F9008959E
:103CB0004F925F926F927F928F929F92AF92BF923C
:103CC000CF92DF92EF92FF920F931F93CF93C82F63
:103CD00069017A01B5E0F694E794D794C794BA9550
:103CE000D1F7482E512C612C712CC114D104E10460
:103CF000F10409F14C145D046E047F0410F47301A7
:103D000062018C2DEC2FF0E0EC19FD09EE0FFF1F86
:103D1000EE0FFF1FE60FF71FA0E0B0E0819091903B
:103D2000A190B19081149104A104B10441F41196C1
:103D30008A13F4CF04C0812C912C540102C0902F1F
:103D4000E12FC414D504E604F704B0F4422F4F71F8
:103D50008C2F8C19442389F19601220F331F220FD7
:103D6000331F200F311F0E94B11DC114D104E10483
:103D7000F10471F0902FE12FA92FBE2F1D921D92FB
:103D80001D921D9281E0C81AD108E108F108B1F72F
:103D900089288A288B2891F1F80184E0C89FE00DDA
:103DA000F11D1124349780819181A281B3818160BA
:103DB00080839183A283B38321C0AC2FB0E0A15054
:103DC000B04CFD01EC19FD09EE0FFF1FEE0FFF1FB8
:103DD000E60FF71F3496AA0FBB1FAA0FBB1FA00F39
:103DE000B11F1496882331F27291629152914291DF
:103DF0007E936E935E934E938150F4CFCF911F913B
:103E00000F91FF90EF90DF90CF90BF90AF909F9079
:103E10008F907F906F905F904F9008959091600485
:103E2000982B9093600408952F923F924F925F9247
:103E30006F927F928F929F92AF92BF92CF92DF92BA
:103E4000EF92FF920F931F93CF93DF93CDB7DEB71F
:103E50002A970FB6F894DEBF0FBECDBF29013A01F5
:103E60004B018A879E83A982BA82CB82DC821701AA
:103E700009871D83892F8F778F8300E0A12FAF776C
:103E8000A88710E0BA85B860BA87E985E860E98755
:103E9000111102C0002339F080E10E940E1F00239F
:103EA000A9F11123D9F19201A301B4018A859F815F
:103EB000A980BA80CB80DC807101098518850E94B9
:103EC0008A3D20F19501A601B101C80152016301AB
:103ED00074010A851F810E948A3D00F1F02FEE8156
:103EE0009201A301B401802F9E2FA980BA80CB80BC
:103EF000DC80710109851D810E948A3D89F080F076
:103F0000250136014101F02FE12F0AC049805A8076
:103F10006B807C804101F985ED8102C0FA85EE81DC
:103F20009201A301B4018F2F9E2F2A960FB6F89409
:103F3000DEBF0FBECDBFDF91CF911F910F91FF90DC
:103F4000EF90DF90CF90BF90AF909F908F907F9039
:103F50006F905F904F903F902F9008953F924F92B7
:103F60005F926F927F928F929F92AF92BF92CF9209
:103F7000DF92EF92FF920F931F93CF93DF93C82F9F
:103F8000FB01D42F322E4084518462847384842FA9
:103F90008B7F51F4D301C2018827B7FD8395992700
:103FA000AA27BB27A82F13C0242F30E0CC2319F059
:103FB00082E090E002C083E090E02817390731F4F6
:103FC000A1E0411451046104710409F4A0E080806F
:103FD0009180A280B3809401A50160E070E080E050
:103FE00090E000E20E94353DB22FD32E7A01C62E1A
:103FF000B72E44815581668177818A019B01B42B5C
:10400000D12AE22AF32AF82FE92FAA23E9F02B2F4D
:104010003D2DA7016C2D7B2DA1E00E94753DB22F97
:10402000D32E7A01C62EB72EF82FE92FA0E00E94DA
:10403000933DD1F1B301A2017F77452B462B472B4E
:1040400019F4D11101C0BE7FCC2389F02B2F3D2D57
:10405000A7016C2D7B2D8F2F9E2F0E94EE3CB22F3F
:10406000D32E7A01C62ED72FF82FE92F01C0DB2DD2
:104070002B2F3D2DA7016C2D7D2F8F2F9E2FA0E084
:104080000E94933D29F00FE30E94503DC2130CC0E3
:104090003320C1F0452846284728A1F080916004CC
:1040A0008160809360040EC080E10E940E1FCC23CB
:1040B00089F020E030E040E050E060E070E080E037
:1040C00090E810C02B2F3D2DA7016C2D7D2F8F2F39
:1040D0009E2F08C02FEF3FEF4FEF5FEF6FEF7FEFA7
:1040E0008FEF9FE7DF91CF911F910F91FF90EF909E
:1040F000DF90CF90BF90AF909F908F907F906F9008
:104100005F904F903F9008952F923F924F925F9211
:104110006F927F928F929F92AF92BF92CF92DF92D7
:10412000EF92FF920F931F93CF93DF93CDB7DEB73C
:104130002E970FB6F894DEBF0FBECDBF8B877E875C
:104140006D871701280139014A012091610431E08E
:104150003C8721111C86822F8B7F89F030E04B85B4
:10416000442319F082E090E002C083E090E0281739
:10417000390751F46FEF73E07A83698307C080E0F9
:1041800092E09A83898302C01A821982D101B370A6
:10419000BA87A987ED85FE85ED3F27E0F20708F491
:1041A00083C0F7FF46C0809107018823F1F0319664
:1041B000E1F4E981FA819F0140E050E060E070E0C5
:1041C00080E090E051016201730184010E946C3D26
:1041D0002095309540955095609570958095909577
:1041E0000FE30E94503DD22E02C0DD24D394ED8413
:1041F000FE84F194E194F1080027F7FC0095102F5C
:104200009101A201B301C4010E945F1D19012A019D
:104210003B014C0133703A872987DD2009F442C005
:10422000232B09F44BC082E00E940E1F1E861D86C0
:104230003FC0ED85FE85ED3FF74099F4E981FA81B5
:104240009F0140E050E060E070E080E090E05101CC
:104250006201730184010E946C3DA0E00E94933DC5
:104260001CF585E00E940E1F2B8530E040E050E0F9
:1042700060E070E080E090E00FE30E94353D805107
:104280009048AA24A394A981BA81AB2B09F0A12C50
:10429000B12CC12CD12CE12CF12C00E010E00E94BB
:1042A000813D8FC01E861D86E985FA85EF2B41F082
:1042B0008091600481608093600402C01E861D8628
:1042C00049815A819A0140E050E060E070E0CB0102
:1042D00029833A834B835C836D837E838F839887A6
:1042E0009101A201B301C401A980BA80C12CD12CD3
:1042F000E12CF12C00E010E00E946C3D0AE00E94ED
:10430000503D332E2A01662EE72E8983292EE1E0C7
:1043100069857A856115724009F0E0E09C85E923A2
:10432000E095E2232B8530E040E050E060E070E073
:1043300080E090E00FE30E94353D59016A016987F2
:10434000F72E8B87192F2E2F332DA201662D7E2D50
:104350008981922DA0E00E94933DB1F09E85990F36
:10436000990B2D853E85492F592F692F792F892F3C
:1043700004E30E94353D722E832E942EF52F6C8718
:10438000B72FA82F9D8708C0712C812C912CF0E0AD
:104390001C86B0E0A0E01D862E2F332DA201662DD5
:1043A0007E2D8981922DE9840B850E946C3DA72C7E
:1043B000B82CC92CDF2EEC84FB2E0A2F1D850E9401
:1043C0006C3D2E960FB6F894DEBF0FBECDBFDF91C9
:1043D000CF911F910F91FF90EF90DF90CF90BF9002
:1043E000AF909F908F907F906F905F904F903F9095
:1043F0002F9008952F923F924F925F926F927F92EB
:104400008F929F92AF92BF92CF92DF92EF92FF92E4
:104410000F931F93CF93DF93CDB7DEB764970FB69B
:10442000F894DEBF0FBECDBF2B83F32FE42F5C8348
:104430006D837E838F83988B0B8B8C8A04E30E9421
:10444000503DC90197709A8389839501A601B701F0
:104450008B89912F0E94503DC90197709A8B898B4F
:10446000A981BA81A81BB90B2B813F2F4E2F5C81EC
:104470006D817E818F818F7090E009E00E94353DD3
:10448000288739874A875B876C877D878E879F87D8
:104490009501A601B7018B898F7090E00E94353D90
:1044A00019012A013B014C01109709F054C0898180
:1044B0009A818F3F974089F42885222939853329AD
:1044C0004A8544295B8555296C8566297D85772930
:1044D0008E8588299F8599299FC089819A81892BFA
:1044E00051F52B813F2F4E2F5C816D817E818F8115
:1044F00098890B890E946C3D39014A01B62FA72F7C
:10450000F82FE92FEF772C8930E040E050E060E0B1
:1045100070E080E090E00FE30E94353D59016A01B0
:104520007B018C019301A4016B2F7A2F8F2F9E2F7B
:104530000E946C3DDFC09101A201B301C401905CF7
:10454000A884B984CA84DB84EC84FD840E851F852D
:104550000E946C3DB4C0B7FF52C089899A898F3FD1
:104560009740B9F49101A201B301C401A0E00E94F7
:10457000933D09F0B4C02C8930E040E050E060E0A9
:1045800070E080E090E00FE30E94353D805190485C
:10459000B1C089819A81892B49F020E030E040E068
:1045A00050E060E070E080E090E208C02885398546
:1045B0004A855B856C857D858E859F85A884B984B9
:1045C000CA84DB84EC84FD840E851F850E946C3DCB
:1045D000EE24FF24EA1AFB0A0027F7FC0095102FAF
:1045E0000E945F1D288739874A875B876C877D8794
:1045F0008E879F8789899A899A83898335C0898123
:104600009A818F3F974071F4288539854A855B856B
:104610006C857D858E859F85A0E00E94933D09F085
:104620005EC070C089899A89892B49F020E030E00A
:1046300040E050E060E070E080E090E204C0910172
:10464000A201B301C40151016201730184010E94FE
:104650006C3D7D010027F7FC0095102F0E945F1D27
:1046600019012A013B014C01288539854A855B8562
:104670006C857D858E859F85510162017301840162
:104680000E946C3D905E79018A01B62FD72EF82FDB
:10469000E92F2F3FAFEF3A074A075A076A077A0711
:1046A0008A07AFE39A0709F080F489819A8101971C
:1046B0009A8389838F2F9E2F01E00E94353D7901D7
:1046C0008A01B62FD72EF82FE92F2B2F3D2D4F2FF4
:1046D0005E2F69817A818C890E9484201BC00B899E
:1046E0002B813F2F4E2F5C816D817E818F81988938
:1046F0000E94141F2B83F32FE42F5C836D837E8332
:104700008F83988B2B813F2F4E2F5C816D817E8113
:104710008F81988964960FB6F894DEBF0FBECDBF27
:10472000DF91CF911F910F91FF90EF90DF90CF908D
:10473000BF90AF909F908F907F906F905F904F90C1
:104740003F902F9008952F923F924F925F926F92D9
:104750007F928F929F92AF92BF92CF92DF92EF9211
:10476000FF920F931F93CF93DF93CDB7DEB72997B7
:104770000FB6F894DEBF0FBECDBFB82E6B01902EE2
:10478000522E632E742E852E9701402F512F652DAA
:10479000762D872D982D0E949F1B0FEF080FE02F7D
:1047A000FF27E7FDF095FF83EE83F6018E819F8161
:1047B000E81BF90B0A300CF45AC0ED3F97E0F907FB
:1047C00008F055C02B2D30E040E050E060E070E094
:1047D00080E090E00FE30E94353D59016A016A8351
:1047E0007B838C839D839701492D512F652D762DD9
:1047F000872D982DA0E00E94933DA1F09F2F990F47
:10480000990B9F01492F592F692F792F892F04E385
:104810000E94353D29873887DA01462E372E282E0B
:10482000998308C019861886A0E0B0E0412C312C8D
:10483000212C1982EE81FF813A979701492D512F42
:10484000652D762D872D982D0E2F0E94353DEA80FF
:10485000FB800C811D810E946C3DA984B8846D0190
:10486000E42CF32C022D19810E946C3D11C097019C
:10487000492D512F652D762D872D982D0E94353D80
:1048800079018A019B01AC01BF018B2D0E9484201C
:1048900029960FB6F894DEBF0FBECDBFDF91CF9142
:1048A0001F910F91FF90EF90DF90CF90BF90AF904E
:1048B0009F908F907F906F905F904F903F902F9040
:1048C00008952F923F924F925F926F927F928F92B4
:1048D0009F92AF92BF92CF92DF92EF92FF920F938F
:1048E0001F93CF93DF93CDB7DEB765970FB6F894DC
:1048F000DEBF0FBECDBFB22FF32FE42F59876A87DB
:104900007B878C879F870D8B8C8A04E30E94503DA8
:1049100037703E872D879501A601B7018D89912FAC
:104920000E94503DC9019770998B888B2D853E85DB
:10493000281B390B3B8B2A8B2B2F3F2F4E2F598552
:104940006A857B858C858F7090E00AE00E94353DFA
:104950002A833B834C835D836E837F83888799831F
:104960009501A601B7018D898F7090E00E94353DB9
:1049700019012A013B014C018A899B8918161906E5
:104980000CF4CCC0892B09F05FC02D853E852F3FEC
:10499000374019F52A8122293B8133294C8144294A
:1049A0005D8155296E8166297F81772988858829CF
:1049B00099819929A0E00E94933D09F005C180E109
:1049C0000E940E1FB0E0F0E0E0E019861A861B8618
:1049D00098EF9C872FEF2F870CC18D859E85892BA3
:1049E00041F4E1E0F0E0F98BE88B21E030E03E8734
:1049F0002D879101A201B301C401AA80BB80CC80A4
:104A0000DD80EE80FF80088519810E948A3D08F4D0
:104A1000BFC09501A601B701C80151016201730130
:104A200084010E948A3D08F462C080916104B0E074
:104A3000F0E0E0E019861A861B861C86823009F0B9
:104A4000D7C030E83F87D5C0888999898F3F974084
:104A5000C9F49101A201B301C401A0E00E94933DF9
:104A600009F0B2C021E03C89232730E040E050E06B
:104A700060E070E080E090E00FE30E94353D8051FF
:104A80009048ADC08D859E85892B49F020E030E0AF
:104A900040E050E060E070E080E090E408C02A81EF
:104AA0003B814C815D816E817F8188859981AA805F
:104AB000BB80CC80DD80EE80FF80088519810E945C
:104AC0006C3DEA88FB88F194E194F1080027F7FC3B
:104AD0000095102F0E945F1D2A833B834C835D83CA
:104AE0006E837F8388879983992D9064992E81E0C6
:104AF000EC89E827EC8B9101A201B301C401AA80E3
:104B0000BB80CC80DD80EE80FF80088519810E940B
:104B1000813DE889F989FE87ED8748C02D853E856E
:104B20002F3F374071F42A813B814C815D816E813A
:104B30007F8188859981A0E00E94933D09F044C05F
:104B400058C0E889F989EF2B49F020E030E040E0D7
:104B500050E060E070E080E090E404C09101A201C8
:104B6000B301C40151016201730184010E946C3DD3
:104B7000EA89FB897F010027F7FC0095102F0E942E
:104B80005F1D19012A013B014C01F981F064F98391
:104B90002A813B814C815D816E817F8188859981ED
:104BA00051016201730184010E94813D2D843E8484
:104BB000E1E02E1A310879018A019B01AC01B101B3
:104BC0008C890E94A3231DC00D892B2F3F2F4E2FB0
:104BD00059856A857B858C859F850E94141FB22F1D
:104BE000F32FE42F59876A877B878C879F8701C0C3
:104BF0001F862B2F3F2F4E2F59856A857B858C85ED
:104C00009F8565960FB6F894DEBF0FBECDBFDF91CE
:104C1000CF911F910F91FF90EF90DF90CF90BF90B9
:104C2000AF909F908F907F906F905F904F903F904C
:104C30002F9008956F927F928F929F92AF92BF9222
:104C4000CF92DF92EF92FF920F931F93CF93DF9358
:104C5000722E932ED42FC52FB62FA72FF82FE92F02
:104C6000602E0FE30E94503D822E9501A601B701F0
:104C7000862D912F0E94503D062D82120BC0272DAC
:104C8000392D4D2F5C2F6B2F7A2F8F2F9E2F0E9447
:104C9000FA210AC0272D392D4D2F5C2F6B2F7A2F2B
:104CA0008F2F9E2F0E946124DF91CF911F910F9132
:104CB000FF90EF90DF90CF90BF90AF909F908F903C
:104CC0007F906F9008952F923F924F925F926F92D4
:104CD0007F928F929F92AF92BF92CF92DF92EF928C
:104CE000FF920F931F93CF93DF93CDB7DEB7EE976D
:104CF0000FB6F894DEBF0FBECDBF19012A013B01EC
:104D0000F82F9DA7EF2DB02F04E30E94503D2B8775
:104D10003C878B849C8407E090222B8E3BA24CA284
:104D20005DA26EA27FA22F2F2F702B8B18A695014C
:104D3000A6016E2D7F2D8B2F912F04E30E94503DF5
:104D40002B873C874D875E876F87788B898B9A8B03
:104D50004B855C8557705C874B87AEA6BFA6C8AAFB
:104D6000D9AAE9A6FAAA5B2F5F70F52E1CAA9501B5
:104D7000A6016E2D7E2F8B2F912F0FE30E94503DA9
:104D80002DAB9101A201B3018F2F9DA50E94503D33
:104D90006DA962276DAB7FEF871677E09706E1F488
:104DA0009101A201B3018B8990E0A0E00E94933DA4
:104DB00009F06CC28B859C858F3F974009F07CC2BF
:104DC0009501A6016E2D7E2F8F2D90E0A0E00E9410
:104DD000933D09F05BC264C22B853C852F3F374071
:104DE00061F49501A6016E2D7E2F8F2D90E0A0E03D
:104DF0000E94933D09F04AC26DC26B857C85672B8A
:104E000009F042C09501A6016E2D7E2F8F2D90E0F6
:104E1000A0E00E94933DC9F4992D990F990B222D82
:104E20002829332D3929492F4429592F5529692FEC
:104E30006629792F77298B89892B0E94933D09F464
:104E40002FC288E00E940E1F37C20EA51FA528A9F9
:104E500039A949A55AA96F2D70E0CE0101960E948B
:104E6000261DE980FA80FC86EB86FB80FEA60C817D
:104E70000FA71D8118AB2E8129AB3F8139A748852B
:104E80004AABF9845A855CAB8114910429F59101F0
:104E9000A201B3018B8990E0A0E00E94933D09F448
:104EA00019C281019201A301682F70E0CE01019621
:104EB0000E94261D89809A806B816B8F7C817BA3E9
:104EC0008D818CA39E819DA3AF81AEA3B885BFA326
:104ED000E984EB8A0A8508A7F4012B853C85E21B4F
:104EE000F30BAB89A061BF2DB0612B8D3BA14CA111
:104EF0005DA16EA17FA18A2F98A5AEA4BFA4C8A86A
:104F0000D9A8E9A4FAA80B2F1CA90E948A3D48F44D
:104F1000AF0143505C4F5FAB4EAB4CA15DA10BE0CA
:104F20000EC0BF0162507C4F7FAB6EAB2B8D3BA19F
:104F30004CA15DA16EA17FA18A2F98A50AE00E94D5
:104F4000353D2BA33CA34DA35EA36FA378A78DA7EC
:104F50009BAB2EA53FA548A959A969A57AA98B2F76
:104F60009CA90BE00E94353D19012A0100E20E9434
:104F7000503D2EA73FA748AB59AB6AAB7CAB88AF7F
:104F800099AFB901CA010E94C51A6250710981091D
:104F900091097B018C0120E030E0A9016B8BFC8A38
:104FA0000D8B1E8B2F8B388F498F5A8F2BA13CA1D5
:104FB0004DA15EA16FA178A58DA59BA900E20E94DD
:104FC000503D59016A017B018C012B893C894D8937
:104FD0005E8960E070E080E090E00E94DA3B00E2F1
:104FE0000E94503D2B873C874D875E876F87788B6B
:104FF000898B9A8B0B851C852D853E85000F111F93
:10500000221F331F09A71AA72BA73CA794E0569489
:105010004794379427949A95D1F7A901980160E0B5
:1050200070E0CB012B8F3C8F4D8F5E8F6F8F78A3FD
:1050300089A39AA3AEA4BFA4C8A8D9A8EAA8FCA82B
:1050400008AD19AD60E070E080E090E00E94DA3BCE
:1050500059016A017B018C012BA13CA14DA15EA1EC
:105060006FA178A58DA59BA90E94813D0CE10E94AE
:10507000353D89013A014B017C0169A57AA58BA5D3
:105080009CA5A20191010E94333C59016A01FB01D8
:10509000DC019801A301B401C7017F018D010E94C9
:1050A000813D29A73DA74BAB5AAF6BAF7CAF8DAF0E
:1050B0009EAF00E20E94503DAB88BC88CD88DE8860
:1050C000E12CF12C00E010E00E94DA3B00E20E94AB
:1050D000503D49015A01C501B4016C5F7F4F8F4FAC
:1050E0009F4F6B8B7C8B8D8B9E8B4B015C019B014F
:1050F000A50160E070E080E090E004E00E94353DB2
:1051000039014A01B62FA72FF82FE92F2B853C85AF
:105110004D855E856F85788989899A8900E20E942C
:10512000353D59016A017B018C019301A4016B2F6C
:105130007A2F8F2F9E2F0E946C3D2B873B8F4BA386
:105140005CA36DA37EA38FA398A7317040E050E0CD
:1051500060E070E080E090E0AFE30E94933D11F0EA
:1051600008F086C0722F70787B876B887C888D886A
:105170009E8888EF6822660C771C881C991C840125
:10518000730120E030E0A9016B8AFC8A0D8B1E8B35
:105190002F8B388F498F5A8FAEA4BFA4C8A8D9A827
:1051A000EAA8FCA808AD19AD2B893C894D895E8918
:1051B00070E080E00E94DA3B59016A017B018C01BA
:1051C00029A53DA54BA95AAD6BAD7CAD8DAD9EAD6E
:1051D0000E94813D0CE10E94353D59016A017B012D
:1051E0008C01C401B301A20191010E94333C390139
:1051F0004A01B62FA72FF82FE92F9501A601B70175
:10520000C80153016401EB2EFA2E0F2F1E2F0E94AE
:10521000813DD22EE32EF42E052F162FB72FF82F17
:10522000E92FA0E00E94933DA4F42B853B8D4BA178
:105230005CA16DA17EA18FA198A5A0E80E94753DFB
:105240002B873B8F4BA35CA36DA37EA38FA398A753
:105250000FC02D2D3E2D4F2D502F612F7B2F8F2FC7
:105260009E2FA0E00E94933D19F00B8501600B87F3
:10527000EB84FB8C0BA11CA12DA13EA14FA158A535
:105280006EA97FA98DA90E9484202FC0FE2E0B2F0E
:105290009101A201B3018F2F9DA50E94141F25C06B
:1052A00080E10E940E1F20E030E040E050E060E02E
:1052B00070E088EF9FEF19C02DA930E040E050E08A
:1052C00060E070E080E090E00FE30E94353D8051A7
:1052D00090480BC02DA930E040E050E060E070E065
:1052E00080E090E00FE30E94353DEE960FB6F89413
:1052F000DEBF0FBECDBFDF91CF911F910F91FF9009
:10530000EF90DF90CF90BF90AF909F908F907F9065
:105310006F905F904F903F902F9008952F923F9203
:105320004F925F926F927F928F929F92AF92BF92B5
:10533000CF92DF92EF92FF920F931F93CF93DF9361
:1053400000D000D01F92CDB7DEB7A62FFC013A2CBB
:105350005B2C7C2C9D2CBE2D0E948A3D99F023292C
:105360003529472959296B2F6A2B7F29912F9F2B8C
:1053700011E0802F8E2B9F77A0E00E94933D19F0C3
:1053800010E001C011E0812F0F900F900F900F904F
:105390000F90DF91CF911F910F91FF90EF90DF90D1
:1053A000CF90BF90AF909F908F907F906F905F90C5
:1053B0004F903F902F9008952F923F924F925F927F
:1053C0006F927F928F929F92AF92BF92CF92DF9215
:1053D000EF92FF920F931F93CF93DF93CDB7DEB77A
:1053E00028970FB6F894DEBF0FBECDBF322E432EE6
:1053F000542E652E762E872E982E9887AD82DE82CB
:10540000EF82F9820A830FE30E94503DE22F2A2D9A
:105410003B2D4C2D5D2DB7018A81912F0E94503D6F
:10542000E217C9F0EE2371F12A2D2329342D3B29EF
:10543000452D4C295D2D56296E2D67297F2D782904
:105440009885912B8A8189299F77A0E00E94933DBE
:10545000C9F081E018C0232D342D452D562D672D20
:10546000782D892D9885AD80DE80EF80F9800A81C6
:105470000E948A3D39F0F1E00E948A3D08F0F0E098
:10548000EF13E7CF80E028960FB6F894DEBF0FBE8B
:10549000CDBFDF91CF911F910F91FF90EF90DF90E3
:1054A000CF90BF90AF909F908F907F906F905F90C4
:1054B0004F903F902F9008952F923F924F925F927E
:1054C0006F927F928F929F92AF92BF92CF92DF9214
:1054D000EF92FF920F931F93CF93DF93CDB7DEB779
:1054E000E4970FB6F894DEBF0FBECDBF622E832EB9
:1054F000942EB52FF62FE72F8AA79CA70BA704E3BE
:105500000E94503D2B8F3C8F4B8C5C8C87E0582247
:105510006CA28DA29EA2BFA3F8A7E9A7AAA5AF700F
:10552000ABA31DA69501A601B7018BA5912F0E94E3
:10553000503D2B8F3C8F4D8F5E8F6F8F78A389A34B
:105540009AA32B8C3C8C87E03822AEA6BFA6C8AAB3
:10555000D9AAEAAAFBAAABA5AF70AB8F1CAA95018A
:10556000A601B7018BA5912F0FE30E94503D722E2B
:10557000262D382D492D5B2F6F2F7E2F8AA59CA5B8
:105580000E94503D72268FEF481687E0580661F55D
:10559000262D382D492D5B2F6F2F7E2F8BA190E06C
:1055A000A0E00E94933D09F02FC1AFEF2A16A7E0BB
:1055B0003A0649F49501A601B7018B8DA0E00E943F
:1055C000933D09F021C1932D990F990B2A2D222982
:1055D0003B2D3329492F4C29592F5D29692F6E29DD
:1055E000792F7F298B8D1FC08FEF281687E0380613
:1055F00061F59501A601B7018B8D90E0A0E00E94B6
:10560000933D09F001C1952D990F990B262D242961
:10561000382D3529492F4929592F5B2B692F6F2B9D
:10562000792F7E2B8BA1892BA0E00E94933D09F05E
:10563000F7C080E10E940E1F20E030E040E050E023
:1056400060E070E088EF9FEF04C14114510441F520
:105650002CA13DA14EA15FA168A579A58BA190E0E9
:10566000A0E00E94933D09F4E9C089019A01AB01D1
:10567000682F70E0CE0141960E94261D49885A8805
:10568000AB89ACA3BC89BDA38D898EA3AE89AFA322
:10569000BF89B8A7888D89A7A98DABA3BA8DBDA7EF
:1056A0002114310429F59501A601B7018B8D90E0F5
:1056B000A0E00E94933D09F4C1C085019601A701B5
:1056C000682F70E0CE0141960E94261D29883A88F5
:1056D0008B898EA7AC89AFA7BD89B8AB8E8989AB02
:1056E000AF89AAABB88DBBAB898D8B8FAA8DACABC4
:1056F000240C351C2EA53FA548A959A96AA97BA948
:105700008B8D80619CA90BE00E94353D59016A0197
:105710007B01E82F192F2CA13DA14EA15FA168A507
:1057200079A58BA180619DA50AE00E94353DDE012F
:1057300011964D010E2F0E94DB1B89809A80AB8051
:10574000BC809401A50160E070E080E090E000E2A0
:105750000E94353D79018A01A62EA72FF82FE92F47
:105760004D815E816F8178859A01AB01E22AF32A2F
:10577000042B152BBA2CCA2EDF2E9E2E49855A8556
:105780006B857C85452B462B472B41F44D855E85EB
:105790006F857889452B462B472B39F0BE2DB1609C
:1057A000EB2EBA2CCA2EDF2E9E2E9701A8016A2D51
:1057B0007A2F8F2F9E2F2F3F3F4F4F4F5F4F6F4FAF
:1057C0007F4F8F4F9F4331F028F08FEF281A83E0EF
:1057D000380A11C0B4E03B1A9701A8016A2D7A2F4C
:1057E0008F2F9E2F01E00E94353D79018A01B62E50
:1057F000C72ED82E992E2B2D3C2D4D2D592DB10174
:10580000872D0E94842025C00BA5262D382D492DDB
:105810005B2F6F2F7E2F8AA59CA50E94141F19C095
:10582000272D30E040E050E060E070E080E090E064
:105830000FE30E94353D805190480BC0272D30E08A
:1058400040E050E060E070E080E090E00FE30E9414
:10585000353DE4960FB6F894DEBF0FBECDBFDF91A5
:10586000CF911F910F91FF90EF90DF90CF90BF905D
:10587000AF909F908F907F906F905F904F903F90F0
:105880002F9008952F923F924F925F926F927F9246
:105890008F929F92AF92BF92CF92DF92EF92FF9240
:1058A0000F931F93CF93DF93CDB7DEB72F970FB62C
:1058B000F894DEBF0FBECDBF2F873D874E87F52FF3
:1058C000E62F79838A839B83102FBE2D04E30E94E9
:1058D000503D790187E0F822AFEFEA16A3E0FA061F
:1058E0000CF076C02F853D854E855F2F6E2F798118
:1058F0008A819B819F77A0E00E94933D49F42F8588
:105900003D854E855F2F6E2F79818A819B816AC18B
:10591000BB2329F080916004816080936004212C76
:10592000312C412C512C612C712C812CBB81B078F5
:105930009B2E123049F118F4112331F04FC113306E
:10594000A9F1143079F04AC12F853D854E855F2F2E
:105950006E2F79818A818F7090E0A0E00E94933D44
:1059600009F43CC1EEEFEE16E3E0FE0609F036C1A5
:10597000212C312C412C512C612C712C70EF872E55
:10598000F92DFF639F2E2AC120E030E040E050E077
:1059900060E070E080E09B2FA0E00E94933D09F45E
:1059A0001DC140EF842E5FEB952E18C120E030E042
:1059B00040E050E060E070E080E09B2FA0E00E94BB
:1059C000933D09F00BC120EF822E3FE3932E06C1D9
:1059D00083E3E81684E0F8062CF1AFEFEA16A7E0BF
:1059E000FA0609F08CCF2F853D854E855F2F6E2FEF
:1059F00079818A818F7090E0A0E00E94933D09F444
:105A00007ECFA12CB12CC12CD12CE12CF12C00E0AB
:105A100010E08A819B810E94141F19012A013B0119
:105A20004C01DCC063E3C62E64E0D62ECE18DF083E
:105A300021E030E040E050E060E070E080E090E0A5
:105A40000C2D0E94353D522E632E742E852E962EDF
:105A5000472E382E292EAFEF0E94753D2C833D83B3
:105A60004E835F83688779878A879B87143061F4C8
:105A7000252D362D472D582D692D742D832D922DD2
:105A800001E00E94503D61C0111143C0252D362D0B
:105A9000472D582D692D742D832D922D01E00E94E4
:105AA000503DAF84BD84CE84DF2EEE2EF9800A8176
:105AB0001B810E946C3D022FA32EB42EC52ED62E24
:105AC000E72EF82E192F2C8120233D813A214E817B
:105AD0004B215F815C2168856D2179857E218A85D6
