:100000000C9465000C94AA030C948D000C948D0044
:100010000C948D000C948D000C948D000C948D002C
:100020000C948D000C948D000C948D000C948D001C
:100030000C948D000C948D000C948D000C948D000C
:100040000C94F2390C948D000C948D000C948D005E
:100050000C948D000C948D000C948D000C948D00EC
:100060000C948D000C948D0000000008000201002B
:100070000003040700000000000000000102040863
:100080001020408001020408102001020408102002
:10009000040404040404040402020202020203032E
:1000A00003030303000000002300260029000000D2
:1000B0000000250028002B0000000000240027007D
:1000C0002A00B503DD39BD03EE3911241FBECFEF81
:1000D000D8E0DEBFCDBF12E0A0E0B1E0E8E0FDE790
:1000E00002C005900D92A03FB107D9F724E0A0EF20
:1000F000B2E001C01D92AE3AB207E1F710E0C6ECE3
:10010000D0E004C02297FE010E946C3EC23CD107A1
:10011000C9F70E94473C0C94773E0C940000FF9274
:100120000F931F93CF93DF938C01F62EFC018581F3
:100130000E94673BC0E0D0E0F801EC0FFD1F6F2D7F
:1001400080850E94673B2196C430D105A9F7DF91D5
:10015000CF911F910F91FF900895CF93DF93EC0102
:1001600060E08F810E94A03B81E090E00E94993A7C
:1001700061E08F810E94A03B81E090E00E94993A6B
:1001800060E08F810E94A03B84E690E0DF91CF91F8
:100190000C94993AEF92FF920F931F93CF93DF93B2
:1001A0008C01C0E0D0E0E62EF12CB7010C2E02C08D
:1001B000759567950A94E2F76170F801EC0FFD1FE1
:1001C00080850E94A03B2196C430D10571F7C801FB
:1001D000DF91CF911F910F91FF90EF900C94AD00A4
:1001E0001F93CF93DF93EC01162F642F8D810E9414
:1001F000A03B612F70E084E0759567958A95E1F7E3
:10020000CE010E94CA00612FCE01DF91CF911F91D4
:100210000C94CA0040E00C94F00061E00E940A01D6
:1002200080ED97E00C94993A62E00E940A0180ED1B
:1002300097E00C94993A443008F043E0FC0124899B
:10024000421710F04FEF420FFC01E40FF11D25891A
:10025000260F2068622F0C940A01FC016189262F69
:100260002460218B6C600C940A01FC0161896D7F14
:10027000618B68600C940A01FC016189262F226061
:10028000218B6A600C940A01FC0161896E7F618B8D
:1002900068600C940A01FC016189262F2160218B82
:1002A00069600C940A01CF92DF92EF92FF920F9354
:1002B0001F93CF93DF9300D0CDB7DEB78C0167706B
:1002C00088E0689FB00111246064C80149835A83A3
:1002D0000E940A014981C42E5A81D52EE12CF12CAD
:1002E000D6016D916D01D801ED91FC910190F081E5
:1002F000E02DC8010995BFEFEB1AFB0AE8E0EE1606
:10030000F10471F70F900F90DF91CF911F910F9132
:10031000FF90EF90DF90CF90089541E00E94F000B1
:1003200081E090E00895CF93DF93EC01423018F024
:1003300088898860888B4C8B1D8A80E48E8B61E075
:10034000CE010E948F0061E08F810E94673B80E5B3
:1003500093EC0E94993A60E08D810E94A03B60E09E
:100360008F810E94A03B63E0CE010E94CA0084E915
:1003700091E10E94993A63E0CE010E94CA0084E9AB
:1003800091E10E94993A63E0CE010E94CA0086E999
:1003900090E00E94993A62E0CE010E94CA0068890A
:1003A0006062CE010E940A0184E0898BCE010E9426
:1003B0002D01CE01DF91CF910C940D01FC01138230
:1003C000128284E191E09183808388E0858389E0D3
:1003D0008783148284E0808785E0818786E0828736
:1003E00087E08387108A20E041E060E1CF010C9430
:1003F000930120E042E060E10C949301CF93DF93FE
:10040000EC010E94DE018DE291E099838883CE01A8
:10041000DF91CF910C94F9011F93CF93DF93EC01FF
:10042000162F81E01827412F61E0CE010E941B01A9
:1004300068E171E0CE010E943D3C412F61E0CE01B8
:10044000DF91CF911F910C941B010F931F93CF93BA
:10045000DF93EC018B01642F0E940C02B801CE01E6
:10046000DF91CF911F910F910C943D3C40E00C9493
:1004700025020F931F93CF93DF93CDB7DEB7289755
:100480000FB6F894DEBF0FBECDBF88E0E8E0F1E024
:10049000DE01119601900D928A95E1F784E594E0D2
:1004A0000E940D01AE014F5F5F4F67E084E594E06D
:1004B0000E94530184E594E00E944B0164E574E0DE
:1004C00084EF92E00E94A70761E08AE00E94673B08
:1004D00064E670E08AE00E94DF3A0EE711E062E035
:1004E000F80181918F010E94673BF1E005381F07F9
:1004F000B1F728960FB6F894DEBF0FBECDBFDF91DF
:10050000CF911F910F910895DF92EF92FF920F9379
:100510001F93CF93DF93C9E7D1E061E089910E94F7
:10052000A03B81E0CE37D807C1F7C9E7D1E0E12C85
:10053000D99060E08D2D0E94A03B0EE711E0F12CD8
:10054000F80181918F010E94D63B892B31F48F2DC8
:10055000880F880F8F0D8E0D0DC0F394F7E0FF12FA
:10056000EFCF61E08D2D0E94A03BE39485E0E8127F
:10057000DFCF8FEFDF91CF911F910F91FF90EF9021
:10058000DF900895CF92DF92EF92FF920F931F9327
:10059000CF93DF939C0165E070E00E94633C7B0198
:1005A0006C0137FD22C009E711E0C0E0D0E0F8019E
:1005B00081918F0161E0CC15DD0509F460E00E94B6
:1005C000A03B2196C530D10591F7F701E258FE4FC7
:1005D000C0818C2F0E94D63B892B39F46AE070E0F1
:1005E00080E090E00E945F3AF4CFDF91CF911F91BD
:1005F0000F91FF90EF90DF90CF9008950F931F938E
:10060000CF93DF9309E711E0C0E0D0E0F8018191DA
:100610008F0161E0209709F460E00E94A03B2196E1
:10062000C530D10599F783B7817F846083BFF89483
:1006300080917A008F7780937A001092690081E030
:100640008DBB8FE380937E0083E080937F0083B730
:10065000816083BF85B7806685BF8F7D85BF7894B5
:10066000889583B78E7F83BF10927F0010927E00A3
:10067000DF91CF911F910F910895CF930E94840233
:10068000C82F87FD16C0282F332727FD3095F90185
:10069000EB5AFE4F6081F901EF5CFE4F40811092F2
:1006A000F3021092F2026F3F21F084EF92E00E9479
:1006B000A3102091F0023091F102232B39F4209104
:1006C000F2023091F3022935324074F168E084E59A
:1006D00094E00E940A0160E070E08AE00E94DF3A44
:1006E00082E00E94D63B892B39F464E670E080E01A
:1006F00090E00E945F3AF4CF0E94FE0264E670E050
:1007000080E090E00E945F3A1092F3021092F202B1
:1007100021E030E03093F1022093F0024EE261E2FA
:1007200084EF92E00E94A3108C2F992787FD90956B
:100730000E94C2028091F2029091F302019690937E
:10074000F3028093F20262E370E080E090E0CF91E8
:100750000C945F3A1F920F920FB60F9211241DBA9C
:100760000F900FBE0F901F90189584E594E00E94A3
:10077000FE0184EF92E00C94AF06CF93DF9385E403
:1007800094E00E94D21181E493E0892B59F484E330
:1007900093E00E94D21188EF92E0892BB1F0C4E37C
:1007A000D3E00BC0C5E4D4E02A97CE010E94D21159
:1007B00083E0C134D807C1F7EACF2A97CE010E945F
:1007C000D21182E0C83FD807C1F7DF91CF910895D9
:1007D000DF92EF92FF920F931F93CF93DF93CDB7EA
:1007E000DEB764970FB6F894DEBF0FBECDBF8C01A5
:1007F000D62ECE010B960E94F91078012BE4E20E62
:10080000F11CF701808180FD31C0982F91609083A9
:100810009DE290937604E7E7F4E0119224E0E83853
:10082000F207D9F786FD09C060E0F8018081918167
:100830000E940C02C8010E942B0781E0809375047E
:100840001092740410927304109272041092710446
:100850001092700410926F04F801808191810E94BF
:100860003C01F801808191810E944B01F9E3FD1563
:10087000DCF020E3D2160CF051C03DE0D31609F4B1
:10088000BAC13D1544F0DD2009F440C248E0D41659
:1008900009F43BC107C281E2D81609F4F4C19EE213
:1008A000D91609F4C6C0FEC1EFE5DE1609F475C01D
:1008B000ED15FCF0F5E4DF1609F4EDC028E5D216DD
:1008C00009F476C13FE3D312EDC1F701808192E0D4
:1008D00089278083C8010E942B076091750480914D
:1008E0007404680F41E0F801808191810E941B012E
:1008F0000DC241E6D4160CF4D5C186E68D152CF454
:100900009FE7D91609F401C1CDC1F801E45AFE4FA1
:100910008081882309F4C6C1E0EEDE0E8091700468
:100920008823D9F020917104309172044AE0429FEB
:10093000C001439F900D11242D2D332727FD3095A5
:1009400020533109820F931F8333F1E09F070CF08E
:10095000DDC19093720480937104E091750481E08D
:100960008E0F80937504FF27E7FDF095EA58FB4F43
:10097000D0826D2DF801808191810E943F3CF7016A
:10098000808186FFC3C18091750483300CF033C130
:10099000F1E3FD150CF42FC1B9C1809170048823D7
:1009A00079F120916F0481E0282720936F048091D2
:1009B0006E04992787FD90958A589B4FE0E0DC01F3
:1009C000AE0FB11DE7FDBA953C91332371F0EF5F97
:1009D0003730A9F7FF27E7FDF0952111A9C1E80FEE
:1009E000F91F80818D3209F4ABC1909175042223E7
:1009F00011F081E001C08FEF890F8093750406C06C
:100A00008091740491E089278093740460E0F80178
:100A1000808191810E940C026091740481E06827BA
:100A200070E06A587B4FF801808191810E943D3CC3
:100A30006DC18091730481112AC080917504823048
:100A40009CF460E3F801808191810E943F3CE09139
:100A5000750481E08E0F80937504FF27E7FDF09504
:100A6000EA58FB4F80E38083E091750481E08E0FAC
:100A700080937504FF27E7FDF095EA58FB4F8EE25F
:100A800080836EE2F801808191810E943F3C81E089
:100A9000809373043BC18091700481112CC08091BC
:100AA0007504813099F461E3F801808191810E949D
:100AB0003F3CE091750481E08E0F80937504FF2721
:100AC000E7FDF095EA58FB4F81E38083E0917504E0
:100AD000E0936E0481E08E0F80937504FF27E7FD9D
:100AE000F095EA58FB4F87E0808367E0F80180814A
:100AF00091810E943F3C81E08093700410927204C7
:100B00001092710410926F0401C12091750421505C
:100B100020937504E22FFF27E7FDF095EA58FB4F7D
:100B200080818E3219F41092730404C0853611F45A
:100B30001092700490917004992321F08D3211F479
:100B400010926F0480917104909172046AE070E0D9
:100B50000E94633C7093720460937104108222308F
:100B600004F5F7011082F801E65BFF4F80819801E0
:100B70004AE0849F200D311D1124C90104960E9472
:100B8000EF18BC01F801808191810E943602B80102
:100B9000CE0101960E940E08CE0101960E94D2114C
:100BA000B5C060E0F801808191810E940C0216C0FE
:100BB000F801E45AFE4F808191E0892780838823E1
:100BC00019F060E170E002C06AE070E0C801805C8A
:100BD0009F4F0E94D614C8010E942B076091740495
:100BE00081E0682770E06A587B4FF801808191812D
:100BF0000E9436028BC0E0917504FF27E7FDF09557
:100C0000EA58FB4F10826091740481E0682770E01D
:100C10006A587B4F40E050E0CE0101960E941619C1
:100C2000BE016F5F7F4FCE010B960E948B11CE01EC
:100C300001960E94D211F701808186FF0BC0CE0180
:100C40000B960E947113B901C801805C9F4F0E94EE
:100C5000CA1411C0F801E65BFF4F808198014AE099
:100C6000849F200D311D1124C901BE01655F7F4F96
:100C700004960E948B11F7011082F801E45BFF4F8C
:100C800081E080830BC0F7011082B801CE0101968C
:100C90000E940E08CE0101960E94D211C8010E9446
:100CA0009F0734C0F70180818E7F8083E0917504B7
:100CB000FF27E7FDF095EA58FB4F108280917404FE
:100CC00091E08927682F70E06A587B4F40E050E040
:100CD000CE0101960E941619F801E65BFF4F808154
:100CE00098014AE0849F200D311D1124C901BE01E5
:100CF0006F5F7F4F04960E948B11CE0101960E9478
:100D0000D2114EE26D2DC8010E94A310CE010B96A8
:100D10000E94D21164960FB6F894DEBF0FBECDBF0D
:100D2000DF91CF911F910F91FF90EF90DF90089589
:100D3000E80FF91F80818D3209F457CE8DE207C08C
:100D40008081882309F451CE81818193F9CF9081EC
:100D50008927982791938927D1F7108246CEAF92A1
:100D6000BF92CF92DF92EF92FF920F931F93CF9398
:100D7000DF93CDB7DEB72A970FB6F894DEBF0FBE6C
:100D8000CDBF8C017C0184E0E80EF11C6701ECE32F
:100D9000CE0ED11CC7010E94F910FAE0EF0EF11C33
:100DA000EC14FD04B9F7680180E4C80ED11CC6013B
:100DB0000E94F9107801EDE4EE0EF11C5801FFEAF3
:100DC000AF1AFEEFBF0AC7010E94F9108AE0E80ED1
:100DD000F11CEA14FB04B9F7C7010E94F910F801ED
:100DE000E55BFF4F108260E070E0CE0101960E944B
:100DF0002211BE016F5F7F4FC6010E948B11CE0191
:100E000001960E94D211F801E45BFF4F81E08083DC
:100E1000E15FFE4F808331961082E251F1401082F3
:100E2000ED5EFE4F10823296808384E690E0F801FA
:100E3000938382832A960FB6F894DEBF0FBECDBF90
:100E4000DF91CF911F910F91FF90EF90DF90CF90A6
:100E5000BF90AF900895CF93DF93EC018881998183
:100E60000E941401FE01E45AFE4F8081811106C0E8
:100E700031978081882321F060E203C068E701C0D8
:100E800062E7888199810E943F3C41E060E088816F
:100E900099810E941B01FE01E55BFF4F808181FF6C
:100EA00002C06EE501C060E288819981DF91CF9137
:100EB0000C943F3CFF920F931F93CF93DF93EC0171
:100EC000888199810E943501888199810E9444011D
:100ED000CE010E942B078E01065B1F4FF801808117
:100EE00090E0019666E070E00E94633C2AE0F22EFA
:100EF000F89E9001F99E300D11242C5F3F4FCE01DA
:100F0000820F931F0E94EF1841E0BC0188819981F4
:100F10000E942502F80180819E01F89E200D311D5E
:100F20001124C90104960E94EF18BC01888199819F
:100F3000DF91CF911F910F91FF900C943602FC012D
:100F4000E55BFF4F208120FF0C945A0708950F9313
:100F50001F93CF93DF93CDB7DEB764970FB6F894A6
:100F6000DEBF0FBECDBF8C01FC01718360836AE5DB
:100F700070E0CE010B960E942211BE01655F7F4F8B
:100F8000CE0101960E9462116BE974E0CE010196D8
:100F90000E943C12BE016F5F7F4FC8018F5A9E4F67
:100FA0000E948B11CE0101960E94D211CE010B96A8
:100FB0000E94D211C8010E949F0764960FB6F89450
:100FC000DEBF0FBECDBFDF91CF911F910F9108956E
:100FD0009C01DC01A65BBF4F8C918B5F66E00E9499
:100FE000573C9C93E92FF0E0CF01019666E070E05A
:100FF0000E94633C4AE0489FB001499F700D112454
:101000006C5F7F4F620F731F4E9FC0014F9F900D0B
:1010100011240496820F931F0C948B11CF92DF92B0
:10102000EF92FF920F931F93CF93DF93CDB7DEB76D
:101030002A970FB6F894DEBF0FBECDBF6C018B01AF
:101040007B018AE4E80EF11CF70180818F5F66E086
:101050000E94573C908360E070E0CE0101960E94B0
:101060002211F7012081822F90E0059666E070E062
:101070000E94633C4AE0489F9001499F300D112433
:101080002C5F3F4FBE016F5F7F4FC801820F931FE0
:101090000E948B11CE0101960E94D211B801605CB2
:1010A0007F4FC6010E946211C6012A960FB6F894BE
:1010B000DEBF0FBECDBFDF91CF911F910F91FF908B
:1010C000EF90DF90CF900895BF92CF92DF92EF9292
:1010D000FF920F931F93CF93DF93CDB7DEB72A977D
:1010E0000FB6F894DEBF0FBECDBF8C017C012AE4A1
:1010F000E20EF11CF701808190E0019636E0C32EEC
:10110000D12CB6010E94633C4AE0B42EB89EB001D7
:10111000B99E700D11246C5F7F4F600F711FCE015F
:1011200001960E946211F701808190E0B89E9001C3
:10113000B99E300D11242C5F3F4F200F311F0196B7
:10114000B6010E94633CB89EA001B99E500D1124C7
:101150004C5F5F4FB901C801840F951F0E948B112E
:10116000F70180819801B89E200D311D1124C9011D
:10117000BE016F5F7F4F04960E948B11CE010196D6
:101180000E94D2112A960FB6F894DEBF0FBECDBFD3
:10119000DF91CF911F910F91FF90EF90DF90CF9053
:1011A000BF900895CF93DF93EC01888199810E94CD
:1011B0000D0141E065E871E088819981DF91CF916F
:1011C0000C942502BF92CF92DF92EF92FF920F9381
:1011D0001F93CF93DF93CDB7DEB7C654D1090FB6B7
:1011E000F894DEBF0FBECDBF7C01B62E6C0120E4AB
:1011F000C20ED11CB601CE01CD960E94621105E14E
:1012000015E525EB3BEB41EB5BE662E070E4CE01DC
:10121000C3960E9450118701055B1F4F3FE3F80101
:101220008081B31609F4A6C284FD12C0C7010E94D2
:10123000D208F701E65BFF4F8081B701FAE08F9F8C
:10124000600D711D11246C5F7F4FC6010E948B11D0
:1012500028E5B21609F4C8C22B150CF44DC03EE2C5
:10126000B31609F4C5C03B159CF141E2B41609F46C
:10127000A2C24B155CF088E0B81609F45BC29DE091
:10128000B912C9C2C7010E94E807C5C2EBE2BE1687
:1012900009F4E4C0FDE2BF1609F4F7C02AE2B21275
:1012A000BAC2B701CE0101960E940E08F701E65BB3
:1012B000FF4F8081F7012AE0829FE00DF11D11248C
:1012C000CF01BE016F5F7F4F04960E946E12F3C084
:1012D00039E33B152CF040E3B4160CF4F1C088C0A0
:1012E00082E5B81609F45BC293E5B91609F44CC25D
:1012F000E5E4BE1290C27CC0F5E6BF1609F471C1E8
:10130000FB150CF458C021E6B21609F4F0C02B15F9
:101310008CF13CE5B31609F40DC24FE5B4127BC263
:1013200067013AE4C30ED11CF60180816AE0B62E53
:101330008701B89E000D111D11240C5F1F4F6FEF28
:101340007FEFCE0101960E942211BE016F5F7F4F99
:10135000C8010E946E12CE0101960E94D211F601C0
:1013600080819701B89E200D311D1124C901B8015B
:10137000049607C28701065B1F4F83E6B81609F47F
:101380000AC18B150CF4DCC0F80180812AE0D22E52
:10139000B701D89E600D711D11246C5F7F4FCE0187
:1013A0000B960E946211BE01655F7F4FCE010196D0
:1013B0000E949A35DBC098E6B91609F458C19B150E
:1013C0005CF0E6E6BE1609F44CC1F7E6BF1223C294
:1013D000C7010E9464081FC22AE6B21609F489C137
:1013E000B2160CF465C13FE7B31609F4A3C113C2EA
:1013F000F701E45BFF4F8081882339F0F801808199
:1014000086FD03C0C7010E94E807F701E65BFF4FB6
:10141000808190E0019666E070E00E94633C4AE0C3
:10142000489F9001499F300D11242C5F3F4FC70109
:10143000820F931F0E94EF1841E0BC01F7018081E9
:1014400091810E94250260E0F701808191810E94D4
:101450000C026B2DC7010E94E803E0C1B701CE0169
:1014600001960E940E08F701E65BFF4F808197010D
:101470004AE0849F200D311D1124C901BE016F5F18
:101480007F4F04960E94D81116C0B701CE01019675
:101490000E940E08F701E65BFF4F8081F7012AE00A
:1014A000829FE00DF11D1124CF01BE016F5F7F4FC0
:1014B00004960E940A12CE0101960E94D211ABC17D
:1014C000B701CE0101960E940E08F701E65BFF4FBF
:1014D0008081F7012AE0829FE00DF11D1124CF01E8
:1014E000BE016F5F7F4F04960E943C12E4CF6701FC
:1014F0003AE4C30ED11CF60180813AE0B32E870195
:10150000B89E000D111D11240C5F1F4F61E070E0AB
:10151000CE010B960E942211BE01655F7F4FCE0166
:1015200001960E946211B801CE0101960E943C1200
:10153000F60180819701B89E200D311D11241DC038
:10154000F8018081BAE0DB2EB701D89E600D711DD5
:1015500011246C5F7F4FCE010B960E946211BE0179
:10156000655F7F4FCE0101960E944334F801808170
:101570009701D89E200D311D1124C901BE016F5F56
:101580007F4F04960E948B11CE0101960E94D211CA
:10159000CE010B9692CFF80180819AE0D92E970167
:1015A000D89E200D311D1124C90104960E9460139C
:1015B00081114DC1F801808190E0019666E070E0F4
:1015C0000E94633CD89E9001D99E300D11242C5F5F
:1015D0003F4FC701820F931F0E946013811190C17A
:1015E00036C18701065B1F4FF8018081AAE0DA2E21
:1015F000B701D89E600D711D11246C5F7F4FCE0125
:1016000045960E946211BE016B5E7F4FCE010B9624
:101610000E944334BE01655F7F4FCE0101960E9458
:101620006211BE016D5C7F4FCE0101960E943C129B
:10163000F80180819701D89E200D311D1124C90128
:10164000BE016F5F7F4F04960E948B11CE01019601
:101650000E94D211CE010B960E94D211CE01459666
:101660002CCFB701CE0101960E940E0824CF87012E
:10167000065B1F4FF8018081FAE0DF2EB701D89E8C
:10168000600D711D11246C5F7F4FCE010B960E947F
:101690006211B7016F5A7E4FCE010B960E943C1229
:1016A000BE01655F7F4FCE0101960E9458315ECF2B
:1016B0008701065B1F4FF8018081EAE0DE2EB7014B
:1016C000D89E600D711D11246C5F7F4FCE010B966B
:1016D0000E946211B7016F5A7E4FCE010B960E9495
:1016E0003C12BE01655F7F4FCE0101960E94A03380
:1016F0003DCF8701065B1F4FF80180817AE0D72E2E
:10170000B701D89E600D711D11246C5F7F4FCE0113
:101710000B960E946211B7016F5A7E4FCE010B9655
:101720000E943C12BE01655F7F4FCE0101960E9470
:10173000E2331CCF60E070E0CE0101960E942211DE
:10174000F701E65BFF4F8081F7012AE0829FE00D01
:10175000F11D1124CF01BE016F5F7F4F04960E94DF
:101760008B11CE0101960E94D211F701E45BFF4F6D
:10177000108251C092E089278083BE01635C7F4F55
:10178000C6010E948B1147C06AE871E0F7018081B1
:1017900091810E943602F801808180610AC06EE862
:1017A00071E0F701808191810E943602F801808109
:1017B0008062808333C08091F0029091F102F1E069
:1017C0008F279093F1028093F002892B39F56CE01A
:1017D000F701808191810E940A01F7016281738182
:1017E0008AE00E94DF3A17C0BE01635C7F4FC601EA
:1017F0000E948B11F701E45AFE4F808191E0892706
:101800008083882319F060E170E002C06AE070E034
:10181000C6010E94D614C7010E949F07CE01C3963D
:101820000E94D211CE01CD960E94D211CA5BDF4F29
:101830000FB6F894DEBF0FBECDBFDF91CF911F91E1
:101840000F91FF90EF90DF90CF90BF900895F80137
:10185000808190E0019666E070E00E94633C5AE06F
:10186000D52ED89EB001D99E700D11246C5F7F4F8C
:101870006E0D7F1DCE014F960E946211BE01615E0A
:101880007F4FCE0145960E944334B701CE01899621
:101890000E940E08BE01675D7F4FCE010B960E942D
:1018A0006211BE016B5E7F4FCE010B960E946E12DD
:1018B000BE01655F7F4FCE0101960E948932F8011B
:1018C00080819701D89E200D311D1124C901BE01D0
:1018D0006F5F7F4F04960E948B11CE0101960E948C
:1018E000D211CE010B960E94D211CE0189960E9490
:1018F000D211CE0145960E94D211CE014F96DDCD78
:10190000B701CE0101960E940E08CE0101960E94F9
:10191000D21160E070E0CE0101960E942211F80120
:1019200080819701D89E200D311D1124C901BE016F
:101930006F5F7F4F04960E948B11BDCD2F923F9217
:101940004F925F926F927F928F929F92AF92BF92CF
:10195000CF92DF92EF92FF920F931F93CF93DF937B
:10196000CDB7DEB7C555D1090FB6F894DEBF0FBEAF
:10197000CDBF4C01262F3C0130E4630E711CB30136
:10198000CE01895B9F4F66962FAF66970E946211CA
:1019900066962FAD6697213609F412C12F3309F4EC
:1019A00033C38401055B1F4FF801808184FD15C09E
:1019B000C4010E94D208F401E65BFF4F8081B401AC
:1019C000FAE08F9F600D711D11246C5F7F4FC30182
:1019D0000E948B1166962FAD66972F3509F41AC2B7
:1019E0000CF090C02D3209F4F3C2ECF4213209F46A
:1019F00030C224F42D3009F016C306C32A3209F48C
:101A0000DEC22B3209F00FC362E971E0F40180817C
:101A100091810E94360280E4F801808360E0C40175
:101A20000E94E80316C32A330CF056C020330CF092
:101A3000EBC22F3209F0F7C2C401865B9F4F639659
:101A40009FAF8EAF6397FC01808190E0019666E0C6
:101A500070E00E94633CFAE0F89F9001F99F300D1E
:101A600011242C5F3F4FC401820F931F0E947113FA
:101A700019012A013B0164968FAF649765969FAF69
:101A80006597B401CE010B960E940E08CE010B960D
:101A90000E94711359016A017B018C019101A2011D
:101AA000B30164968FAD649765969FAD65970E946C
:101AB000153DBA01422F532FCE0101960E943A11D3
:101AC0006396EEADFFAD6397808194014AE0489F35
:101AD000200D311D11249DC2253409F0A4C28401BA
:101AE000065B1F4FF80180817AE0772EB401789E63
:101AF000600D711D11246C5F7F4FCE0101960E9415
:101B0000A9149AC1253609F402C17CF58401065B4B
:101B10001F4F223609F465C024F4213609F083C230
:101B20004FC0233609F47CC0243609F07CC2F8018A
:101B30008081FAE07F2EB401789E600D711D112422
:101B40006C5F7F4FCE010B960E946211BE01655FF4
:101B50007F4FCE0101960E948932F8018081940165
:101B6000789E200D311D112454C2283609F4D0C1AD
:101B70003CF4263609F40EC1273609F476C153C267
:101B80008401065B1F4F293609F4DCC12A3609F0AF
:101B90004AC2F80180814AE0742EB401789E600D3B
:101BA000711D11246C5F7F4FCE0145960E9462111A
:101BB000BE016B5E7F4FCE010B960E940736D8C1E7
:101BC000C4010E94E807F401E65BFF4F80819401A5
:101BD0004AE0849F200D311D1124C901B3010496F0
:101BE0002FC2F8018081BAE05B2E3401589E600C50
:101BF000711C112493012C5F3F4F3901B901CE01B3
:101C000001960E946211B301CE0101960E946E12EC
:101C1000F80180819401589E200D311D112413C1BB
:101C2000F801808190E0019666E070E00E94633CDC
:101C3000AAE07A2E789EB001799E700D11246C5F17
:101C40007F4F680D791DCE014F960E946211BE0133
:101C5000615E7F4FCE0145960E944334B401CE01B0
:101C6000C3960E940E0861E070E0CE01CD960E94FE
:101C70002211BE01635C7F4FCE0189960E946211E2
:101C8000BE016D5C7F4FCE0189960E943C12BE0161
:101C9000675D7F4FCE010B960E946211BE016B5EA5
:101CA0007F4FCE010B960E946E12BE01655F7F4F83
:101CB000CE0101960E948932F80180819401789EBC
:101CC000200D311D1124C901BE016F5F7F4F0496A5
:101CD0000E948B11CE0101960E94D211CE010B966B
:101CE0000E94D211CE0189960E94D211CE01CD96CA
:101CF0000E94D211CE01C3960E94D211CE01459608
:101D00000E94D211CE014F960E94D2119BC16AE06F
:101D100070E0CE014F960E942211BE01615E7F4F9E
:101D2000CE0145960E944334B401CE0189960E94AB
:101D30000E08BE01675D7F4FCE010B960E946211B7
:101D4000BE016B5E7F4FCE010B960E946E12BE01EC
:101D5000655F7F4FCE0101960E948932F401E65BF8
:101D6000FF4F8081F4012AE0829FE00DF11D1124D4
:101D7000CF01BE016F5F7F4F04960E948B11CE0191
:101D800001960E94D211CE010B960E94D211CE0173
:101D90008996B2CFC4010E94E80762E070E0CE01EC
:101DA0000B960E94221108E11DE224E434E54BEF7A
:101DB00051E269EF7FE3CE0145960E945011BE01CA
:101DC0006B5E7F4FCE0101960E946211BE01655F7E
:101DD0007F4FCE0101960E946E12F401E65BFF4F29
:101DE0008081F4012AE0829FE00DF11D1124CF01D2
:101DF000BE016F5F7F4F04960E948B11CE0101964A
:101E00000E94D211CE0145960E94D211CE010B96AE
:101E10000E94D2118401065B1F4FF8018081EAE025
:101E20007E2EB401789E600D711D11246C5F7F4F72
:101E3000CE0101960E944114F80180819401789EA0
:101E4000200D311D1124C901BE016F5F7F4F049623
:101E50005AC067E971E0F401808191810E943602E5
:101E6000F801808180688083F4C0BE01695B7F4F88
:101E7000C3010E948B11F401E55AFE4F808191E06D
:101E80008927808394012F5A3E4F3901882389F195
:101E900008E11DE224E434E54BEF51E269EF7FE312
:101EA000CE010B960E9450116AE570E0CE01459676
:101EB0000E942211BE016B5E7F4FCE0101960E94EF
:101EC0006211BE01655F7F4FCE0101960E943C12F8
:101ED000BE016F5F7F4FC3010E948B11CE0101963F
:101EE0000E94D211CE0145960E94D211CE010B96CE
:101EF0000BCF61E070E0CE0101960E942211BE017D
:101F00006F5F7F4FC3010E948B11CE010196FCCE03
:101F10008401065B1F4FF80180816AE0762EB401D0
:101F2000789E600D711D11246C5F7F4FCE01459628
:101F30000E946211BE016B5E7F4FCE010B960E9424
:101F4000F53816C0F80180815AE0752EB401789EEC
:101F5000600D711D11246C5F7F4FCE0145960E946C
:101F60006211BE016B5E7F4FCE010B960E94A639B7
:101F7000BE01655F7F4FCE0101960E946211B401E0
:101F80006F5A7E4FCE0101960E946E12F801808139
:101F90009401789E200D311D1124C901BE016F5F8F
:101FA0007F4F04960E948B11CE0101960E94D211A0
:101FB000CE010B960E94D211CE014596A5CEF4011A
:101FC000E25AFE4F808191E089278083319708C0D3
:101FD000F401E35AFE4F808191E089278083319696
:101FE0001082F401E25AFE4F4081411107C031973F
:101FF0008081811103C06AE070E002C060E070E09F
:10200000C3010E94CF141EC0622FC4010E94E208C7
:1020100020C0C901BE016F5F7F4F04960E948B11E3
:10202000CE01019661CFF401E65BFF4F8081B401E0
:102030009AE0899F600D711D11246C5F7F4FC30171
:102040000E948B11F401E55BFF4F1082C4010E94D6
:102050005A07CE01895B9F4F0E94D211CB5ADF4FA6
:102060000FB6F894DEBF0FBECDBFDF91CF911F91A9
:102070000F91FF90EF90DF90CF90BF90AF909F9027
:102080008F907F906F905F904F903F902F9008952A
:10209000FC01E65BFF4F2081EAE0AC01E29F400DCE
:1020A000511D11249A012C5F3F4F772767FD7095D2
:1020B00061567109E69FA001E79F500D1124435B13
:1020C0005F4FB901840F951F0C948B11EF92FF9213
:1020D0000F931F93CF93DF931F92CDB7DEB77C0191
:1020E0008C01045B1F4FF8018081882329F0C70110
:1020F00069830E94E807698181E0F8018083862F67
:10210000992787FD9095815691092AE0289FB00173
:10211000299F700D1124635B7F4F6E0D7F1DF701AA
:10212000E65BFF4F8081A701289F400D511D1124C0
:10213000CA0104960F90DF91CF911F910F91FF90EC
:10214000EF900C948B110F931F93CF93DF93EC01BF
:102150008C01055B1F4FF801808187FF17C010823B
:10216000862F992787FD9095C0976AE070E00E94BE
:10217000633C14E0880F991F1A95E1F708969B833A
:102180008A83BC018AE00E94DF3A13C0982F9073C3
:10219000B9F0633551F0642F84FF04C0CE010E9472
:1021A000481003C0CE010E946610F80180818F7C28
:1021B0008083CE01DF91CF911F910F910C949F07E7
:1021C00080FF07C0CE01DF91CF911F910F910C943A
:1021D000E80381FF07C0CE01DF91CF911F910F91DE
:1021E0000C949E0CCE01DF91CF911F910F910C9416
:1021F000E208CF93DF93EC018DEA91E09983888325
:1022000060E070E0CB010E94D02F2A833B834C8397
:102210005D836E837F8388879987DF91CF9108954F
:102220000F931F93FC018DEA91E0918380830283D9
:1022300013832483358346835783608771871F9177
:102240000F910895CF93DF93EC018DEA91E099838C
:102250008883882777FD8095982F0E94D02F2A8326
:102260003B834C835D836E837F8388879987DF916F
:10227000CF910895CF93DF93EC018DEA91E099839C
:102280008883CB01BA010E94D02F2A833B834C83E1
:102290005D836E837F8388879987DF91CF910895CF
:1022A0000F931F93FC018DEA91E091838083028359
:1022B00013832483358346835783608771871F91F7
:1022C0000F910895FC01DB018DEA91E091838083F9
:1022D000E617F707F9F012968C91129782831396FE
:1022E0008C911397838314968C91149784831596FD
:1022F0008C911597858316968C91169786831796E1
:102300008C911797878318968C91189780871996C8
:102310008C9181870895FC01DB0186179707F9F0FE
:1023200012968C911297828313968C9113978383C4
:1023300014968C911497848315968C9115978583A8
:1023400016968C911697868317968C91179787838C
:1023500018968C911897808719968C918187CF0158
:102360000895FC01DB018C91828311968C91119769
:10237000838312968C911297848313968C91139772
:10238000858314968C911497868315968C91159756
:10239000878316968C911697808717968C918187E4
:1023A000CF0108952DEA31E0FC01318320830895A7
:1023B000AF92BF92CF92DF92EF92FF920F931F9353
:1023C000CF93DF93EC01FB01A280B380C480D58062
:1023D000E680F780008511852A813B814C815D81F3
:1023E0006E817F81888599850E94C5262A833B83DB
:1023F0004C835D836E837F8388879987CE01DF91CD
:10240000CF911F910F91FF90EF90DF90CF90BF90F1
:10241000AF900895AF92BF92CF92DF92EF92FF926A
:102420000F931F93CF93DF93EC01FB01A280B38046
:10243000C480D580E680F780008511852A813B81A4
:102440004C815D816E817F81888599850E94B62E41
:102450002A833B834C835D836E837F838887998740
:10246000CE01DF91CF911F910F91FF90EF90DF9000
:10247000CF90BF90AF900895AF92BF92CF92DF926E
:10248000EF92FF920F931F93CF93DF93EC01FB0129
:10249000A280B380C480D580E680F7800085118556
:1024A0002A813B814C815D816E817F818885998500
:1024B0000E940E272A833B834C835D836E837F8338
:1024C00088879987CE01DF91CF911F910F91FF905F
:1024D000EF90DF90CF90BF90AF900895AF92BF92F2
:1024E000CF92DF92EF92FF920F931F93CF93DF93E0
:1024F000EC01FB01A280B380C480D580E680F78028
:10250000008511852A813B814C815D816E817F81AF
:10251000888599850E94072B2A833B834C835D83A2
:102520006E837F8388879987CE01DF91CF911F913A
:102530000F91FF90EF90DF90CF90BF90AF900895F4
:10254000AF92BF92CF92DF92EF92FF920F931F93C1
:10255000FC01DB011296AC9012971396BC90139776
:102560001496CC9014971596DC9015971696EC90CF
:1025700016971796FC90179718960C91189719961E
:102580001C912281338144815581668177818085C8
:1025900091850E94872A1F910F91FF90EF90DF9005
:1025A000CF90BF90AF9008958F929F92AF92BF92BD
:1025B000CF92DF92EF92FF920F931F93CF93DF930F
:1025C000EC014B01FB01A280B380C480D580E68082
:1025D000F780008511852A813B814C815D816E8168
:1025E0007F81888599850E94872A811116C0F40110
:1025F000A280B380C480D580E680F78000851185F5
:102600002A813B814C815D816E817F81888599859E
:102610000E94392A91E0982701C090E0892FDF912C
:10262000CF911F910F91FF90EF90DF90CF90BF90CF
:10263000AF909F908F900895AF92BF92CF92DF920C
:10264000EF92FF920F931F93FC01DB011296AC9067
:1026500012971396BC9013971496CC9014971596D6
:10266000DC9015971696EC9016971796FC90179796
:1026700018960C91189719961C91228133814481E8
:10268000558166817781808591850E94392A1F91C5
:102690000F91FF90EF90DF90CF90BF90AF90089593
:1026A0000F93FC01228133814481558166817781BA
:1026B000808591850FE30E94073E822F0F91089538
:1026C000FC01B1E0228133814481558166817781AB
:1026D00080859185A0E00E944A3E09F0B0E08B2FF2
:1026E0000895EF920F93FC0122813381448155813B
:1026F00066817781E12C01E0808591850E94FF2E23
:102700000F91EF9008952F923F924F925F926F92A8
:102710007F928F929F92AF92BF92CF92DF92EF9271
:10272000FF920F931F93CF93DF93CDB7DEB7279719
:102730000FB6F894DEBF0FBECDBF322E432E542EFF
:10274000652E762E872E982E9F831A830983ED821D
:10275000CB82212C3C2D330F330B3E83232D342D84
:10276000452D562D672D782D892D9F81A0E00E9443
:102770004A3E09F43EC0AB80BE80CB2CDB2CEB2C58
:10278000FB2C0B2D1B2D232D342D452D562D672D68
:10279000782D892D9F810E94153D80E3820F8A3319
:1027A00014F087E3820F41E0420D4C83E981FA8106
:1027B000E20DF11D27FCFA958083AB80BE80CB2C07
:1027C000DB2CEB2CFB2C0B2D1B2D232D342D452D21
:1027D000562D672D782D892D9F810E94173D322E11
:1027E000432E542E652E762E872E982E9F832C8076
:1027F000B5CF20E3822D992787FD9095AD81E981A2
:10280000FA812A162CF4E80FF91F20832394F2CFC3
:1028100020E030E04C01B1E08B1A91083F01680ED6
:10282000791EA401420F531F66277727621B730B83
:1028300021503109641775074CF44081B301620FD0
:10284000731FDB015C9151934C93EBCFF30110822A
:1028500027960FB6F894DEBF0FBECDBFDF91CF91A4
:102860001F910F91FF90EF90DF90CF90BF90AF90AE
:102870009F908F907F906F905F904F903F902F90A0
:1028800008956F927F928F929F92AF92BF92CF9254
:10289000DF92EF92FF920F931F93CF93DF93CDB709
:1028A000DEB728970FB6F894DEBF0FBECDBF3C0150
:1028B0004B010E94621160E070E0CB010E94D02FBA
:1028C00059016A017B01F4012281338144815581E0
:1028D000668177818C01808591850E94872A882373
:1028E00011F16FEF7FEFCB010E94D02F59016A01E8
:1028F0007B01F40122813381448155816681778196
:102900008C01808591850E94072B29833A834B8314
:102910005C836D837E838F839887BE016F5F7F4F5B
:10292000C3010E94B111C30128960FB6F894DEBF0F
:102930000FBECDBFDF91CF911F910F91FF90EF9010
:10294000DF90CF90BF90AF909F908F907F906F90CF
:102950000895EF920F931F93CF93DF93EC01FB0148
:10296000228133814481558166817781E12C01E0A8
:10297000808591850E94ED2C89019A01AB01BC01F3
:10298000CE010E941011CE01DF91CF911F910F91C6
:10299000EF90089570930601609305010895709378
:1029A000040160930301409388040895609300013B
:1029B000772767FD70957093020160930101089578
:1029C000CF93DF93EC01FB011282138214821582F4
:1029D0001682178288EF80878FEF8187CE010E9451
:1029E0006211CE01DF91CF9108958F929F92AF92A5
:1029F000BF92CF92DF92EF92FF920F93FC01A280E1
:102A0000B380C480D580E680F780B085E1859501EC
:102A1000A601B7018B2F8F7090E0A0E00E944A3E84
:102A200071F08B2F9E2F04E30E94073E490187E03F
:102A3000982281E09FEF891697E0990609F080E0DF
:102A40000F91FF90EF90DF90CF90BF90AF909F904D
:102A50008F9008958F929F92AF92BF92CF92DF9204
:102A6000EF92FF920F93FC01A280B380C480D580C7
:102A7000E680F780B085E1859501A601B7018B2F2F
:102A80008F7090E0A0E00E944A3E71F48B2F9E2F41
:102A900004E30E94073E490187E0982281E09FEF0E
:102AA000891697E0990609F080E00F91FF90EF906A
:102AB000DF90CF90BF90AF909F908F9008952F920E
:102AC0003F924F925F926F927F928F929F92AF92BE
:102AD000BF92CF92DF92EF92FF920F931F93CF930B
:102AE000DF93CDB7DEB7A6970FB6F894DEBF0FBE63
:102AF000CDBF4C01788B6F87FC01F281F983FC011B
:102B0000F381FA83FC01F481FB83FC01F581FC83F2
:102B1000FC01F681FD83FC01F781FE83FC01F08559
:102B2000FF83FC01F185F88729813A814B815C8123
:102B30006D817E818F819F2FA0E00E944A3E1CF50F
:102B40006FEF7FEFCB010E94D02F59016A017B010B
:102B50008C0129813A814B815C816D817E818F81DD
:102B600098850E94072B29833A834B835C836D836E
:102B70007E838F8398878DE28093890421E030E003
:102B80003C8B2B8B02C01C8A1B8AC4010E94F5144B
:102B9000882329F06CE971E089E894E00BC0C40156
:102BA0000E942A15882349F060EA71E08B899C898C
:102BB00087579B4F0E94703EF7C2F40122813381F8
:102BC00044815581668177818085918504E30E94E7
:102BD000073E4901F7E09F222FEF821627E0920679
:102BE000C9F464EA71E089E894E00E94703E2091A3
:102BF00099041AE0C12EE12C0DE814E030E040E029
:102C000050E060E070E080E090E00E94831310925A
:102C10009904CAC270900101398139878A818A87F3
:102C20009B819B87EC81EC872D803E80FF81FEA3FA
:102C300028852DA3232F382F492F5E2FB1018F2FE9
:102C4000988504E30E94073EC90197709E878D878F
:102C5000672D772767FD7095872F972F0E94D02FBC
:102C60002D8F3E8F4F8F58A369A37AA38BA39CA36C
:102C7000B8E04B2E512C21E030E040E050E060E025
:102C800070E080E090E0972C990C9908A72CB92C63
:102C9000C92CD92CE92CF92C092D192D0E94913C15
:102CA000E1E04E1A510891F70E946C3059016A0117
:102CB0007B018C010E94072B298B3A8B2A013B0157
:102CC0004C012D853E85232B19F4212C312CCBC0B2
:102CD0008D859E858F3FE7E09E07B9F3109299049A
:102CE0001E861D868F3F93400CF052C029853A8581
:102CF0004B855C85B1018EA19DA104E30E94073E36
:102D0000590137E0B3228FEFA81683E0B8060CF024
:102D10004FC0809199048230C0F6A988BA886201B8
:102D20007301840129853A854B855C85B1018EA1AB
:102D30009DA10E94072B29873A874B875C871B013F
:102D40008EA39DA32D853E852F5F3F4F3E872D8708
:102D5000CDCF80919904823008F0B7CFA988BA8886
:102D600062017301840129853A854B855C85B10137
:102D70008EA19DA10E940E2729873A874B875C87E9
:102D80001B018EA39DA3ED85FE853197FE87ED8700
:102D9000A988BA8862017301840129853A854B8527
:102DA0005C85B1018EA19DA10E94872A882389F2AA
:102DB000612C712C29853A854B855C85B1018EA1EA
:102DC0009DA104E30E94073E490127E092223FEFC4
:102DD000831633E093060CF180919904823008F059
:102DE00074CFAD8CBE8CCF8CD8A0E9A0FAA00BA17B
:102DF0001CA129853A854B855C85B1018EA19DA1D9
:102E00000E940E2729873A874B875C871B018EA378
:102E10009DA3FFEF6F1A7F0ACDCFAD8CBE8CCF8CF8
:102E2000D8A0E9A0FAA00BA11CA129853A854B8561
:102E30005C85B1018EA19DA10E94072B2D8B3E8B3D
:102E40004F8B588F698F7A8F8B8F9C8F8D859E8546
:102E5000A4E0880F991FAA95E1F71301281A390AEF
:102E600081E0281A310880910301909104018215B4
:102E7000930534F091958195910928163906BCF493
:102E80009D899983EE89EA83FF89FB83288D2C83B2
:102E9000398D3D838A8D8E839B8D9F83EC8DE88752
:102EA0002091050130910601388B2F8702C0212C1B
:102EB000312C80918804882309F44DC0C10137FC6E
:102EC00009C063E070E00E94633C2C013FEF431AAD
:102ED000530A09C0019663E070E00E94633C2C0134
:102EE00083E0480E511C60900101812C912C21E05F
:102EF00030E040E050E060E070E080E090E0762C70
:102F0000770C77085301C72CD72CE72CF72C072D0B
:102F1000172D0E94913CEFEF8E1A9E0A841495049F
:102F20008CF30E946C3059016A017B018C012D8960
:102F30003E894F89588D698D7A8D8B8D9C8D0E942D
:102F4000072B29833A834B835C836D837E838F8336
:102F50009887241835088090010121E030E040E096
:102F600050E060E070E080E090E0612C712C982CE3
:102F7000990C9908EF85F889E615F7056CF054016E
:102F8000C92CD92CE92CF92C092D192D0E94913C22
:102F9000FFEF6F1A7F0AEECF0E946C3059016A0171
:102FA0007B018C01809101019091020197FD0196B6
:102FB000BC0175956795882777FD8095982F0E94AD
:102FC000D02F0E940E2759016A017B018C012981B3
:102FD0003A814B815C816D817E818F8198850E94D1
:102FE000C52629833A834B835C836D837E838F83DD
:102FF0009887E12C01E00E94FF2E29013A014B0144
:103000008A8799870E946C3059016A017B018C0183
:1030100029813A814B815C816D817E818F81988588
:103020000E94B62E29833A834B835C836D837E8313
:103030008F83988721143104E9F09201A301B40130
:103040008A859985A9E00E944A3EA1F09CF0EAE0B9
:10305000AE2EB12CC12CD12CE12CF12C00E010E0D3
:103060000E94173D29013A014B018A879987FFEF9A
:103070002F1A3F0A0B891C8907571B4FC09001016B
:10308000EE24E3949201A301B4018A8599850E94FC
:1030900083132B893C89820F931FEF85F889EF2BCF
:1030A00009F45BC03C01FFEF6F1A7F0A2EE2FC01BE
:1030B000E757FB4F20832F853889260D371D2F308A
:1030C000310534F02FE030E0281B390B388B2F8787
:1030D0004090010121E030E040E050E060E070E02D
:1030E00080E090E0812C912C542C550C5508EF85F4
:1030F000F8898E169F066CF45201C52CD52CE52C50
:10310000F52C052D152D0E94913CEFEF8E1A9E0A8D
:10311000EECF0E946C3059016A017B018C0129813C
:103120003A814B815C816D817E818F8198850E947F
:10313000072B29833A834B835C836D837E83C09006
:103140000101E12C02E00E94FF2E830107571B4F73
:10315000EF840E948313860D971D2114310421F101
:103160008C010F5F1F4F27E0FC01E757FB4F2083C7
:1031700037FE0AC0F801E757FB4F2DE22083319458
:10318000219431080F5F1F4F07571B4F932D990F45
:10319000990BC0900101E12C9101492F592F692F02
:1031A000792F892F0E94831389E894E0A6960FB6A1
:1031B000F894DEBF0FBECDBFDF91CF911F910F916D
:1031C000FF90EF90DF90CF90BF90AF909F908F9047
:1031D0007F906F905F904F903F902F9008956091F7
:1031E0000501709106010C945F15CF93DF93EB01FD
:1031F00060910501709106010E945F15009799F09A
:10320000FC0101900020E9F7AF0141505109481B32
:10321000590BE881F9810280F381E02DBC01CE01D8
:10322000DF91CF910994DF91CF9108952F923F9232
:103230004F925F926F927F928F929F92AF92BF92C6
:10324000CF92DF92EF92FF920F931F93CF93DF9372
:10325000CDB7DEB7A3970FB6F894DEBF0FBECDBFD4
:103260009D8B8C8B7BA36AA35F8B4E8B0E94F91086
:1032700019861A861B861C861D861E861F86188A3E
:10328000EAA1FBA1F081F98B19A2812C18A21F8E53
:103290002AE02A8B188E198E1A8E1B8E1C8E1D8E7C
:1032A0001E8E912C1B8A212C312CF989F11111C011
:1032B000609000010FE0802E912C21E030E040E092
:1032C00050E060E070E080E090E0762C770C7708CA
:1032D000E4C02F8D2111ECCFEAA1FBA14B89E40FB3
:1032E000F11D47FDFA955081598B51341CF4852FFF
:1032F000805302C08989875399899A3394F4903313
:10330000D4F49B3209F4C5C024F4973009F4BCC04E
:10331000B8C0E989ED3209F4AFC0EE3209F4A7C0B4
:10332000B0C0F989F1340CF4ACC0F73424F0FF35A7
:1033300009F4AFC0A6C0882071F020910001A1015E
:1033400024031001259F300C1124280E311C87FD09
:103350003A9483949EC0482E552447FC5094652C83
:10336000752C97FC3BC060910001772767FD709535
:10337000872F972F0E94D02F59016A017B01298541
:103380003A854B855C856D857E858C018F85988916
:103390000E94072B29873A874B875C876D877E873A
:1033A0008F87988BC301B2010E94D02F59016A0107
:1033B0007B0129853A854B855C856D857E858C01F1
:1033C0008F8598890E94C52629873A874B875C8715
:1033D0006D877E878F87988B93945BC02A89388D01
:1033E000498D5A8D6B8D7C8D8D8D9E8D0E946C309C
:1033F00059016A017B018C01C301B2010E94D02FE7
:103400000E940E2759016A017B0129853A854B8567
:103410005C856D857E858C018F8598890E94C52687
:1034200029873A874B875C876D877E878F87988B44
:103430009A94A09000011A2D110F110BB12EC12EDC
:10344000D12EE12EF12E012F2A89388D498D5A8DEA
:103450006B8D7C8D8D8D9E8D0E94913C2A8B388F3B
:10346000498F5A8F6B8F7C8F8D8F9E8F12C097FCE8
:1034700010C099249A940DC0882049F051E059A3B6
:1034800008C081E08F8F05C08824839402C091E03A
:1034900098A3EB89EF5FEB8B08CF5301C72CD72C98
:1034A000E72CF72C072D172D0E94913CE1E08E1A96
:1034B000910899F70E946C30922E832E742E652EFF
:1034C000562E472E898B9A8B60910001772767FDD6
:1034D0007095872F972F0E94D02F59016A017B0189
:1034E0008C01292D382D472D562D652D742D898958
:1034F0009A890E94072B922E832E742E652E562EAB
:10350000472E898B9A8BF9A1FF2309F45CC040E117
:1035100024163104F4F029853A854B855C856D8548
:103520007E85A92CB82CC72CD62CE52CF42C098927
:103530001A898F8598890E940E2729873A874B8799
:103540005C876D877E878F87988B20E1221A3108F0
:10355000DECF41018114910419F1609100017727B8
:1035600067FD7095872F972F0E94D02F59016A0110
:103570007B0129853A854B855C856D857E858C012F
:103580008F8598890E940E2729873A874B875C8709
:103590006D877E878F87988B51E0851A9108DACFE7
:1035A0008E899F89892B09F457C0EE89FF89808114
:1035B0009181FB898F0F911DF7FD9A95EE89FF8907
:1035C0009183808349C0E0E12E163104F4F029850F
:1035D0003A854B855C856D857E85A92CB82CC72CDA
:1035E000D62CE52CF42C09891A898F8598890E949C
:1035F000072B29873A874B875C876D877E878F8764
:10360000988B90E1291A3108DECF41018114910491
:1036100039F260910001772767FD7095872F972F0A
:103620000E94D02F59016A017B0129853A854B857B
:103630005C856D857E858C018F8598890E94072B1E
:1036400029873A874B875C876D877E878F87988B22
:10365000F1E08F1A9108DACFF8A1F11104C0BE0190
:10366000675F7F4F1EC06FEF7FEFCB010E94D02FAF
:1036700059016A017B0129853A854B855C856D85F9
:103680007E858C018F8598890E94072B29833A8338
:103690004B835C836D837E838F839887BE016F5FCE
:1036A0007F4F8C899D890E94B1118C899D89A39639
:1036B0000FB6F894DEBF0FBECDBFDF91CF911F9143
:1036C0000F91FF90EF90DF90CF90BF90AF909F90C1
:1036D0008F907F906F905F904F903F902F900895C4
:1036E0004F925F926F927F928F929F92AF92BF9212
:1036F000CF92DF92EF92FF920F931F93CF93DF93BE
:10370000CDB7DEB728970FB6F894DEBF0FBECDBF9A
:103710006B017C01DC01CB011BE1B695A795979568
:1037200087951A95D1F78F709927880F991FFC01FB
:10373000E153FE4FDC01A155BE4F0D90BC91A02D71
:10374000A70196018BE056954795379527958A9561
:10375000D1F7442755270E94863C24E1969587950A
:10376000779567952A95D1F740805180461A570A78
:10377000612C712CC701B601A30192010E94EA3CA1
:1037800007E00E94073E49015A0175016401C09497
:10379000D094E094F094C701B601A30192010E9475
:1037A000EA3C08E10E94073E29833A834B835C830D
:1037B00032015524442429813A814B815C81420E97
:1037C000531E641E751EB301A20180E090E0DC016F
:1037D00049825A836B837C838D839E83AF83B887B2
:1037E000C701B601A70196010E94EA3C00E20E94CF
:1037F000073E59016A017B018C0129813A814B8185
:103800005C8160E070E080E090E00E94913C00E329
:103810000E94073EC901DA01BC01CD01640D751D8E
:10382000861D971D28960FB6F894DEBF0FBECDBF3C
:10383000DF91CF911F910F91FF90EF90DF90CF908C
:10384000BF90AF909F908F907F906F905F904F90C0
:1038500008956115710521E08207910528F4CB01D7
:103860007727662720E101C020E0611571058105F9
:1038700031E0930728F4285F982F872F762F66274B
:10388000892F9927AA27BB27FC01E151FE4F808190
:10389000820F08950F931F93B22FA32FF42FE52FBC
:1038A00000E20E94073E022F132F242F352F01150F
:1038B00011052105310541F4AD01CF01052F142F6C
:1038C000292F382F80E201C080E00115110591E019
:1038D0002907310520F4805F980111270027011581
:1038E0001105210591E0390728F4885F322F212F37
:1038F000102F0027032F112722273327F801E1512A
:10390000FE4F9081890F1F910F9108952F923F9242
:103910004F925F926F927F928F929F92AF92BF92DF
:10392000CF92DF92EF92FF920F931F93CF93DF938B
:10393000CDB7DEB7A2970FB6F894DEBF0FBECDBFEE
:10394000390149835A83E02F00E20E94073E2B830E
:103950003C834D835E836F83788789879A8795013F
:10396000A601B7018E2F912F0E94073E2B873C871F
:103970004D875A8B6B8B7C8B8D8B9E8BE12CF12C26
:1039800000E010E0930149815A8160E070E080E03E
:1039900090E00E94913C2B8F3C8F4D8F5E8F6F8FFC
:1039A00078A389A39AA32B813C814D815E816F818D
:1039B000788589859A850E94913C522E432E342E1B
:1039C000252E6F8B788F898F9A8FAB84BC84CD84A2
:1039D000DA88EB88FC880D891E89930149815A8118
:1039E00060E070E080E090E00E94913CA52CB42C57
:1039F000C32CD22CEF88F88C098D1A8D0E94233E9F
:103A000029833A834E875F87688B798B782E692E5E
:103A1000AB84BC84CD84DA88EB88FC880D891E8950
:103A20002B813C814D815E816F81788589859A8566
:103A30000E94913C2E833F83488759876A877B8702
:103A40008C879D8729813A814E855F856889798930
:103A5000872D962DA52CB42CC32CD22CEF88F88C56
:103A6000098D1A8D0E94413E18F4E1E0EB8301C0FC
:103A70001B8229813A814E855F8568897989872DE6
:103A8000962D00E20E94EC3D19012A016C837D8392
:103A9000B82FA92FAB8CBC8CCD8CDE8CEF8CF8A012
:103AA00009A11AA10E94233E7901142F5A8B5B01B0
:103AB0006C0100E20E94073EF401208731874287B3
:103AC00053878A89E486F58616878787F1E0970110
:103AD000412F582FB501C60151016201EC80FD80D4
:103AE0000B2F1A2F0E94413E08F0F0E02F2F30E0FC
:103AF00040E050E060E070E080E090E0AE80BF80A9
:103B0000C884D984EA84FB840C851D850E94233EE9
:103B100029011A01B62FA72FF82FE92F29813A8101
:103B20004E855F8568897989872D962D00E20E94F0
:103B3000073E59016A017B018C018B81E82A9201C1
:103B4000A1016B2F7A2F8F2F9E2F0E94233EB22F21
:103B5000A32F142FF52E00E20E94073EF4012083CC
:103B60003183428353839D01348325831683F782F7
:103B7000A2960FB6F894DEBF0FBECDBFDF91CF91F6
:103B80001F910F91FF90EF90DF90CF90BF90AF907B
:103B90009F908F907F906F905F904F903F902F906D
:103BA0000895AF92BF92CF92DF92EF92FF920F9360
:103BB0001F93CF93DF93EC0159016A017B019801B8
:103BC000A501B601C7010E944A1CA5EFA80FE1E0BC
:103BD000F0E0EA1BF109A7FDF395F983E88398016A
:103BE000A501B601C7010A2F0E94EC3D2A833B8341
:103BF0004C835D836E837F8388879987CE01DF91B5
:103C0000CF911F910F91FF90EF90DF90CF90BF90D9
:103C1000AF9008959F92AF92BF92CF92DF92EF92B2
:103C2000FF920F931F93CF93DF93922EA32EB42E68
:103C3000D52FC62FB72FF82FE92F670178018FE313
:103C4000C816D104E104F104E0F4002711270C198F
:103C50001D090F7311278F2F0E94EC3D11E0A0E08A
:103C60000E944A3E09F410E0292D3A2D4B2D5D2F7C
:103C70006C2F7B2F8F2F9E2F0C2D0E94073E212B08
:103C80000FC011E08F2FA0E00E944A3E09F410E01F
:103C9000212F30E040E050E060E070E080E090E014
:103CA000DF91CF911F910F91FF90EF90DF90CF9018
:103CB000BF90AF909F9008952F923F925F926F9226
:103CC0007F928F929F92AF92BF92CF92DF92EF92AC
:103CD000FF920F931F93CF93DF9300D000D0CDB707
:103CE000DEB73C832B83542E519490E0FC01319736
:103CF000EE0FFF1FEE0FFF1FE60FF71FC080D180F2
:103D0000E280F380642E97018601042E04C036956C
:103D10002795179507950A94D2F74801590104C0D1
:103D2000880C991CAA1CBB1C4A95D2F78C149D04C4
:103D3000AE04BF0409F00160DC01AA0FBB1FAA0F8B
:103D4000BB1F1B012A0E3B1E4B815C814A0F5B1F70
:103D50005A83498340E050E0E0E0F0E0652D6F7168
:103D6000562E3197445051097C01EE0EFF1EEF286C
:103D700071F17101E40EF51EA4E0EA1AF108D70111
:103D80008D909D90AD90BC9075016401052C04C090
:103D9000CC0CDD1CEE1CFF1C0A94D2F7C02AD12AE1
:103DA000E22AF32A29813A81240F351FD901CD92C5
:103DB000DD92ED92FC92139795018401062C04C0CC
:103DC00036952795179507950A94D2F7CACFEB81B8
:103DD000FC8100831183228333830F900F900F9017
:103DE0000F90DF91CF911F910F91FF90EF90DF9097
:103DF000CF90BF90AF909F908F907F906F905F908B
:103E00003F902F9008954F925F926F927F928F9282
:103E10009F92AF92BF92CF92DF92EF92FF920F9359
:103E20001F93CF93C82F69017A01B5E0F694E79408
:103E3000D794C794BA95D1F7482E512C612C712C88
:103E4000C114D104E104F10409F14C145D046E04C1
:103E50007F0410F4730162018C2DEC2FF0E0EC195B
:103E6000FD09EE0FFF1FEE0FFF1FE60FF71FA0E08B
:103E7000B0E081909190A190B19081149104A1043F
:103E8000B10441F411968A13F4CF04C0812C912C13
:103E9000540102C0902FE12FC414D504E604F704A6
:103EA000B0F4422F4F718C2F8C19442389F1960165
:103EB000220F331F220F331F200F311F0E945C1E61
:103EC000C114D104E104F10471F0902FE12FA92F66
:103ED000BE2F1D921D921D921D9281E0C81AD1081D
:103EE000E108F108B1F789288A288B2891F1F801B7
:103EF00084E0C89FE00DF11D1124349780819181E9
:103F0000A281B381816080839183A283B38321C026
:103F1000AC2FB0E0A150B04CFD01EC19FD09EE0F43
:103F2000FF1FEE0FFF1FE60FF71F3496AA0FBB1FF0
:103F3000AA0FBB1FA00FB11F1496882331F27291F4
:103F40006291529142917E936E935E934E93815013
:103F5000F4CFCF911F910F91FF90EF90DF90CF9012
:103F6000BF90AF909F908F907F906F905F904F9099
:103F7000089590919904982B9093990408952F9205
:103F80003F924F925F926F927F928F929F92AF92E9
:103F9000BF92CF92DF92EF92FF920F931F93CF9336
:103FA000DF93CDB7DEB72A970FB6F894DEBF0FBE0A
:103FB000CDBF29013A014B018A879E83A982BA822B
:103FC000CB82DC82170109871D83892F8F778F832E
:103FD00000E0A12FAF77A88710E0BA85B860BA8754
:103FE000E985E860E987111102C0002339F080E11A
:103FF0000E94B91F0023A9F11123D9F19201A30155
:10400000B4018A859F81A980BA80CB80DC80710150
:10401000098518850E94413E20F19501A601B10154
:10402000C8015201630174010A851F810E94413E4B
:1040300000F1F02FEE819201A301B401802F9E2F99
:10404000A980BA80CB80DC80710109851D810E9426
:10405000413E89F080F0250136014101F02FE12F2A
:104060000AC049805A806B807C804101F985ED81CE
:1040700002C0FA85EE819201A301B4018F2F9E2F19
:104080002A960FB6F894DEBF0FBECDBFDF91CF9159
:104090001F910F91FF90EF90DF90CF90BF90AF9066
:1040A0009F908F907F906F905F904F903F902F9058
:1040B00008953F924F925F926F927F928F929F925C
:1040C000AF92BF92CF92DF92EF92FF920F931F9326
:1040D000CF93DF93C82FFB01D42F322E408451841D
:1040E00062847384842F8B7F51F4D301C2018827AB
:1040F000B7FD83959927AA27BB27A82F13C0242F84
:1041000030E0CC2319F082E090E002C083E090E040
:104110002817390731F4A1E04114510461047104F6
:1041200009F4A0E080809180A280B3809401A50171
:1041300060E070E080E090E000E20E94EC3DB22F91
:10414000D32E7A01C62EB72E4481558166817781A0
:104150008A019B01B42BD12AE22AF32AF82FE92FF6
:10416000AA23E9F02B2F3D2DA7016C2D7B2DA1E07B
:104170000E942C3EB22FD32E7A01C62EB72EF82FD6
:10418000E92FA0E00E944A3ED1F1B301A2017F775E
:10419000452B462B472B19F4D11101C0BE7FCC23F0
:1041A00089F02B2F3D2DA7016C2D7B2D8F2F9E2F5E
:1041B0000E94A53DB22FD32E7A01C62ED72FF82FFD
:1041C000E92F01C0DB2D2B2F3D2DA7016C2D7D2F5D
:1041D0008F2F9E2FA0E00E944A3E29F00FE30E94FD
:1041E000073EC2130CC03320C1F04528462847289B
:1041F000A1F0809199048160809399040EC080E1C0
:104200000E94B91FCC2389F020E030E040E050E06C
:1042100060E070E080E090E810C02B2F3D2DA701FA
:104220006C2D7D2F8F2F9E2F08C02FEF3FEF4FEF6C
:104230005FEF6FEF7FEF8FEF9FE7DF91CF911F91E0
:104240000F91FF90EF90DF90CF90BF90AF909F9035
:104250008F907F906F905F904F903F9008952F9236
:104260003F924F925F926F927F928F929F92AF9206
:10427000BF92CF92DF92EF92FF920F931F93CF9353
:10428000DF93CDB7DEB72E970FB6F894DEBF0FBE23
:10429000CDBF8B877E876D871701280139014A01C1
:1042A00020919A0431E03C8721111C86822F8B7F5C
:1042B00089F030E04B85442319F082E090E002C0A1
:1042C00083E090E02817390751F46FEF73E07A83A9
:1042D000698307C080E092E09A83898302C01A82D2
:1042E0001982D101B370BA87A987ED85FE85ED3FAC
:1042F00027E0F20708F483C0F7FF46C0809107016A
:104300008823F1F03196E1F4E981FA819F0140E0E0
:1043100050E060E070E080E090E0510162017301E4
:1043200084010E94233E20953095409550956095DC
:104330007095809590950FE30E94073ED22E02C0A3
:10434000DD24D394ED84FE84F194E194F1080027F8
:10435000F7FC0095102F9101A201B301C4010E9446
:104360000A1E19012A013B014C0133703A87298743
:10437000DD2009F442C0232B09F44BC082E00E94E7
:10438000B91F1E861D863FC0ED85FE85ED3FF740B7
:1043900099F4E981FA819F0140E050E060E070E02B
:1043A00080E090E051016201730184010E94233E8C
:1043B000A0E00E944A3E1CF585E00E94B91F2B85B3
:1043C00030E040E050E060E070E080E090E00FE33B
:1043D0000E94EC3D80519048AA24A394A981BA81FF
:1043E000AB2B09F0A12CB12CC12CD12CE12CF12C40
:1043F00000E010E00E94383E8FC01E861D86E985D1
:10440000FA85EF2B41F080919904816080939904A3
:1044100002C01E861D8649815A819A0140E050E003
:1044200060E070E0CB0129833A834B835C836D832A
:104430007E838F8398879101A201B301C401A98073
:10444000BA80C12CD12CE12CF12C00E010E00E94AC
:10445000233E0AE00E94073E332E2A01662EE72EF5
:104460008983292EE1E069857A856115724009F01A
:10447000E0E09C85E923E095E2232B8530E040E0F5
:1044800050E060E070E080E090E00FE30E94EC3DDF
:1044900059016A016987F72E8B87192F2E2F332D2B
:1044A000A201662D7E2D8981922DA0E00E944A3EB8
:1044B000B1F09E85990F990B2D853E85492F592F77
:1044C000692F792F892F04E30E94EC3D722E832EF1
:1044D000942EF52F6C87B72FA82F9D8708C0712CBD
:1044E000812C912CF0E01C86B0E0A0E01D862E2FE0
:1044F000332DA201662D7E2D8981922DE9840B85B5
:104500000E94233EA72CB82CC92CDF2EEC84FB2E56
:104510000A2F1D850E94233E2E960FB6F894DEBF0B
:104520000FBECDBFDF91CF911F910F91FF90EF9004
:10453000DF90CF90BF90AF909F908F907F906F90C3
:104540005F904F903F902F9008952F923F924F92FF
:104550005F926F927F928F929F92AF92BF92CF9213
:10456000DF92EF92FF920F931F93CF93DF93CDB71C
:10457000DEB764970FB6F894DEBF0FBECDBF2B83B6
:10458000F32FE42F5C836D837E838F83988B0B8B5B
:104590008C8A04E30E94073EC90197709A8389833D
:1045A0009501A601B7018B89912F0E94073EC90191
:1045B00097709A8B898BA981BA81A81BB90B2B8123
:1045C0003F2F4E2F5C816D817E818F818F7090E0B7
:1045D00009E00E94EC3D288739874A875B876C8712
:1045E0007D878E879F879501A601B7018B898F7084
:1045F00090E00E94EC3D19012A013B014C0110970B
:1046000009F054C089819A818F3F974089F42885A9
:104610002229398533294A8544295B8555296C85AA
:1046200066297D8577298E8588299F8599299FC050
:1046300089819A81892B51F52B813F2F4E2F5C81E7
:104640006D817E818F8198890B890E94233E39017B
:104650004A01B62FA72FF82FE92FEF772C8930E0EA
:1046600040E050E060E070E080E090E00FE30E9406
:10467000EC3D59016A017B018C019301A4016B2F70
:104680007A2F8F2F9E2F0E94233EDFC09101A2011F
:10469000B301C401905CA884B984CA84DB84EC842F
:1046A000FD840E851F850E94233EB4C0B7FF52C013
:1046B00089899A898F3F9740B9F49101A201B3018A
:1046C000C401A0E00E944A3E09F0B4C02C8930E049
:1046D00040E050E060E070E080E090E00FE30E9496
:1046E000EC3D80519048B1C089819A81892B49F075
:1046F00020E030E040E050E060E070E080E090E2F8
:1047000008C0288539854A855B856C857D858E85C1
:104710009F85A884B984CA84DB84EC84FD840E85DB
:104720001F850E94233EEE24FF24EA1AFB0A00277D
:10473000F7FC0095102F0E940A1E288739874A87A8
:104740005B876C877D878E879F8789899A899A8303
:10475000898335C089819A818F3F974071F428857C
:1047600039854A855B856C857D858E859F85A0E032
:104770000E944A3E09F05EC070C089899A89892BDF
:1047800049F020E030E040E050E060E070E080E0A0
:1047900090E204C09101A201B301C4015101620180
:1047A000730184010E94233E7D010027F7FC0095E0
:1047B000102F0E940A1E19012A013B014C01288575
:1047C00039854A855B856C857D858E859F85510100
:1047D0006201730184010E94233E905E79018A0187
:1047E000B62FD72EF82FE92F2F3FAFEF3A074A0702
:1047F0005A076A077A078A07AFE39A0709F080F435
:1048000089819A8101979A8389838F2F9E2F01E056
:104810000E94EC3D79018A01B62FD72EF82FE92F9F
:104820002B2F3D2D4F2F5E2F69817A818C890E941D
:104830002F211BC00B892B813F2F4E2F5C816D8157
:104840007E818F8198890E94BF1F2B83F32FE42FD5
:104850005C836D837E838F83988B2B813F2F4E2FBC
:104860005C816D817E818F81988964960FB6F89402
:10487000DEBF0FBECDBFDF91CF911F910F91FF9093
:10488000EF90DF90CF90BF90AF909F908F907F90F0
:104890006F905F904F903F902F9008952F923F928E
:1048A0004F925F926F927F928F929F92AF92BF9240
:1048B000CF92DF92EF92FF920F931F93CF93DF93EC
:1048C000CDB7DEB729970FB6F894DEBF0FBECDBFC8
:1048D000B82E6B01902E522E632E742E852E9701CA
:1048E000402F512F652D762D872D982D0E944A1C23
:1048F0000FEF080FE02FFF27E7FDF095FF83EE8312
:10490000F6018E819F81E81BF90B0A300CF45AC026
:10491000ED3F97E0F90708F055C02B2D30E040E05F
:1049200050E060E070E080E090E00FE30E94EC3D3A
:1049300059016A016A837B838C839D839701492D8A
:10494000512F652D762D872D982DA0E00E944A3E8F
:10495000A1F09F2F990F990B9F01492F592F692F74
:10496000792F892F04E30E94EC3D29873887DA01EB
:10497000462E372E282E998308C019861886A0E067
:10498000B0E0412C312C212C1982EE81FF813A9725
:104990009701492D512F652D762D872D982D0E2F9E
:1049A0000E94EC3DEA80FB800C811D810E94233E29
:1049B000A984B8846D01E42CF32C022D19810E9486
:1049C000233E11C09701492D512F652D762D872D3E
:1049D000982D0E94EC3D79018A019B01AC01BF0139
:1049E0008B2D0E942F2129960FB6F894DEBF0FBEA3
:1049F000CDBFDF91CF911F910F91FF90EF90DF908E
:104A0000CF90BF90AF909F908F907F906F905F906E
:104A10004F903F902F9008952F923F924F925F9228
:104A20006F927F928F929F92AF92BF92CF92DF92BE
:104A3000EF92FF920F931F93CF93DF93CDB7DEB723
:104A400065970FB6F894DEBF0FBECDBFB22FF32F20
:104A5000E42F59876A877B878C879F870D8B8C8A89
:104A600004E30E94073E37703E872D879501A6011B
:104A7000B7018D89912F0E94073EC9019770998BCC
:104A8000888B2D853E85281B390B3B8B2A8B2B2F42
:104A90003F2F4E2F59856A857B858C858F7090E0DE
:104AA0000AE00E94EC3D2A833B834C835D836E8346
:104AB0007F83888799839501A601B7018D898F70BF
:104AC00090E00E94EC3D19012A013B014C018A89CA
:104AD0009B89181619060CF4CCC0892B09F05FC00D
:104AE0002D853E852F3F374019F52A8122293B81AC
:104AF00033294C8144295D8155296E8166297F8146
:104B000077298885882999819929A0E00E944A3EC1
:104B100009F005C180E10E94B91FB0E0F0E0E0E0DB
:104B200019861A861B8698EF9C872FEF2F870CC15A
:104B30008D859E85892B41F4E1E0F0E0F98BE88BCF
:104B400021E030E03E872D879101A201B301C4012D
:104B5000AA80BB80CC80DD80EE80FF800885198133
:104B60000E94413E08F4BFC09501A601B701C801EB
:104B700051016201730184010E94413E08F462C048
:104B800080919A04B0E0F0E0E0E019861A861B8676
:104B90001C86823009F0D7C030E83F87D5C08889AD
:104BA00099898F3F9740C9F49101A201B301C401D3
:104BB000A0E00E944A3E09F0B2C021E03C892327D0
:104BC00030E040E050E060E070E080E090E00FE333
:104BD0000E94EC3D80519048ADC08D859E85892B0B
:104BE00049F020E030E040E050E060E070E080E03C
:104BF00090E408C02A813B814C815D816E817F8178
:104C000088859981AA80BB80CC80DD80EE80FF8082
:104C1000088519810E94233EEA88FB88F194E1947B
:104C2000F1080027F7FC0095102F0E940A1E2A8326
:104C30003B834C835D836E837F8388879983992D23
:104C40009064992E81E0EC89E827EC8B9101A20118
:104C5000B301C401AA80BB80CC80DD80EE80FF80E0
:104C6000088519810E94383EE889F989FE87ED8719
:104C700048C02D853E852F3F374071F42A813B8106
:104C80004C815D816E817F8188859981A0E00E9441
:104C90004A3E09F044C058C0E889F989EF2B49F031
:104CA00020E030E040E050E060E070E080E090E440
:104CB00004C09101A201B301C40151016201730159
:104CC00084010E94233EEA89FB897F010027F7FCCB
:104CD0000095102F0E940A1E19012A013B014C0168
:104CE000F981F064F9832A813B814C815D816E8179
:104CF0007F818885998151016201730184010E943D
:104D0000383E2D843E84E1E02E1A310879018A0173
:104D10009B01AC01B1018C890E944E241DC00D89FC
:104D20002B2F3F2F4E2F59856A857B858C859F853C
:104D30000E94BF1FB22FF32FE42F59876A877B870A
:104D40008C879F8701C01F862B2F3F2F4E2F5985A1
:104D50006A857B858C859F8565960FB6F894DEBF46
:104D60000FBECDBFDF91CF911F910F91FF90EF90BC
:104D7000DF90CF90BF90AF909F908F907F906F907B
:104D80005F904F903F902F9008956F927F928F92F7
:104D90009F92AF92BF92CF92DF92EF92FF920F93CA
:104DA0001F93CF93DF93722E932ED42FC52FB62F40
:104DB000A72FF82FE92F602E0FE30E94073E822EC7
:104DC0009501A601B701862D912F0E94073E062D61
:104DD00082120BC0272D392D4D2F5C2F6B2F7A2F70
:104DE0008F2F9E2F0E94A5220AC0272D392D4D2FCF
:104DF0005C2F6B2F7A2F8F2F9E2F0E940C25DF9117
:104E0000CF911F910F91FF90EF90DF90CF90BF90C7
:104E1000AF909F908F907F906F9008952F923F92C8
:104E20004F925F926F927F928F929F92AF92BF92BA
:104E3000CF92DF92EF92FF920F931F93CF93DF9366
:104E4000CDB7DEB7EE970FB6F894DEBF0FBECDBF7D
:104E500019012A013B01F82F9DA7EF2DB02F04E384
:104E60000E94073E2B873C878B849C8407E090221E
:104E70002B8E3BA24CA25DA26EA27FA22F2F2F7081
:104E80002B8B18A69501A6016E2D7F2D8B2F912FB0
:104E900004E30E94073E2B873C874D875E876F8720
:104EA000788B898B9A8B4B855C8557705C874B8799
:104EB000AEA6BFA6C8AAD9AAE9A6FAAA5B2F5F70B8
:104EC000F52E1CAA9501A6016E2D7E2F8B2F912FFA
:104ED0000FE30E94073E2DAB9101A201B3018F2F7A
:104EE0009DA50E94073E6DA962276DAB7FEF8716D7
:104EF00077E09706E1F49101A201B3018B8990E07C
:104F0000A0E00E944A3E09F06CC28B859C858F3FD1
:104F1000974009F07CC29501A6016E2D7E2F8F2D42
:104F200090E0A0E00E944A3E09F05BC264C22B857B
:104F30003C852F3F374061F49501A6016E2D7E2FF1
:104F40008F2D90E0A0E00E944A3E09F04AC26DC257
:104F50006B857C85672B09F042C09501A6016E2DFB
:104F60007E2F8F2D90E0A0E00E944A3EC9F4992D3B
:104F7000990F990B222D2829332D3929492F44299E
:104F8000592F5529692F6629792F77298B89892BE4
:104F90000E944A3E09F42FC288E00E94B91F37C21E
:104FA0000EA51FA528A939A949A55AA96F2D70E0FA
:104FB000CE0101960E94D11DE980FA80FC86EB8625
:104FC000FB80FEA60C810FA71D8118AB2E8129AB9B
:104FD0003F8139A748854AABF9845A855CAB811477
:104FE000910429F59101A201B3018B8990E0A0E021
:104FF0000E944A3E09F419C281019201A301682F5F
:1050000070E0CE0101960E94D11D89809A806B814B
:105010006B8F7C817BA38D818CA39E819DA3AF81AF
:10502000AEA3B885BFA3E984EB8A0A8508A7F4017B
:105030002B853C85E21BF30BAB89A061BF2DB061D2
:105040002B8D3BA14CA15DA16EA17FA18A2F98A5BC
:10505000AEA4BFA4C8A8D9A8E9A4FAA80B2F1CA97C
:105060000E94413E48F4AF0143505C4F5FAB4EABF2
:105070004CA15DA10BE00EC0BF0162507C4F7FAB25
:105080006EAB2B8D3BA14CA15DA16EA17FA18A2FA0
:1050900098A50AE00E94EC3D2BA33CA34DA35EA380
:1050A0006FA378A78DA79BAB2EA53FA548A959A9AB
:1050B00069A57AA98B2F9CA90BE00E94EC3D1901F0
:1050C0002A0100E20E94073E2EA73FA748AB59AB3A
:1050D0006AAB7CAB88AF99AFB901CA010E94701B63
:1050E00062507109810991097B018C0120E030E057
:1050F000A9016B8BFC8A0D8B1E8B2F8B388F498FF0
:105100005A8F2BA13CA14DA15EA16FA178A58DA5C1
:105110009BA900E20E94073E59016A017B018C01B4
:105120002B893C894D895E8960E070E080E090E0E9
:105130000E94913C00E20E94073E2B873C874D87EE
:105140005E876F87788B898B9A8B0B851C852D8565
:105150003E85000F111F221F331F09A71AA72BA777
:105160003CA794E056944794379427949A95D1F7A6
:10517000A901980160E070E0CB012B8F3C8F4D8F2F
:105180005E8F6F8F78A389A39AA3AEA4BFA4C8A88B
:10519000D9A8EAA8FCA808AD19AD60E070E080E0ED
:1051A00090E00E94913C59016A017B018C012BA186
:1051B0003CA14DA15EA16FA178A58DA59BA90E94E0
:1051C000383E0CE10E94EC3D89013A014B017C0123
:1051D00069A57AA58BA59CA5A20191010E94EA3C34
:1051E00059016A01FB01DC019801A301B401C70167
:1051F0007F018D010E94383E29A73DA74BAB5AAFD6
:105200006BAF7CAF8DAF9EAF00E20E94073EAB88D4
:10521000BC88CD88DE88E12CF12C00E010E00E94F3
:10522000913C00E20E94073E49015A01C501B401C8
:105230006C5F7F4F8F4F9F4F6B8B7C8B8D8B9E8BCB
:105240004B015C019B01A50160E070E080E090E013
:1052500004E00E94EC3D39014A01B62FA72FF82F38
:10526000E92F2B853C854D855E856F8578898989F9
:105270009A8900E20E94EC3D59016A017B018C0190
:105280009301A4016B2F7A2F8F2F9E2F0E94233E14
:105290002B873B8F4BA35CA36DA37EA38FA398A703
:1052A000317040E050E060E070E080E090E0AFE31B
:1052B0000E944A3E11F008F086C0722F70787B87FA
:1052C0006B887C888D889E8888EF6822660C771CA6
:1052D000881C991C8401730120E030E0A9016B8ACD
:1052E000FC8A0D8B1E8B2F8B388F498F5A8FAEA463
:1052F000BFA4C8A8D9A8EAA8FCA808AD19AD2B89F5
:105300003C894D895E8970E080E00E94913C5901A2
:105310006A017B018C0129A53DA54BA95AAD6BAD56
:105320007CAD8DAD9EAD0E94383E0CE10E94EC3DFF
:1053300059016A017B018C01C401B301A2019101F1
:105340000E94EA3C39014A01B62FA72FF82FE92F16
:105350009501A601B701C80153016401EB2EFA2E95
:105360000F2F1E2F0E94383ED22EE32EF42E052F33
:10537000162FB72FF82FE92FA0E00E944A3EA4F481
:105380002B853B8D4BA15CA16DA17EA18FA198A522
:10539000A0E80E942C3E2B873B8F4BA35CA36DA300
:1053A0007EA38FA398A70FC02D2D3E2D4F2D502FDC
:1053B000612F7B2F8F2F9E2FA0E00E944A3E19F075
:1053C0000B8501600B87EB84FB8C0BA11CA12DA12D
:1053D0003EA14FA158A56EA97FA98DA90E942F219A
:1053E0002FC0FE2E0B2F9101A201B3018F2F9DA57F
:1053F0000E94BF1F25C080E10E94B91F20E030E05D
:1054000040E050E060E070E088EF9FEF19C02DA908
:1054100030E040E050E060E070E080E090E00FE3DA
:105420000E94EC3D805190480BC02DA930E040E037
:1054300050E060E070E080E090E00FE30E94EC3D1F
:10544000EE960FB6F894DEBF0FBECDBFDF91CF91C1
:105450001F910F91FF90EF90DF90CF90BF90AF9092
:105460009F908F907F906F905F904F903F902F9084
:1054700008952F923F924F925F926F927F928F92F8
:105480009F92AF92BF92CF92DF92EF92FF920F93D3
:105490001F93CF93DF9300D000D01F92CDB7DEB71C
:1054A000A62FFC013A2C5B2C7C2C9D2CBE2D0E943F
:1054B000413E99F023293529472959296B2F6A2B19
:1054C0007F29912F9F2B11E0802F8E2B9F77A0E0BB
:1054D0000E944A3E19F010E001C011E0812F0F90A8
:1054E0000F900F900F900F90DF91CF911F910F9120
:1054F000FF90EF90DF90CF90BF90AF909F908F90F4
:105500007F906F905F904F903F902F9008952F92D3
:105510003F924F925F926F927F928F929F92AF9243
:10552000BF92CF92DF92EF92FF920F931F93CF9390
:10553000DF93CDB7DEB728970FB6F894DEBF0FBE66
:10554000CDBF322E432E542E652E762E872E982ECA
:105550009887AD82DE82EF82F9820A830FE30E9490
:10556000073EE22F2A2D3B2D4C2D5D2DB7018A8160
:10557000912F0E94073EE217C9F0EE2371F12A2D08
:105580002329342D3B29452D4C295D2D56296E2D7F
:1055900067297F2D78299885912B8A8189299F7782
:1055A000A0E00E944A3EC9F081E018C0232D342DAE
:1055B000452D562D672D782D892D9885AD80DE805F
:1055C000EF80F9800A810E94413E39F0F1E00E94AB
:1055D000413E08F0F0E0EF13E7CF80E028960FB6E9
:1055E000F894DEBF0FBECDBFDF91CF911F910F9119
:1055F000FF90EF90DF90CF90BF90AF909F908F90F3
:105600007F906F905F904F903F902F9008952F92D2
:105610003F924F925F926F927F928F929F92AF9242
:10562000BF92CF92DF92EF92FF920F931F93CF938F
:10563000DF93CDB7DEB7E4970FB6F894DEBF0FBEA9
:10564000CDBF622E832E942EB52FF62FE72F8AA77B
:105650009CA70BA704E30E94073E2B8F3C8F4B8C2B
:105660005C8C87E058226CA28DA29EA2BFA3F8A7F3
:10567000E9A7AAA5AF70ABA31DA69501A601B70126
:105680008BA5912F0E94073E2B8F3C8F4D8F5E8FF5
:105690006F8F78A389A39AA32B8C3C8C87E0382248
:1056A000AEA6BFA6C8AAD9AAEAAAFBAAABA5AF70A4
:1056B000AB8F1CAA9501A601B7018BA5912F0FE313
:1056C0000E94073E722E262D382D492D5B2F6F2FFD
:1056D0007E2F8AA59CA50E94073E72268FEF481652
:1056E00087E0580661F5262D382D492D5B2F6F2F49
:1056F0007E2F8BA190E0A0E00E944A3E09F02FC1CE
:10570000AFEF2A16A7E03A0649F49501A601B701C2
:105710008B8DA0E00E944A3E09F021C1932D990F84
:10572000990B2A2D22293B2D3329492F4C29592FFA
:105730005D29692F6E29792F7F298B8D1FC08FEFEF
:10574000281687E0380661F59501A601B7018B8D13
:1057500090E0A0E00E944A3E09F001C1952D990F0A
:10576000990B262D2429382D3529492F4929592FC0
:105770005B2B692F6F2B792F7E2B8BA1892BA0E0C0
:105780000E944A3E09F0F7C080E10E94B91F20E064
:1057900030E040E050E060E070E088EF9FEF04C14F
:1057A0004114510441F52CA13DA14EA15FA168A572
:1057B00079A58BA190E0A0E00E944A3E09F4E9C0DF
:1057C00089019A01AB01682F70E0CE0141960E94D9
:1057D000D11D49885A88AB89ACA3BC89BDA38D89EA
:1057E0008EA3AE89AFA3BF89B8A7888D89A7A98DDD
:1057F000ABA3BA8DBDA72114310429F59501A601EB
:10580000B7018B8D90E0A0E00E944A3E09F4C1C030
:1058100085019601A701682F70E0CE0141960E9494
:10582000D11D29883A888B898EA7AC89AFA7BD89FD
:10583000B8AB8E8989ABAF89AAABB88DBBAB898D6C
:105840008B8FAA8DACAB240C351C2EA53FA548A987
:1058500059A96AA97BA98B8D80619CA90BE00E9444
:10586000EC3D59016A017B01E82F192F2CA13DA1C4
:105870004EA15FA168A579A58BA180619DA50AE0D5
:105880000E94EC3DDE0111964D010E2F0E94861CF8
:1058900089809A80AB80BC809401A50160E070E0B3
:1058A00080E090E000E20E94EC3D79018A01A62EA2
:1058B000A72FF82FE92F4D815E816F8178859A019E
:1058C000AB01E22AF32A042B152BBA2CCA2EDF2EA9
:1058D0009E2E49855A856B857C85452B462B472B0B
:1058E00041F44D855E856F857889452B462B472B86
:1058F00039F0BE2DB160EB2EBA2CCA2EDF2E9E2EB3
:105900009701A8016A2D7A2F8F2F9E2F2F3F3F4F8F
:105910004F4F5F4F6F4F7F4F8F4F9F4331F028F0B6
:105920008FEF281A83E0380A11C0B4E03B1A9701C0
:10593000A8016A2D7A2F8F2F9E2F01E00E94EC3D47
:1059400079018A01B62EC72ED82E992E2B2D3C2DEB
:105950004D2D592DB101872D0E942F2125C00BA55A
:10596000262D382D492D5B2F6F2F7E2F8AA59CA5C4
:105970000E94BF1F19C0272D30E040E050E060E0DA
:1059800070E080E090E00FE30E94EC3D8051904891
:105990000BC0272D30E040E050E060E070E080E098
:1059A00090E00FE30E94EC3DE4960FB6F894DEBF62
:1059B0000FBECDBFDF91CF911F910F91FF90EF9060
:1059C000DF90CF90BF90AF909F908F907F906F901F
:1059D0005F904F903F902F9008952F923F924F925B
:1059E0005F926F927F928F929F92AF92BF92CF926F
:1059F000DF92EF92FF920F931F93CF93DF93CDB778
:105A0000DEB72F970FB6F894DEBF0FBECDBF2F873E
:105A10003D874E87F52FE62F79838A839B83102F4E
:105A2000BE2D04E30E94073E790187E0F822AFEF24
:105A3000EA16A3E0FA060CF076C02F853D854E8568
:105A40005F2F6E2F79818A819B819F77A0E00E94D2
:105A50004A3E49F42F853D854E855F2F6E2F798113
:105A60008A819B816AC1BB2329F08091990481605E
:105A700080939904212C312C412C512C612C712CB8
:105A8000812CBB81B0789B2E123049F118F4112380
:105A900031F04FC11330A9F1143079F04AC12F858C
:105AA0003D854E855F2F6E2F79818A818F7090E0C2
:105AB000A0E00E944A3E09F43CC1EEEFEE16E3E09E
:105AC000FE0609F036C1212C312C412C512C612CC1
:105AD000712C70EF872EF92DFF639F2E2AC120E0D5
